{
	"data": {
		"bytecode": {
			"linkReferences": {},
			"object": "60806040526516bcc41e90006009553480156200001b57600080fd5b506040518060400160405280600d81526020017f544f5251554520546f6b656e73000000000000000000000000000000000000008152506040518060400160405280600481526020017f544f5251000000000000000000000000000000000000000000000000000000008152508160009080519060200190620000a092919062000103565b508060019080519060200190620000b992919062000103565b50505033600a60006101000a81548173ffffffffffffffffffffffffffffffffffffffff021916908373ffffffffffffffffffffffffffffffffffffffff16021790555062000218565b8280546200011190620001e2565b90600052602060002090601f01602090048101928262000135576000855562000181565b82601f106200015057805160ff191683800117855562000181565b8280016001018555821562000181579182015b828111156200018057825182559160200191906001019062000163565b5b50905062000190919062000194565b5090565b5b80821115620001af57600081600090555060010162000195565b5090565b7f4e487b7100000000000000000000000000000000000000000000000000000000600052602260045260246000fd5b60006002820490506001821680620001fb57607f821691505b60208210811415620002125762000211620001b3565b5b50919050565b6144f580620002286000396000f3fe6080604052600436106101815760003560e01c806370a08231116100d1578063ae677aa31161008a578063c87b56dd11610064578063c87b56dd1461054c578063e219fc7514610589578063e61a70c0146105a5578063e985e9c5146105e657610181565b8063ae677aa3146104eb578063b88d4fde14610507578063be9af5361461053057610181565b806370a08231146103d457806372b3b6201461041157806387506a0d1461044157806395d89b411461046c578063a22cb46514610497578063aa46a400146104c057610181565b8063202e37401161013e57806342842e0e1161011857806342842e0e1461031a57806345f8fa80146103435780636352211e1461036e57806364a748a3146103ab57610181565b8063202e3740146102aa57806323b872dd146102d5578063361c1995146102fe57610181565b806301ffc9a71461018657806306fdde03146101c3578063081812fc146101ee578063095ea7b31461022b5780630f08efe01461025457806312e855851461027f575b600080fd5b34801561019257600080fd5b506101ad60048036038101906101a89190612cd8565b610623565b6040516101ba9190612d20565b60405180910390f35b3480156101cf57600080fd5b506101d8610705565b6040516101e59190612dd4565b60405180910390f35b3480156101fa57600080fd5b5061021560048036038101906102109190612e2c565b610797565b6040516102229190612e9a565b60405180910390f35b34801561023757600080fd5b50610252600480360381019061024d9190612ee1565b61081c565b005b34801561026057600080fd5b50610269610934565b6040516102769190613077565b60405180910390f35b34801561028b57600080fd5b50610294610b9d565b6040516102a191906130a8565b60405180910390f35b3480156102b657600080fd5b506102bf610ba7565b6040516102cc9190613077565b60405180910390f35b3480156102e157600080fd5b506102fc60048036038101906102f791906130c3565b610e95565b005b61031860048036038101906103139190613116565b610ef5565b005b34801561032657600080fd5b50610341600480360381019061033c91906130c3565b6110f8565b005b34801561034f57600080fd5b50610358611118565b6040516103659190613077565b60405180910390f35b34801561037a57600080fd5b5061039560048036038101906103909190612e2c565b611406565b6040516103a29190612e9a565b60405180910390f35b3480156103b757600080fd5b506103d260048036038101906103cd9190612e2c565b6114b8565b005b3480156103e057600080fd5b506103fb60048036038101906103f69190613156565b6114d9565b60405161040891906130a8565b60405180910390f35b61042b600480360381019061042691906132b8565b611591565b60405161043891906130a8565b60405180910390f35b34801561044d57600080fd5b506104566115d3565b60405161046391906130a8565b60405180910390f35b34801561047857600080fd5b506104816115df565b60405161048e9190612dd4565b60405180910390f35b3480156104a357600080fd5b506104be60048036038101906104b99190613340565b611671565b005b3480156104cc57600080fd5b506104d5611687565b6040516104e291906130a8565b60405180910390f35b61050560048036038101906105009190612e2c565b611693565b005b34801561051357600080fd5b5061052e60048036038101906105299190613421565b61172d565b005b61054a60048036038101906105459190612e2c565b61178f565b005b34801561055857600080fd5b50610573600480360381019061056e9190612e2c565b6119c7565b6040516105809190612dd4565b60405180910390f35b6105a3600480360381019061059e9190613116565b611b19565b005b3480156105b157600080fd5b506105cc60048036038101906105c79190612e2c565b611d0e565b6040516105dd9594939291906134b3565b60405180910390f35b3480156105f257600080fd5b5061060d60048036038101906106089190613506565b611d91565b60405161061a9190612d20565b60405180910390f35b60007f80ac58cd000000000000000000000000000000000000000000000000000000007bffffffffffffffffffffffffffffffffffffffffffffffffffffffff1916827bffffffffffffffffffffffffffffffffffffffffffffffffffffffff191614806106ee57507f5b5e139f000000000000000000000000000000000000000000000000000000007bffffffffffffffffffffffffffffffffffffffffffffffffffffffff1916827bffffffffffffffffffffffffffffffffffffffffffffffffffffffff1916145b806106fe57506106fd82611e25565b5b9050919050565b60606000805461071490613575565b80601f016020809104026020016040519081016040528092919081815260200182805461074090613575565b801561078d5780601f106107625761010080835404028352916020019161078d565b820191906000526020600020905b81548152906001019060200180831161077057829003601f168201915b5050505050905090565b60006107a282611e8f565b6107e1576040517f08c379a00000000000000000000000000000000000000000000000000000000081526004016107d890613619565b60405180910390fd5b6004600083815260200190815260200160002060009054906101000a900473ffffffffffffffffffffffffffffffffffffffff169050919050565b600061082782611406565b90508073ffffffffffffffffffffffffffffffffffffffff168373ffffffffffffffffffffffffffffffffffffffff161415610898576040517f08c379a000000000000000000000000000000000000000000000000000000000815260040161088f906136ab565b60405180910390fd5b8073ffffffffffffffffffffffffffffffffffffffff166108b7611efb565b73ffffffffffffffffffffffffffffffffffffffff1614806108e657506108e5816108e0611efb565b611d91565b5b610925576040517f08c379a000000000000000000000000000000000000000000000000000000000815260040161091c9061373d565b60405180910390fd5b61092f8383611f03565b505050565b606060006109426007611fbc565b905060006109506008611fbc565b61095a6007611fbc565b610964919061378c565b90506000808267ffffffffffffffff8111156109835761098261318d565b5b6040519080825280602002602001820160405280156109bc57816020015b6109a9612b6c565b8152602001906001900390816109a15790505b50905060005b84811015610b92573073ffffffffffffffffffffffffffffffffffffffff16600b60006001846109f291906137c0565b815260200190815260200160002060020160009054906101000a900473ffffffffffffffffffffffffffffffffffffffff1673ffffffffffffffffffffffffffffffffffffffff161415610b7f576000600182610a4f91906137c0565b90506000600b60008381526020019081526020016000209050806040518060a0016040529081600082015481526020016001820160009054906101000a900473ffffffffffffffffffffffffffffffffffffffff1673ffffffffffffffffffffffffffffffffffffffff1673ffffffffffffffffffffffffffffffffffffffff1681526020016002820160009054906101000a900473ffffffffffffffffffffffffffffffffffffffff1673ffffffffffffffffffffffffffffffffffffffff1673ffffffffffffffffffffffffffffffffffffffff168152602001600382015481526020016004820160009054906101000a900460ff161515151581525050848681518110610b6257610b61613816565b5b6020026020010181905250600185610b7a91906137c0565b945050505b8080610b8a90613845565b9150506109c2565b508094505050505090565b6000600954905090565b60606000610bb56007611fbc565b905060008060005b83811015610c5e573373ffffffffffffffffffffffffffffffffffffffff16600b6000600184610bed91906137c0565b815260200190815260200160002060020160009054906101000a900473ffffffffffffffffffffffffffffffffffffffff1673ffffffffffffffffffffffffffffffffffffffff161415610c4b57600183610c4891906137c0565b92505b8080610c5690613845565b915050610bbd565b5060008267ffffffffffffffff811115610c7b57610c7a61318d565b5b604051908082528060200260200182016040528015610cb457816020015b610ca1612b6c565b815260200190600190039081610c995790505b50905060005b84811015610e8a573373ffffffffffffffffffffffffffffffffffffffff16600b6000600184610cea91906137c0565b815260200190815260200160002060020160009054906101000a900473ffffffffffffffffffffffffffffffffffffffff1673ffffffffffffffffffffffffffffffffffffffff161415610e77576000600182610d4791906137c0565b90506000600b60008381526020019081526020016000209050806040518060a0016040529081600082015481526020016001820160009054906101000a900473ffffffffffffffffffffffffffffffffffffffff1673ffffffffffffffffffffffffffffffffffffffff1673ffffffffffffffffffffffffffffffffffffffff1681526020016002820160009054906101000a900473ffffffffffffffffffffffffffffffffffffffff1673ffffffffffffffffffffffffffffffffffffffff1673ffffffffffffffffffffffffffffffffffffffff168152602001600382015481526020016004820160009054906101000a900460ff161515151581525050848681518110610e5a57610e59613816565b5b6020026020010181905250600185610e7291906137c0565b945050505b8080610e8290613845565b915050610cba565b508094505050505090565b610ea6610ea0611efb565b82611fca565b610ee5576040517f08c379a0000000000000000000000000000000000000000000000000000000008152600401610edc90613900565b60405180910390fd5b610ef08383836120a8565b505050565b60008111610f38576040517f08c379a0000000000000000000000000000000000000000000000000000000008152600401610f2f9061396c565b60405180910390fd5b6009543414610f7c576040517f08c379a0000000000000000000000000000000000000000000000000000000008152600401610f73906139fe565b60405180910390fd5b6040518060a001604052808381526020013373ffffffffffffffffffffffffffffffffffffffff1681526020013073ffffffffffffffffffffffffffffffffffffffff16815260200182815260200160001515815250600b60008481526020019081526020016000206000820151816000015560208201518160010160006101000a81548173ffffffffffffffffffffffffffffffffffffffff021916908373ffffffffffffffffffffffffffffffffffffffff16021790555060408201518160020160006101000a81548173ffffffffffffffffffffffffffffffffffffffff021916908373ffffffffffffffffffffffffffffffffffffffff1602179055506060820151816003015560808201518160040160006101000a81548160ff0219169083151502179055509050506110b53330846120a8565b817fb640004f1d14576d0c209e240cad0410e0d8c0c33a09375861fbadae2588a98d33308460006040516110ec9493929190613a1e565b60405180910390a25050565b6111138383836040518060200160405280600081525061172d565b505050565b606060006111266007611fbc565b905060008060005b838110156111cf573373ffffffffffffffffffffffffffffffffffffffff16600b600060018461115e91906137c0565b815260200190815260200160002060010160009054906101000a900473ffffffffffffffffffffffffffffffffffffffff1673ffffffffffffffffffffffffffffffffffffffff1614156111bc576001836111b991906137c0565b92505b80806111c790613845565b91505061112e565b5060008267ffffffffffffffff8111156111ec576111eb61318d565b5b60405190808252806020026020018201604052801561122557816020015b611212612b6c565b81526020019060019003908161120a5790505b50905060005b848110156113fb573373ffffffffffffffffffffffffffffffffffffffff16600b600060018461125b91906137c0565b815260200190815260200160002060010160009054906101000a900473ffffffffffffffffffffffffffffffffffffffff1673ffffffffffffffffffffffffffffffffffffffff1614156113e85760006001826112b891906137c0565b90506000600b60008381526020019081526020016000209050806040518060a0016040529081600082015481526020016001820160009054906101000a900473ffffffffffffffffffffffffffffffffffffffff1673ffffffffffffffffffffffffffffffffffffffff1673ffffffffffffffffffffffffffffffffffffffff1681526020016002820160009054906101000a900473ffffffffffffffffffffffffffffffffffffffff1673ffffffffffffffffffffffffffffffffffffffff1673ffffffffffffffffffffffffffffffffffffffff168152602001600382015481526020016004820160009054906101000a900460ff1615151515815250508486815181106113cb576113ca613816565b5b60200260200101819052506001856113e391906137c0565b945050505b80806113f390613845565b91505061122b565b508094505050505090565b6000806002600084815260200190815260200160002060009054906101000a900473ffffffffffffffffffffffffffffffffffffffff169050600073ffffffffffffffffffffffffffffffffffffffff168173ffffffffffffffffffffffffffffffffffffffff1614156114af576040517f08c379a00000000000000000000000000000000000000000000000000000000081526004016114a690613ad5565b60405180910390fd5b80915050919050565b6114d673d9145cce52d386f254917e481eb44e9943f3913882611f03565b50565b60008073ffffffffffffffffffffffffffffffffffffffff168273ffffffffffffffffffffffffffffffffffffffff16141561154a576040517f08c379a000000000000000000000000000000000000000000000000000000000815260040161154190613b67565b60405180910390fd5b600360008373ffffffffffffffffffffffffffffffffffffffff1673ffffffffffffffffffffffffffffffffffffffff168152602001908152602001600020549050919050565b600061159d600761230f565b60006115a96007611fbc565b90506115b53382612325565b6115bf81856124ff565b6115c98184610ef5565b8091505092915050565b60088060000154905081565b6060600180546115ee90613575565b80601f016020809104026020016040519081016040528092919081815260200182805461161a90613575565b80156116675780601f1061163c57610100808354040283529160200191611667565b820191906000526020600020905b81548152906001019060200180831161164a57829003601f168201915b5050505050905090565b61168361167c611efb565b8383612573565b5050565b60078060000154905081565b3373ffffffffffffffffffffffffffffffffffffffff16600a60009054906101000a900473ffffffffffffffffffffffffffffffffffffffff1673ffffffffffffffffffffffffffffffffffffffff1614611723576040517f08c379a000000000000000000000000000000000000000000000000000000000815260040161171a90613bf9565b60405180910390fd5b8060098190555050565b61173e611738611efb565b83611fca565b61177d576040517f08c379a000000000000000000000000000000000000000000000000000000000815260040161177490613900565b60405180910390fd5b611789848484846126e0565b50505050565b6000600b60008381526020019081526020016000206003015490508034146117ec576040517f08c379a00000000000000000000000000000000000000000000000000000000081526004016117e390613c8b565b60405180910390fd5b33600b600084815260200190815260200160002060020160006101000a81548173ffffffffffffffffffffffffffffffffffffffff021916908373ffffffffffffffffffffffffffffffffffffffff1602179055506001600b600084815260200190815260200160002060040160006101000a81548160ff0219169083151502179055506000600b600084815260200190815260200160002060010160006101000a81548173ffffffffffffffffffffffffffffffffffffffff021916908373ffffffffffffffffffffffffffffffffffffffff1602179055506118d0600861230f565b6118db3033846120a8565b600a60009054906101000a900473ffffffffffffffffffffffffffffffffffffffff1673ffffffffffffffffffffffffffffffffffffffff166108fc6009549081150290604051600060405180830381858888f19350505050158015611945573d6000803e3d6000fd5b50600b600083815260200190815260200160002060010160009054906101000a900473ffffffffffffffffffffffffffffffffffffffff1673ffffffffffffffffffffffffffffffffffffffff166108fc349081150290604051600060405180830381858888f193505050501580156119c2573d6000803e3d6000fd5b505050565b60606119d282611e8f565b611a11576040517f08c379a0000000000000000000000000000000000000000000000000000000008152600401611a0890613d1d565b60405180910390fd5b6000600660008481526020019081526020016000208054611a3190613575565b80601f0160208091040260200160405190810160405280929190818152602001828054611a5d90613575565b8015611aaa5780601f10611a7f57610100808354040283529160200191611aaa565b820191906000526020600020905b815481529060010190602001808311611a8d57829003601f168201915b505050505090506000611abb61273c565b9050600081511415611ad1578192505050611b14565b600082511115611b06578082604051602001611aee929190613d79565b60405160208183030381529060405292505050611b14565b611b0f84612753565b925050505b919050565b3373ffffffffffffffffffffffffffffffffffffffff16600b600084815260200190815260200160002060020160009054906101000a900473ffffffffffffffffffffffffffffffffffffffff1673ffffffffffffffffffffffffffffffffffffffff1614611bbd576040517f08c379a0000000000000000000000000000000000000000000000000000000008152600401611bb490613e0f565b60405180910390fd5b6009543414611c01576040517f08c379a0000000000000000000000000000000000000000000000000000000008152600401611bf8906139fe565b60405180910390fd5b6000600b600084815260200190815260200160002060040160006101000a81548160ff02191690831515021790555080600b60008481526020019081526020016000206003018190555033600b600084815260200190815260200160002060010160006101000a81548173ffffffffffffffffffffffffffffffffffffffff021916908373ffffffffffffffffffffffffffffffffffffffff16021790555030600b600084815260200190815260200160002060020160006101000a81548173ffffffffffffffffffffffffffffffffffffffff021916908373ffffffffffffffffffffffffffffffffffffffff160217905550611cff60086127fa565b611d0a3330846120a8565b5050565b600b6020528060005260406000206000915090508060000154908060010160009054906101000a900473ffffffffffffffffffffffffffffffffffffffff16908060020160009054906101000a900473ffffffffffffffffffffffffffffffffffffffff16908060030154908060040160009054906101000a900460ff16905085565b6000600560008473ffffffffffffffffffffffffffffffffffffffff1673ffffffffffffffffffffffffffffffffffffffff16815260200190815260200160002060008373ffffffffffffffffffffffffffffffffffffffff1673ffffffffffffffffffffffffffffffffffffffff16815260200190815260200160002060009054906101000a900460ff16905092915050565b60007f01ffc9a7000000000000000000000000000000000000000000000000000000007bffffffffffffffffffffffffffffffffffffffffffffffffffffffff1916827bffffffffffffffffffffffffffffffffffffffffffffffffffffffff1916149050919050565b60008073ffffffffffffffffffffffffffffffffffffffff166002600084815260200190815260200160002060009054906101000a900473ffffffffffffffffffffffffffffffffffffffff1673ffffffffffffffffffffffffffffffffffffffff1614159050919050565b600033905090565b816004600083815260200190815260200160002060006101000a81548173ffffffffffffffffffffffffffffffffffffffff021916908373ffffffffffffffffffffffffffffffffffffffff160217905550808273ffffffffffffffffffffffffffffffffffffffff16611f7683611406565b73ffffffffffffffffffffffffffffffffffffffff167f8c5be1e5ebec7d5bd14f71427d1e84f3dd0314c0f7b2291e5b200ac8c7c3b92560405160405180910390a45050565b600081600001549050919050565b6000611fd582611e8f565b612014576040517f08c379a000000000000000000000000000000000000000000000000000000000815260040161200b90613ea1565b60405180910390fd5b600061201f83611406565b90508073ffffffffffffffffffffffffffffffffffffffff168473ffffffffffffffffffffffffffffffffffffffff16148061208e57508373ffffffffffffffffffffffffffffffffffffffff1661207684610797565b73ffffffffffffffffffffffffffffffffffffffff16145b8061209f575061209e8185611d91565b5b91505092915050565b8273ffffffffffffffffffffffffffffffffffffffff166120c882611406565b73ffffffffffffffffffffffffffffffffffffffff161461211e576040517f08c379a000000000000000000000000000000000000000000000000000000000815260040161211590613f33565b60405180910390fd5b600073ffffffffffffffffffffffffffffffffffffffff168273ffffffffffffffffffffffffffffffffffffffff16141561218e576040517f08c379a000000000000000000000000000000000000000000000000000000000815260040161218590613fc5565b60405180910390fd5b612199838383612856565b6121a4600082611f03565b6001600360008573ffffffffffffffffffffffffffffffffffffffff1673ffffffffffffffffffffffffffffffffffffffff16815260200190815260200160002060008282546121f4919061378c565b925050819055506001600360008473ffffffffffffffffffffffffffffffffffffffff1673ffffffffffffffffffffffffffffffffffffffff168152602001908152602001600020600082825461224b91906137c0565b92505081905550816002600083815260200190815260200160002060006101000a81548173ffffffffffffffffffffffffffffffffffffffff021916908373ffffffffffffffffffffffffffffffffffffffff160217905550808273ffffffffffffffffffffffffffffffffffffffff168473ffffffffffffffffffffffffffffffffffffffff167fddf252ad1be2c89b69c2b068fc378daa952ba7f163c4a11628f55a4df523b3ef60405160405180910390a461230a83838361285b565b505050565b6001816000016000828254019250508190555050565b600073ffffffffffffffffffffffffffffffffffffffff168273ffffffffffffffffffffffffffffffffffffffff161415612395576040517f08c379a000000000000000000000000000000000000000000000000000000000815260040161238c90614031565b60405180910390fd5b61239e81611e8f565b156123de576040517f08c379a00000000000000000000000000000000000000000000000000000000081526004016123d59061409d565b60405180910390fd5b6123ea60008383612856565b6001600360008473ffffffffffffffffffffffffffffffffffffffff1673ffffffffffffffffffffffffffffffffffffffff168152602001908152602001600020600082825461243a91906137c0565b92505081905550816002600083815260200190815260200160002060006101000a81548173ffffffffffffffffffffffffffffffffffffffff021916908373ffffffffffffffffffffffffffffffffffffffff160217905550808273ffffffffffffffffffffffffffffffffffffffff16600073ffffffffffffffffffffffffffffffffffffffff167fddf252ad1be2c89b69c2b068fc378daa952ba7f163c4a11628f55a4df523b3ef60405160405180910390a46124fb6000838361285b565b5050565b61250882611e8f565b612547576040517f08c379a000000000000000000000000000000000000000000000000000000000815260040161253e9061412f565b60405180910390fd5b8060066000848152602001908152602001600020908051906020019061256e929190612bc9565b505050565b8173ffffffffffffffffffffffffffffffffffffffff168373ffffffffffffffffffffffffffffffffffffffff1614156125e2576040517f08c379a00000000000000000000000000000000000000000000000000000000081526004016125d99061419b565b60405180910390fd5b80600560008573ffffffffffffffffffffffffffffffffffffffff1673ffffffffffffffffffffffffffffffffffffffff16815260200190815260200160002060008473ffffffffffffffffffffffffffffffffffffffff1673ffffffffffffffffffffffffffffffffffffffff16815260200190815260200160002060006101000a81548160ff0219169083151502179055508173ffffffffffffffffffffffffffffffffffffffff168373ffffffffffffffffffffffffffffffffffffffff167f17307eab39ab6107e8899845ad3d59bd9653f200f220920489ca2b5937696c31836040516126d39190612d20565b60405180910390a3505050565b6126eb8484846120a8565b6126f784848484612860565b612736576040517f08c379a000000000000000000000000000000000000000000000000000000000815260040161272d9061422d565b60405180910390fd5b50505050565b606060405180602001604052806000815250905090565b606061275e82611e8f565b61279d576040517f08c379a0000000000000000000000000000000000000000000000000000000008152600401612794906142bf565b60405180910390fd5b60006127a761273c565b905060008151116127c757604051806020016040528060008152506127f2565b806127d1846129e8565b6040516020016127e2929190613d79565b6040516020818303038152906040525b915050919050565b60008160000154905060008111612846576040517f08c379a000000000000000000000000000000000000000000000000000000000815260040161283d9061432b565b60405180910390fd5b6001810382600001819055505050565b505050565b505050565b60006128818473ffffffffffffffffffffffffffffffffffffffff16612b49565b156129db578373ffffffffffffffffffffffffffffffffffffffff1663150b7a026128aa611efb565b8786866040518563ffffffff1660e01b81526004016128cc94939291906143a0565b6020604051808303816000875af192505050801561290857506040513d601f19601f820116820180604052508101906129059190614401565b60015b61298b573d8060008114612938576040519150601f19603f3d011682016040523d82523d6000602084013e61293d565b606091505b50600081511415612983576040517f08c379a000000000000000000000000000000000000000000000000000000000815260040161297a9061422d565b60405180910390fd5b805181602001fd5b63150b7a0260e01b7bffffffffffffffffffffffffffffffffffffffffffffffffffffffff1916817bffffffffffffffffffffffffffffffffffffffffffffffffffffffff1916149150506129e0565b600190505b949350505050565b60606000821415612a30576040518060400160405280600181526020017f30000000000000000000000000000000000000000000000000000000000000008152509050612b44565b600082905060005b60008214612a62578080612a4b90613845565b915050600a82612a5b919061445d565b9150612a38565b60008167ffffffffffffffff811115612a7e57612a7d61318d565b5b6040519080825280601f01601f191660200182016040528015612ab05781602001600182028036833780820191505090505b5090505b60008514612b3d57600182612ac9919061378c565b9150600a85612ad8919061448e565b6030612ae491906137c0565b60f81b818381518110612afa57612af9613816565b5b60200101907effffffffffffffffffffffffffffffffffffffffffffffffffffffffffffff1916908160001a905350600a85612b36919061445d565b9450612ab4565b8093505050505b919050565b6000808273ffffffffffffffffffffffffffffffffffffffff163b119050919050565b6040518060a0016040528060008152602001600073ffffffffffffffffffffffffffffffffffffffff168152602001600073ffffffffffffffffffffffffffffffffffffffff168152602001600081526020016000151581525090565b828054612bd590613575565b90600052602060002090601f016020900481019282612bf75760008555612c3e565b82601f10612c1057805160ff1916838001178555612c3e565b82800160010185558215612c3e579182015b82811115612c3d578251825591602001919060010190612c22565b5b509050612c4b9190612c4f565b5090565b5b80821115612c68576000816000905550600101612c50565b5090565b6000604051905090565b600080fd5b600080fd5b60007fffffffff0000000000000000000000000000000000000000000000000000000082169050919050565b612cb581612c80565b8114612cc057600080fd5b50565b600081359050612cd281612cac565b92915050565b600060208284031215612cee57612ced612c76565b5b6000612cfc84828501612cc3565b91505092915050565b60008115159050919050565b612d1a81612d05565b82525050565b6000602082019050612d356000830184612d11565b92915050565b600081519050919050565b600082825260208201905092915050565b60005b83811015612d75578082015181840152602081019050612d5a565b83811115612d84576000848401525b50505050565b6000601f19601f8301169050919050565b6000612da682612d3b565b612db08185612d46565b9350612dc0818560208601612d57565b612dc981612d8a565b840191505092915050565b60006020820190508181036000830152612dee8184612d9b565b905092915050565b6000819050919050565b612e0981612df6565b8114612e1457600080fd5b50565b600081359050612e2681612e00565b92915050565b600060208284031215612e4257612e41612c76565b5b6000612e5084828501612e17565b91505092915050565b600073ffffffffffffffffffffffffffffffffffffffff82169050919050565b6000612e8482612e59565b9050919050565b612e9481612e79565b82525050565b6000602082019050612eaf6000830184612e8b565b92915050565b612ebe81612e79565b8114612ec957600080fd5b50565b600081359050612edb81612eb5565b92915050565b60008060408385031215612ef857612ef7612c76565b5b6000612f0685828601612ecc565b9250506020612f1785828601612e17565b9150509250929050565b600081519050919050565b600082825260208201905092915050565b6000819050602082019050919050565b612f5681612df6565b82525050565b6000612f6782612e59565b9050919050565b612f7781612f5c565b82525050565b612f8681612d05565b82525050565b60a082016000820151612fa26000850182612f4d565b506020820151612fb56020850182612f6e565b506040820151612fc86040850182612f6e565b506060820151612fdb6060850182612f4d565b506080820151612fee6080850182612f7d565b50505050565b60006130008383612f8c565b60a08301905092915050565b6000602082019050919050565b600061302482612f21565b61302e8185612f2c565b935061303983612f3d565b8060005b8381101561306a5781516130518882612ff4565b975061305c8361300c565b92505060018101905061303d565b5085935050505092915050565b600060208201905081810360008301526130918184613019565b905092915050565b6130a281612df6565b82525050565b60006020820190506130bd6000830184613099565b92915050565b6000806000606084860312156130dc576130db612c76565b5b60006130ea86828701612ecc565b93505060206130fb86828701612ecc565b925050604061310c86828701612e17565b9150509250925092565b6000806040838503121561312d5761312c612c76565b5b600061313b85828601612e17565b925050602061314c85828601612e17565b9150509250929050565b60006020828403121561316c5761316b612c76565b5b600061317a84828501612ecc565b91505092915050565b600080fd5b600080fd5b7f4e487b7100000000000000000000000000000000000000000000000000000000600052604160045260246000fd5b6131c582612d8a565b810181811067ffffffffffffffff821117156131e4576131e361318d565b5b80604052505050565b60006131f7612c6c565b905061320382826131bc565b919050565b600067ffffffffffffffff8211156132235761322261318d565b5b61322c82612d8a565b9050602081019050919050565b82818337600083830152505050565b600061325b61325684613208565b6131ed565b90508281526020810184848401111561327757613276613188565b5b613282848285613239565b509392505050565b600082601f83011261329f5761329e613183565b5b81356132af848260208601613248565b91505092915050565b600080604083850312156132cf576132ce612c76565b5b600083013567ffffffffffffffff8111156132ed576132ec612c7b565b5b6132f98582860161328a565b925050602061330a85828601612e17565b9150509250929050565b61331d81612d05565b811461332857600080fd5b50565b60008135905061333a81613314565b92915050565b6000806040838503121561335757613356612c76565b5b600061336585828601612ecc565b92505060206133768582860161332b565b9150509250929050565b600067ffffffffffffffff82111561339b5761339a61318d565b5b6133a482612d8a565b9050602081019050919050565b60006133c46133bf84613380565b6131ed565b9050828152602081018484840111156133e0576133df613188565b5b6133eb848285613239565b509392505050565b600082601f83011261340857613407613183565b5b81356134188482602086016133b1565b91505092915050565b6000806000806080858703121561343b5761343a612c76565b5b600061344987828801612ecc565b945050602061345a87828801612ecc565b935050604061346b87828801612e17565b925050606085013567ffffffffffffffff81111561348c5761348b612c7b565b5b613498878288016133f3565b91505092959194509250565b6134ad81612f5c565b82525050565b600060a0820190506134c86000830188613099565b6134d560208301876134a4565b6134e260408301866134a4565b6134ef6060830185613099565b6134fc6080830184612d11565b9695505050505050565b6000806040838503121561351d5761351c612c76565b5b600061352b85828601612ecc565b925050602061353c85828601612ecc565b9150509250929050565b7f4e487b7100000000000000000000000000000000000000000000000000000000600052602260045260246000fd5b6000600282049050600182168061358d57607f821691505b602082108114156135a1576135a0613546565b5b50919050565b7f4552433732313a20617070726f76656420717565727920666f72206e6f6e657860008201527f697374656e7420746f6b656e0000000000000000000000000000000000000000602082015250565b6000613603602c83612d46565b915061360e826135a7565b604082019050919050565b60006020820190508181036000830152613632816135f6565b9050919050565b7f4552433732313a20617070726f76616c20746f2063757272656e74206f776e6560008201527f7200000000000000000000000000000000000000000000000000000000000000602082015250565b6000613695602183612d46565b91506136a082613639565b604082019050919050565b600060208201905081810360008301526136c481613688565b9050919050565b7f4552433732313a20617070726f76652063616c6c6572206973206e6f74206f7760008201527f6e6572206e6f7220617070726f76656420666f7220616c6c0000000000000000602082015250565b6000613727603883612d46565b9150613732826136cb565b604082019050919050565b600060208201905081810360008301526137568161371a565b9050919050565b7f4e487b7100000000000000000000000000000000000000000000000000000000600052601160045260246000fd5b600061379782612df6565b91506137a283612df6565b9250828210156137b5576137b461375d565b5b828203905092915050565b60006137cb82612df6565b91506137d683612df6565b9250827fffffffffffffffffffffffffffffffffffffffffffffffffffffffffffffffff0382111561380b5761380a61375d565b5b828201905092915050565b7f4e487b7100000000000000000000000000000000000000000000000000000000600052603260045260246000fd5b600061385082612df6565b91507fffffffffffffffffffffffffffffffffffffffffffffffffffffffffffffffff8214156138835761388261375d565b5b600182019050919050565b7f4552433732313a207472616e736665722063616c6c6572206973206e6f74206f60008201527f776e6572206e6f7220617070726f766564000000000000000000000000000000602082015250565b60006138ea603183612d46565b91506138f58261388e565b604082019050919050565b60006020820190508181036000830152613919816138dd565b9050919050565b7f5072696365206d757374206265206174206c6561737420312077656900000000600082015250565b6000613956601c83612d46565b915061396182613920565b602082019050919050565b6000602082019050818103600083015261398581613949565b9050919050565b7f5072696365206d75737420626520657175616c20746f206c697374696e67207060008201527f7269636500000000000000000000000000000000000000000000000000000000602082015250565b60006139e8602483612d46565b91506139f38261398c565b604082019050919050565b60006020820190508181036000830152613a17816139db565b9050919050565b6000608082019050613a336000830187612e8b565b613a406020830186612e8b565b613a4d6040830185613099565b613a5a6060830184612d11565b95945050505050565b7f4552433732313a206f776e657220717565727920666f72206e6f6e657869737460008201527f656e7420746f6b656e0000000000000000000000000000000000000000000000602082015250565b6000613abf602983612d46565b9150613aca82613a63565b604082019050919050565b60006020820190508181036000830152613aee81613ab2565b9050919050565b7f4552433732313a2062616c616e636520717565727920666f7220746865207a6560008201527f726f206164647265737300000000000000000000000000000000000000000000602082015250565b6000613b51602a83612d46565b9150613b5c82613af5565b604082019050919050565b60006020820190508181036000830152613b8081613b44565b9050919050565b7f4f6e6c79206d61726b6574706c616365206f776e65722063616e20757064617460008201527f65206c697374696e672070726963652e00000000000000000000000000000000602082015250565b6000613be3603083612d46565b9150613bee82613b87565b604082019050919050565b60006020820190508181036000830152613c1281613bd6565b9050919050565b7f506c65617365207375626d6974207468652061736b696e67207072696365206960008201527f6e206f7264657220746f20636f6d706c65746520746865207075726368617365602082015250565b6000613c75604083612d46565b9150613c8082613c19565b604082019050919050565b60006020820190508181036000830152613ca481613c68565b9050919050565b7f45524337323155524953746f726167653a2055524920717565727920666f722060008201527f6e6f6e6578697374656e7420746f6b656e000000000000000000000000000000602082015250565b6000613d07603183612d46565b9150613d1282613cab565b604082019050919050565b60006020820190508181036000830152613d3681613cfa565b9050919050565b600081905092915050565b6000613d5382612d3b565b613d5d8185613d3d565b9350613d6d818560208601612d57565b80840191505092915050565b6000613d858285613d48565b9150613d918284613d48565b91508190509392505050565b7f4f6e6c79206974656d206f776e65722063616e20706572666f726d207468697360008201527f206f7065726174696f6e00000000000000000000000000000000000000000000602082015250565b6000613df9602a83612d46565b9150613e0482613d9d565b604082019050919050565b60006020820190508181036000830152613e2881613dec565b9050919050565b7f4552433732313a206f70657261746f7220717565727920666f72206e6f6e657860008201527f697374656e7420746f6b656e0000000000000000000000000000000000000000602082015250565b6000613e8b602c83612d46565b9150613e9682613e2f565b604082019050919050565b60006020820190508181036000830152613eba81613e7e565b9050919050565b7f4552433732313a207472616e736665722066726f6d20696e636f72726563742060008201527f6f776e6572000000000000000000000000000000000000000000000000000000602082015250565b6000613f1d602583612d46565b9150613f2882613ec1565b604082019050919050565b60006020820190508181036000830152613f4c81613f10565b9050919050565b7f4552433732313a207472616e7366657220746f20746865207a65726f2061646460008201527f7265737300000000000000000000000000000000000000000000000000000000602082015250565b6000613faf602483612d46565b9150613fba82613f53565b604082019050919050565b60006020820190508181036000830152613fde81613fa2565b9050919050565b7f4552433732313a206d696e7420746f20746865207a65726f2061646472657373600082015250565b600061401b602083612d46565b915061402682613fe5565b602082019050919050565b6000602082019050818103600083015261404a8161400e565b9050919050565b7f4552433732313a20746f6b656e20616c7265616479206d696e74656400000000600082015250565b6000614087601c83612d46565b915061409282614051565b602082019050919050565b600060208201905081810360008301526140b68161407a565b9050919050565b7f45524337323155524953746f726167653a2055524920736574206f66206e6f6e60008201527f6578697374656e7420746f6b656e000000000000000000000000000000000000602082015250565b6000614119602e83612d46565b9150614124826140bd565b604082019050919050565b600060208201905081810360008301526141488161410c565b9050919050565b7f4552433732313a20617070726f766520746f2063616c6c657200000000000000600082015250565b6000614185601983612d46565b91506141908261414f565b602082019050919050565b600060208201905081810360008301526141b481614178565b9050919050565b7f4552433732313a207472616e7366657220746f206e6f6e20455243373231526560008201527f63656976657220696d706c656d656e7465720000000000000000000000000000602082015250565b6000614217603283612d46565b9150614222826141bb565b604082019050919050565b600060208201905081810360008301526142468161420a565b9050919050565b7f4552433732314d657461646174613a2055524920717565727920666f72206e6f60008201527f6e6578697374656e7420746f6b656e0000000000000000000000000000000000602082015250565b60006142a9602f83612d46565b91506142b48261424d565b604082019050919050565b600060208201905081810360008301526142d88161429c565b9050919050565b7f436f756e7465723a2064656372656d656e74206f766572666c6f770000000000600082015250565b6000614315601b83612d46565b9150614320826142df565b602082019050919050565b6000602082019050818103600083015261434481614308565b9050919050565b600081519050919050565b600082825260208201905092915050565b60006143728261434b565b61437c8185614356565b935061438c818560208601612d57565b61439581612d8a565b840191505092915050565b60006080820190506143b56000830187612e8b565b6143c26020830186612e8b565b6143cf6040830185613099565b81810360608301526143e18184614367565b905095945050505050565b6000815190506143fb81612cac565b92915050565b60006020828403121561441757614416612c76565b5b6000614425848285016143ec565b91505092915050565b7f4e487b7100000000000000000000000000000000000000000000000000000000600052601260045260246000fd5b600061446882612df6565b915061447383612df6565b9250826144835761448261442e565b5b828204905092915050565b600061449982612df6565b91506144a483612df6565b9250826144b4576144b361442e565b5b82820690509291505056fea264697066735822122085843073c7c75f020fb14a43e5f69f2c82114db250dfab3dc5231e0dd6eac3d064736f6c634300080c0033",
			"opcodes": "PUSH1 0x80 PUSH1 0x40 MSTORE PUSH6 0x16BCC41E9000 PUSH1 0x9 SSTORE CALLVALUE DUP1 ISZERO PUSH3 0x1B JUMPI PUSH1 0x0 DUP1 REVERT JUMPDEST POP PUSH1 0x40 MLOAD DUP1 PUSH1 0x40 ADD PUSH1 0x40 MSTORE DUP1 PUSH1 0xD DUP2 MSTORE PUSH1 0x20 ADD PUSH32 0x544F5251554520546F6B656E7300000000000000000000000000000000000000 DUP2 MSTORE POP PUSH1 0x40 MLOAD DUP1 PUSH1 0x40 ADD PUSH1 0x40 MSTORE DUP1 PUSH1 0x4 DUP2 MSTORE PUSH1 0x20 ADD PUSH32 0x544F525100000000000000000000000000000000000000000000000000000000 DUP2 MSTORE POP DUP2 PUSH1 0x0 SWAP1 DUP1 MLOAD SWAP1 PUSH1 0x20 ADD SWAP1 PUSH3 0xA0 SWAP3 SWAP2 SWAP1 PUSH3 0x103 JUMP JUMPDEST POP DUP1 PUSH1 0x1 SWAP1 DUP1 MLOAD SWAP1 PUSH1 0x20 ADD SWAP1 PUSH3 0xB9 SWAP3 SWAP2 SWAP1 PUSH3 0x103 JUMP JUMPDEST POP POP POP CALLER PUSH1 0xA PUSH1 0x0 PUSH2 0x100 EXP DUP2 SLOAD DUP2 PUSH20 0xFFFFFFFFFFFFFFFFFFFFFFFFFFFFFFFFFFFFFFFF MUL NOT AND SWAP1 DUP4 PUSH20 0xFFFFFFFFFFFFFFFFFFFFFFFFFFFFFFFFFFFFFFFF AND MUL OR SWAP1 SSTORE POP PUSH3 0x218 JUMP JUMPDEST DUP3 DUP1 SLOAD PUSH3 0x111 SWAP1 PUSH3 0x1E2 JUMP JUMPDEST SWAP1 PUSH1 0x0 MSTORE PUSH1 0x20 PUSH1 0x0 KECCAK256 SWAP1 PUSH1 0x1F ADD PUSH1 0x20 SWAP1 DIV DUP2 ADD SWAP3 DUP3 PUSH3 0x135 JUMPI PUSH1 0x0 DUP6 SSTORE PUSH3 0x181 JUMP JUMPDEST DUP3 PUSH1 0x1F LT PUSH3 0x150 JUMPI DUP1 MLOAD PUSH1 0xFF NOT AND DUP4 DUP1 ADD OR DUP6 SSTORE PUSH3 0x181 JUMP JUMPDEST DUP3 DUP1 ADD PUSH1 0x1 ADD DUP6 SSTORE DUP3 ISZERO PUSH3 0x181 JUMPI SWAP2 DUP3 ADD JUMPDEST DUP3 DUP2 GT ISZERO PUSH3 0x180 JUMPI DUP3 MLOAD DUP3 SSTORE SWAP2 PUSH1 0x20 ADD SWAP2 SWAP1 PUSH1 0x1 ADD SWAP1 PUSH3 0x163 JUMP JUMPDEST JUMPDEST POP SWAP1 POP PUSH3 0x190 SWAP2 SWAP1 PUSH3 0x194 JUMP JUMPDEST POP SWAP1 JUMP JUMPDEST JUMPDEST DUP1 DUP3 GT ISZERO PUSH3 0x1AF JUMPI PUSH1 0x0 DUP2 PUSH1 0x0 SWAP1 SSTORE POP PUSH1 0x1 ADD PUSH3 0x195 JUMP JUMPDEST POP SWAP1 JUMP JUMPDEST PUSH32 0x4E487B7100000000000000000000000000000000000000000000000000000000 PUSH1 0x0 MSTORE PUSH1 0x22 PUSH1 0x4 MSTORE PUSH1 0x24 PUSH1 0x0 REVERT JUMPDEST PUSH1 0x0 PUSH1 0x2 DUP3 DIV SWAP1 POP PUSH1 0x1 DUP3 AND DUP1 PUSH3 0x1FB JUMPI PUSH1 0x7F DUP3 AND SWAP2 POP JUMPDEST PUSH1 0x20 DUP3 LT DUP2 EQ ISZERO PUSH3 0x212 JUMPI PUSH3 0x211 PUSH3 0x1B3 JUMP JUMPDEST JUMPDEST POP SWAP2 SWAP1 POP JUMP JUMPDEST PUSH2 0x44F5 DUP1 PUSH3 0x228 PUSH1 0x0 CODECOPY PUSH1 0x0 RETURN INVALID PUSH1 0x80 PUSH1 0x40 MSTORE PUSH1 0x4 CALLDATASIZE LT PUSH2 0x181 JUMPI PUSH1 0x0 CALLDATALOAD PUSH1 0xE0 SHR DUP1 PUSH4 0x70A08231 GT PUSH2 0xD1 JUMPI DUP1 PUSH4 0xAE677AA3 GT PUSH2 0x8A JUMPI DUP1 PUSH4 0xC87B56DD GT PUSH2 0x64 JUMPI DUP1 PUSH4 0xC87B56DD EQ PUSH2 0x54C JUMPI DUP1 PUSH4 0xE219FC75 EQ PUSH2 0x589 JUMPI DUP1 PUSH4 0xE61A70C0 EQ PUSH2 0x5A5 JUMPI DUP1 PUSH4 0xE985E9C5 EQ PUSH2 0x5E6 JUMPI PUSH2 0x181 JUMP JUMPDEST DUP1 PUSH4 0xAE677AA3 EQ PUSH2 0x4EB JUMPI DUP1 PUSH4 0xB88D4FDE EQ PUSH2 0x507 JUMPI DUP1 PUSH4 0xBE9AF536 EQ PUSH2 0x530 JUMPI PUSH2 0x181 JUMP JUMPDEST DUP1 PUSH4 0x70A08231 EQ PUSH2 0x3D4 JUMPI DUP1 PUSH4 0x72B3B620 EQ PUSH2 0x411 JUMPI DUP1 PUSH4 0x87506A0D EQ PUSH2 0x441 JUMPI DUP1 PUSH4 0x95D89B41 EQ PUSH2 0x46C JUMPI DUP1 PUSH4 0xA22CB465 EQ PUSH2 0x497 JUMPI DUP1 PUSH4 0xAA46A400 EQ PUSH2 0x4C0 JUMPI PUSH2 0x181 JUMP JUMPDEST DUP1 PUSH4 0x202E3740 GT PUSH2 0x13E JUMPI DUP1 PUSH4 0x42842E0E GT PUSH2 0x118 JUMPI DUP1 PUSH4 0x42842E0E EQ PUSH2 0x31A JUMPI DUP1 PUSH4 0x45F8FA80 EQ PUSH2 0x343 JUMPI DUP1 PUSH4 0x6352211E EQ PUSH2 0x36E JUMPI DUP1 PUSH4 0x64A748A3 EQ PUSH2 0x3AB JUMPI PUSH2 0x181 JUMP JUMPDEST DUP1 PUSH4 0x202E3740 EQ PUSH2 0x2AA JUMPI DUP1 PUSH4 0x23B872DD EQ PUSH2 0x2D5 JUMPI DUP1 PUSH4 0x361C1995 EQ PUSH2 0x2FE JUMPI PUSH2 0x181 JUMP JUMPDEST DUP1 PUSH4 0x1FFC9A7 EQ PUSH2 0x186 JUMPI DUP1 PUSH4 0x6FDDE03 EQ PUSH2 0x1C3 JUMPI DUP1 PUSH4 0x81812FC EQ PUSH2 0x1EE JUMPI DUP1 PUSH4 0x95EA7B3 EQ PUSH2 0x22B JUMPI DUP1 PUSH4 0xF08EFE0 EQ PUSH2 0x254 JUMPI DUP1 PUSH4 0x12E85585 EQ PUSH2 0x27F JUMPI JUMPDEST PUSH1 0x0 DUP1 REVERT JUMPDEST CALLVALUE DUP1 ISZERO PUSH2 0x192 JUMPI PUSH1 0x0 DUP1 REVERT JUMPDEST POP PUSH2 0x1AD PUSH1 0x4 DUP1 CALLDATASIZE SUB DUP2 ADD SWAP1 PUSH2 0x1A8 SWAP2 SWAP1 PUSH2 0x2CD8 JUMP JUMPDEST PUSH2 0x623 JUMP JUMPDEST PUSH1 0x40 MLOAD PUSH2 0x1BA SWAP2 SWAP1 PUSH2 0x2D20 JUMP JUMPDEST PUSH1 0x40 MLOAD DUP1 SWAP2 SUB SWAP1 RETURN JUMPDEST CALLVALUE DUP1 ISZERO PUSH2 0x1CF JUMPI PUSH1 0x0 DUP1 REVERT JUMPDEST POP PUSH2 0x1D8 PUSH2 0x705 JUMP JUMPDEST PUSH1 0x40 MLOAD PUSH2 0x1E5 SWAP2 SWAP1 PUSH2 0x2DD4 JUMP JUMPDEST PUSH1 0x40 MLOAD DUP1 SWAP2 SUB SWAP1 RETURN JUMPDEST CALLVALUE DUP1 ISZERO PUSH2 0x1FA JUMPI PUSH1 0x0 DUP1 REVERT JUMPDEST POP PUSH2 0x215 PUSH1 0x4 DUP1 CALLDATASIZE SUB DUP2 ADD SWAP1 PUSH2 0x210 SWAP2 SWAP1 PUSH2 0x2E2C JUMP JUMPDEST PUSH2 0x797 JUMP JUMPDEST PUSH1 0x40 MLOAD PUSH2 0x222 SWAP2 SWAP1 PUSH2 0x2E9A JUMP JUMPDEST PUSH1 0x40 MLOAD DUP1 SWAP2 SUB SWAP1 RETURN JUMPDEST CALLVALUE DUP1 ISZERO PUSH2 0x237 JUMPI PUSH1 0x0 DUP1 REVERT JUMPDEST POP PUSH2 0x252 PUSH1 0x4 DUP1 CALLDATASIZE SUB DUP2 ADD SWAP1 PUSH2 0x24D SWAP2 SWAP1 PUSH2 0x2EE1 JUMP JUMPDEST PUSH2 0x81C JUMP JUMPDEST STOP JUMPDEST CALLVALUE DUP1 ISZERO PUSH2 0x260 JUMPI PUSH1 0x0 DUP1 REVERT JUMPDEST POP PUSH2 0x269 PUSH2 0x934 JUMP JUMPDEST PUSH1 0x40 MLOAD PUSH2 0x276 SWAP2 SWAP1 PUSH2 0x3077 JUMP JUMPDEST PUSH1 0x40 MLOAD DUP1 SWAP2 SUB SWAP1 RETURN JUMPDEST CALLVALUE DUP1 ISZERO PUSH2 0x28B JUMPI PUSH1 0x0 DUP1 REVERT JUMPDEST POP PUSH2 0x294 PUSH2 0xB9D JUMP JUMPDEST PUSH1 0x40 MLOAD PUSH2 0x2A1 SWAP2 SWAP1 PUSH2 0x30A8 JUMP JUMPDEST PUSH1 0x40 MLOAD DUP1 SWAP2 SUB SWAP1 RETURN JUMPDEST CALLVALUE DUP1 ISZERO PUSH2 0x2B6 JUMPI PUSH1 0x0 DUP1 REVERT JUMPDEST POP PUSH2 0x2BF PUSH2 0xBA7 JUMP JUMPDEST PUSH1 0x40 MLOAD PUSH2 0x2CC SWAP2 SWAP1 PUSH2 0x3077 JUMP JUMPDEST PUSH1 0x40 MLOAD DUP1 SWAP2 SUB SWAP1 RETURN JUMPDEST CALLVALUE DUP1 ISZERO PUSH2 0x2E1 JUMPI PUSH1 0x0 DUP1 REVERT JUMPDEST POP PUSH2 0x2FC PUSH1 0x4 DUP1 CALLDATASIZE SUB DUP2 ADD SWAP1 PUSH2 0x2F7 SWAP2 SWAP1 PUSH2 0x30C3 JUMP JUMPDEST PUSH2 0xE95 JUMP JUMPDEST STOP JUMPDEST PUSH2 0x318 PUSH1 0x4 DUP1 CALLDATASIZE SUB DUP2 ADD SWAP1 PUSH2 0x313 SWAP2 SWAP1 PUSH2 0x3116 JUMP JUMPDEST PUSH2 0xEF5 JUMP JUMPDEST STOP JUMPDEST CALLVALUE DUP1 ISZERO PUSH2 0x326 JUMPI PUSH1 0x0 DUP1 REVERT JUMPDEST POP PUSH2 0x341 PUSH1 0x4 DUP1 CALLDATASIZE SUB DUP2 ADD SWAP1 PUSH2 0x33C SWAP2 SWAP1 PUSH2 0x30C3 JUMP JUMPDEST PUSH2 0x10F8 JUMP JUMPDEST STOP JUMPDEST CALLVALUE DUP1 ISZERO PUSH2 0x34F JUMPI PUSH1 0x0 DUP1 REVERT JUMPDEST POP PUSH2 0x358 PUSH2 0x1118 JUMP JUMPDEST PUSH1 0x40 MLOAD PUSH2 0x365 SWAP2 SWAP1 PUSH2 0x3077 JUMP JUMPDEST PUSH1 0x40 MLOAD DUP1 SWAP2 SUB SWAP1 RETURN JUMPDEST CALLVALUE DUP1 ISZERO PUSH2 0x37A JUMPI PUSH1 0x0 DUP1 REVERT JUMPDEST POP PUSH2 0x395 PUSH1 0x4 DUP1 CALLDATASIZE SUB DUP2 ADD SWAP1 PUSH2 0x390 SWAP2 SWAP1 PUSH2 0x2E2C JUMP JUMPDEST PUSH2 0x1406 JUMP JUMPDEST PUSH1 0x40 MLOAD PUSH2 0x3A2 SWAP2 SWAP1 PUSH2 0x2E9A JUMP JUMPDEST PUSH1 0x40 MLOAD DUP1 SWAP2 SUB SWAP1 RETURN JUMPDEST CALLVALUE DUP1 ISZERO PUSH2 0x3B7 JUMPI PUSH1 0x0 DUP1 REVERT JUMPDEST POP PUSH2 0x3D2 PUSH1 0x4 DUP1 CALLDATASIZE SUB DUP2 ADD SWAP1 PUSH2 0x3CD SWAP2 SWAP1 PUSH2 0x2E2C JUMP JUMPDEST PUSH2 0x14B8 JUMP JUMPDEST STOP JUMPDEST CALLVALUE DUP1 ISZERO PUSH2 0x3E0 JUMPI PUSH1 0x0 DUP1 REVERT JUMPDEST POP PUSH2 0x3FB PUSH1 0x4 DUP1 CALLDATASIZE SUB DUP2 ADD SWAP1 PUSH2 0x3F6 SWAP2 SWAP1 PUSH2 0x3156 JUMP JUMPDEST PUSH2 0x14D9 JUMP JUMPDEST PUSH1 0x40 MLOAD PUSH2 0x408 SWAP2 SWAP1 PUSH2 0x30A8 JUMP JUMPDEST PUSH1 0x40 MLOAD DUP1 SWAP2 SUB SWAP1 RETURN JUMPDEST PUSH2 0x42B PUSH1 0x4 DUP1 CALLDATASIZE SUB DUP2 ADD SWAP1 PUSH2 0x426 SWAP2 SWAP1 PUSH2 0x32B8 JUMP JUMPDEST PUSH2 0x1591 JUMP JUMPDEST PUSH1 0x40 MLOAD PUSH2 0x438 SWAP2 SWAP1 PUSH2 0x30A8 JUMP JUMPDEST PUSH1 0x40 MLOAD DUP1 SWAP2 SUB SWAP1 RETURN JUMPDEST CALLVALUE DUP1 ISZERO PUSH2 0x44D JUMPI PUSH1 0x0 DUP1 REVERT JUMPDEST POP PUSH2 0x456 PUSH2 0x15D3 JUMP JUMPDEST PUSH1 0x40 MLOAD PUSH2 0x463 SWAP2 SWAP1 PUSH2 0x30A8 JUMP JUMPDEST PUSH1 0x40 MLOAD DUP1 SWAP2 SUB SWAP1 RETURN JUMPDEST CALLVALUE DUP1 ISZERO PUSH2 0x478 JUMPI PUSH1 0x0 DUP1 REVERT JUMPDEST POP PUSH2 0x481 PUSH2 0x15DF JUMP JUMPDEST PUSH1 0x40 MLOAD PUSH2 0x48E SWAP2 SWAP1 PUSH2 0x2DD4 JUMP JUMPDEST PUSH1 0x40 MLOAD DUP1 SWAP2 SUB SWAP1 RETURN JUMPDEST CALLVALUE DUP1 ISZERO PUSH2 0x4A3 JUMPI PUSH1 0x0 DUP1 REVERT JUMPDEST POP PUSH2 0x4BE PUSH1 0x4 DUP1 CALLDATASIZE SUB DUP2 ADD SWAP1 PUSH2 0x4B9 SWAP2 SWAP1 PUSH2 0x3340 JUMP JUMPDEST PUSH2 0x1671 JUMP JUMPDEST STOP JUMPDEST CALLVALUE DUP1 ISZERO PUSH2 0x4CC JUMPI PUSH1 0x0 DUP1 REVERT JUMPDEST POP PUSH2 0x4D5 PUSH2 0x1687 JUMP JUMPDEST PUSH1 0x40 MLOAD PUSH2 0x4E2 SWAP2 SWAP1 PUSH2 0x30A8 JUMP JUMPDEST PUSH1 0x40 MLOAD DUP1 SWAP2 SUB SWAP1 RETURN JUMPDEST PUSH2 0x505 PUSH1 0x4 DUP1 CALLDATASIZE SUB DUP2 ADD SWAP1 PUSH2 0x500 SWAP2 SWAP1 PUSH2 0x2E2C JUMP JUMPDEST PUSH2 0x1693 JUMP JUMPDEST STOP JUMPDEST CALLVALUE DUP1 ISZERO PUSH2 0x513 JUMPI PUSH1 0x0 DUP1 REVERT JUMPDEST POP PUSH2 0x52E PUSH1 0x4 DUP1 CALLDATASIZE SUB DUP2 ADD SWAP1 PUSH2 0x529 SWAP2 SWAP1 PUSH2 0x3421 JUMP JUMPDEST PUSH2 0x172D JUMP JUMPDEST STOP JUMPDEST PUSH2 0x54A PUSH1 0x4 DUP1 CALLDATASIZE SUB DUP2 ADD SWAP1 PUSH2 0x545 SWAP2 SWAP1 PUSH2 0x2E2C JUMP JUMPDEST PUSH2 0x178F JUMP JUMPDEST STOP JUMPDEST CALLVALUE DUP1 ISZERO PUSH2 0x558 JUMPI PUSH1 0x0 DUP1 REVERT JUMPDEST POP PUSH2 0x573 PUSH1 0x4 DUP1 CALLDATASIZE SUB DUP2 ADD SWAP1 PUSH2 0x56E SWAP2 SWAP1 PUSH2 0x2E2C JUMP JUMPDEST PUSH2 0x19C7 JUMP JUMPDEST PUSH1 0x40 MLOAD PUSH2 0x580 SWAP2 SWAP1 PUSH2 0x2DD4 JUMP JUMPDEST PUSH1 0x40 MLOAD DUP1 SWAP2 SUB SWAP1 RETURN JUMPDEST PUSH2 0x5A3 PUSH1 0x4 DUP1 CALLDATASIZE SUB DUP2 ADD SWAP1 PUSH2 0x59E SWAP2 SWAP1 PUSH2 0x3116 JUMP JUMPDEST PUSH2 0x1B19 JUMP JUMPDEST STOP JUMPDEST CALLVALUE DUP1 ISZERO PUSH2 0x5B1 JUMPI PUSH1 0x0 DUP1 REVERT JUMPDEST POP PUSH2 0x5CC PUSH1 0x4 DUP1 CALLDATASIZE SUB DUP2 ADD SWAP1 PUSH2 0x5C7 SWAP2 SWAP1 PUSH2 0x2E2C JUMP JUMPDEST PUSH2 0x1D0E JUMP JUMPDEST PUSH1 0x40 MLOAD PUSH2 0x5DD SWAP6 SWAP5 SWAP4 SWAP3 SWAP2 SWAP1 PUSH2 0x34B3 JUMP JUMPDEST PUSH1 0x40 MLOAD DUP1 SWAP2 SUB SWAP1 RETURN JUMPDEST CALLVALUE DUP1 ISZERO PUSH2 0x5F2 JUMPI PUSH1 0x0 DUP1 REVERT JUMPDEST POP PUSH2 0x60D PUSH1 0x4 DUP1 CALLDATASIZE SUB DUP2 ADD SWAP1 PUSH2 0x608 SWAP2 SWAP1 PUSH2 0x3506 JUMP JUMPDEST PUSH2 0x1D91 JUMP JUMPDEST PUSH1 0x40 MLOAD PUSH2 0x61A SWAP2 SWAP1 PUSH2 0x2D20 JUMP JUMPDEST PUSH1 0x40 MLOAD DUP1 SWAP2 SUB SWAP1 RETURN JUMPDEST PUSH1 0x0 PUSH32 0x80AC58CD00000000000000000000000000000000000000000000000000000000 PUSH28 0xFFFFFFFFFFFFFFFFFFFFFFFFFFFFFFFFFFFFFFFFFFFFFFFFFFFFFFFF NOT AND DUP3 PUSH28 0xFFFFFFFFFFFFFFFFFFFFFFFFFFFFFFFFFFFFFFFFFFFFFFFFFFFFFFFF NOT AND EQ DUP1 PUSH2 0x6EE JUMPI POP PUSH32 0x5B5E139F00000000000000000000000000000000000000000000000000000000 PUSH28 0xFFFFFFFFFFFFFFFFFFFFFFFFFFFFFFFFFFFFFFFFFFFFFFFFFFFFFFFF NOT AND DUP3 PUSH28 0xFFFFFFFFFFFFFFFFFFFFFFFFFFFFFFFFFFFFFFFFFFFFFFFFFFFFFFFF NOT AND EQ JUMPDEST DUP1 PUSH2 0x6FE JUMPI POP PUSH2 0x6FD DUP3 PUSH2 0x1E25 JUMP JUMPDEST JUMPDEST SWAP1 POP SWAP2 SWAP1 POP JUMP JUMPDEST PUSH1 0x60 PUSH1 0x0 DUP1 SLOAD PUSH2 0x714 SWAP1 PUSH2 0x3575 JUMP JUMPDEST DUP1 PUSH1 0x1F ADD PUSH1 0x20 DUP1 SWAP2 DIV MUL PUSH1 0x20 ADD PUSH1 0x40 MLOAD SWAP1 DUP2 ADD PUSH1 0x40 MSTORE DUP1 SWAP3 SWAP2 SWAP1 DUP2 DUP2 MSTORE PUSH1 0x20 ADD DUP3 DUP1 SLOAD PUSH2 0x740 SWAP1 PUSH2 0x3575 JUMP JUMPDEST DUP1 ISZERO PUSH2 0x78D JUMPI DUP1 PUSH1 0x1F LT PUSH2 0x762 JUMPI PUSH2 0x100 DUP1 DUP4 SLOAD DIV MUL DUP4 MSTORE SWAP2 PUSH1 0x20 ADD SWAP2 PUSH2 0x78D JUMP JUMPDEST DUP3 ADD SWAP2 SWAP1 PUSH1 0x0 MSTORE PUSH1 0x20 PUSH1 0x0 KECCAK256 SWAP1 JUMPDEST DUP2 SLOAD DUP2 MSTORE SWAP1 PUSH1 0x1 ADD SWAP1 PUSH1 0x20 ADD DUP1 DUP4 GT PUSH2 0x770 JUMPI DUP3 SWAP1 SUB PUSH1 0x1F AND DUP3 ADD SWAP2 JUMPDEST POP POP POP POP POP SWAP1 POP SWAP1 JUMP JUMPDEST PUSH1 0x0 PUSH2 0x7A2 DUP3 PUSH2 0x1E8F JUMP JUMPDEST PUSH2 0x7E1 JUMPI PUSH1 0x40 MLOAD PUSH32 0x8C379A000000000000000000000000000000000000000000000000000000000 DUP2 MSTORE PUSH1 0x4 ADD PUSH2 0x7D8 SWAP1 PUSH2 0x3619 JUMP JUMPDEST PUSH1 0x40 MLOAD DUP1 SWAP2 SUB SWAP1 REVERT JUMPDEST PUSH1 0x4 PUSH1 0x0 DUP4 DUP2 MSTORE PUSH1 0x20 ADD SWAP1 DUP2 MSTORE PUSH1 0x20 ADD PUSH1 0x0 KECCAK256 PUSH1 0x0 SWAP1 SLOAD SWAP1 PUSH2 0x100 EXP SWAP1 DIV PUSH20 0xFFFFFFFFFFFFFFFFFFFFFFFFFFFFFFFFFFFFFFFF AND SWAP1 POP SWAP2 SWAP1 POP JUMP JUMPDEST PUSH1 0x0 PUSH2 0x827 DUP3 PUSH2 0x1406 JUMP JUMPDEST SWAP1 POP DUP1 PUSH20 0xFFFFFFFFFFFFFFFFFFFFFFFFFFFFFFFFFFFFFFFF AND DUP4 PUSH20 0xFFFFFFFFFFFFFFFFFFFFFFFFFFFFFFFFFFFFFFFF AND EQ ISZERO PUSH2 0x898 JUMPI PUSH1 0x40 MLOAD PUSH32 0x8C379A000000000000000000000000000000000000000000000000000000000 DUP2 MSTORE PUSH1 0x4 ADD PUSH2 0x88F SWAP1 PUSH2 0x36AB JUMP JUMPDEST PUSH1 0x40 MLOAD DUP1 SWAP2 SUB SWAP1 REVERT JUMPDEST DUP1 PUSH20 0xFFFFFFFFFFFFFFFFFFFFFFFFFFFFFFFFFFFFFFFF AND PUSH2 0x8B7 PUSH2 0x1EFB JUMP JUMPDEST PUSH20 0xFFFFFFFFFFFFFFFFFFFFFFFFFFFFFFFFFFFFFFFF AND EQ DUP1 PUSH2 0x8E6 JUMPI POP PUSH2 0x8E5 DUP2 PUSH2 0x8E0 PUSH2 0x1EFB JUMP JUMPDEST PUSH2 0x1D91 JUMP JUMPDEST JUMPDEST PUSH2 0x925 JUMPI PUSH1 0x40 MLOAD PUSH32 0x8C379A000000000000000000000000000000000000000000000000000000000 DUP2 MSTORE PUSH1 0x4 ADD PUSH2 0x91C SWAP1 PUSH2 0x373D JUMP JUMPDEST PUSH1 0x40 MLOAD DUP1 SWAP2 SUB SWAP1 REVERT JUMPDEST PUSH2 0x92F DUP4 DUP4 PUSH2 0x1F03 JUMP JUMPDEST POP POP POP JUMP JUMPDEST PUSH1 0x60 PUSH1 0x0 PUSH2 0x942 PUSH1 0x7 PUSH2 0x1FBC JUMP JUMPDEST SWAP1 POP PUSH1 0x0 PUSH2 0x950 PUSH1 0x8 PUSH2 0x1FBC JUMP JUMPDEST PUSH2 0x95A PUSH1 0x7 PUSH2 0x1FBC JUMP JUMPDEST PUSH2 0x964 SWAP2 SWAP1 PUSH2 0x378C JUMP JUMPDEST SWAP1 POP PUSH1 0x0 DUP1 DUP3 PUSH8 0xFFFFFFFFFFFFFFFF DUP2 GT ISZERO PUSH2 0x983 JUMPI PUSH2 0x982 PUSH2 0x318D JUMP JUMPDEST JUMPDEST PUSH1 0x40 MLOAD SWAP1 DUP1 DUP3 MSTORE DUP1 PUSH1 0x20 MUL PUSH1 0x20 ADD DUP3 ADD PUSH1 0x40 MSTORE DUP1 ISZERO PUSH2 0x9BC JUMPI DUP2 PUSH1 0x20 ADD JUMPDEST PUSH2 0x9A9 PUSH2 0x2B6C JUMP JUMPDEST DUP2 MSTORE PUSH1 0x20 ADD SWAP1 PUSH1 0x1 SWAP1 SUB SWAP1 DUP2 PUSH2 0x9A1 JUMPI SWAP1 POP JUMPDEST POP SWAP1 POP PUSH1 0x0 JUMPDEST DUP5 DUP2 LT ISZERO PUSH2 0xB92 JUMPI ADDRESS PUSH20 0xFFFFFFFFFFFFFFFFFFFFFFFFFFFFFFFFFFFFFFFF AND PUSH1 0xB PUSH1 0x0 PUSH1 0x1 DUP5 PUSH2 0x9F2 SWAP2 SWAP1 PUSH2 0x37C0 JUMP JUMPDEST DUP2 MSTORE PUSH1 0x20 ADD SWAP1 DUP2 MSTORE PUSH1 0x20 ADD PUSH1 0x0 KECCAK256 PUSH1 0x2 ADD PUSH1 0x0 SWAP1 SLOAD SWAP1 PUSH2 0x100 EXP SWAP1 DIV PUSH20 0xFFFFFFFFFFFFFFFFFFFFFFFFFFFFFFFFFFFFFFFF AND PUSH20 0xFFFFFFFFFFFFFFFFFFFFFFFFFFFFFFFFFFFFFFFF AND EQ ISZERO PUSH2 0xB7F JUMPI PUSH1 0x0 PUSH1 0x1 DUP3 PUSH2 0xA4F SWAP2 SWAP1 PUSH2 0x37C0 JUMP JUMPDEST SWAP1 POP PUSH1 0x0 PUSH1 0xB PUSH1 0x0 DUP4 DUP2 MSTORE PUSH1 0x20 ADD SWAP1 DUP2 MSTORE PUSH1 0x20 ADD PUSH1 0x0 KECCAK256 SWAP1 POP DUP1 PUSH1 0x40 MLOAD DUP1 PUSH1 0xA0 ADD PUSH1 0x40 MSTORE SWAP1 DUP2 PUSH1 0x0 DUP3 ADD SLOAD DUP2 MSTORE PUSH1 0x20 ADD PUSH1 0x1 DUP3 ADD PUSH1 0x0 SWAP1 SLOAD SWAP1 PUSH2 0x100 EXP SWAP1 DIV PUSH20 0xFFFFFFFFFFFFFFFFFFFFFFFFFFFFFFFFFFFFFFFF AND PUSH20 0xFFFFFFFFFFFFFFFFFFFFFFFFFFFFFFFFFFFFFFFF AND PUSH20 0xFFFFFFFFFFFFFFFFFFFFFFFFFFFFFFFFFFFFFFFF AND DUP2 MSTORE PUSH1 0x20 ADD PUSH1 0x2 DUP3 ADD PUSH1 0x0 SWAP1 SLOAD SWAP1 PUSH2 0x100 EXP SWAP1 DIV PUSH20 0xFFFFFFFFFFFFFFFFFFFFFFFFFFFFFFFFFFFFFFFF AND PUSH20 0xFFFFFFFFFFFFFFFFFFFFFFFFFFFFFFFFFFFFFFFF AND PUSH20 0xFFFFFFFFFFFFFFFFFFFFFFFFFFFFFFFFFFFFFFFF AND DUP2 MSTORE PUSH1 0x20 ADD PUSH1 0x3 DUP3 ADD SLOAD DUP2 MSTORE PUSH1 0x20 ADD PUSH1 0x4 DUP3 ADD PUSH1 0x0 SWAP1 SLOAD SWAP1 PUSH2 0x100 EXP SWAP1 DIV PUSH1 0xFF AND ISZERO ISZERO ISZERO ISZERO DUP2 MSTORE POP POP DUP5 DUP7 DUP2 MLOAD DUP2 LT PUSH2 0xB62 JUMPI PUSH2 0xB61 PUSH2 0x3816 JUMP JUMPDEST JUMPDEST PUSH1 0x20 MUL PUSH1 0x20 ADD ADD DUP2 SWAP1 MSTORE POP PUSH1 0x1 DUP6 PUSH2 0xB7A SWAP2 SWAP1 PUSH2 0x37C0 JUMP JUMPDEST SWAP5 POP POP POP JUMPDEST DUP1 DUP1 PUSH2 0xB8A SWAP1 PUSH2 0x3845 JUMP JUMPDEST SWAP2 POP POP PUSH2 0x9C2 JUMP JUMPDEST POP DUP1 SWAP5 POP POP POP POP POP SWAP1 JUMP JUMPDEST PUSH1 0x0 PUSH1 0x9 SLOAD SWAP1 POP SWAP1 JUMP JUMPDEST PUSH1 0x60 PUSH1 0x0 PUSH2 0xBB5 PUSH1 0x7 PUSH2 0x1FBC JUMP JUMPDEST SWAP1 POP PUSH1 0x0 DUP1 PUSH1 0x0 JUMPDEST DUP4 DUP2 LT ISZERO PUSH2 0xC5E JUMPI CALLER PUSH20 0xFFFFFFFFFFFFFFFFFFFFFFFFFFFFFFFFFFFFFFFF AND PUSH1 0xB PUSH1 0x0 PUSH1 0x1 DUP5 PUSH2 0xBED SWAP2 SWAP1 PUSH2 0x37C0 JUMP JUMPDEST DUP2 MSTORE PUSH1 0x20 ADD SWAP1 DUP2 MSTORE PUSH1 0x20 ADD PUSH1 0x0 KECCAK256 PUSH1 0x2 ADD PUSH1 0x0 SWAP1 SLOAD SWAP1 PUSH2 0x100 EXP SWAP1 DIV PUSH20 0xFFFFFFFFFFFFFFFFFFFFFFFFFFFFFFFFFFFFFFFF AND PUSH20 0xFFFFFFFFFFFFFFFFFFFFFFFFFFFFFFFFFFFFFFFF AND EQ ISZERO PUSH2 0xC4B JUMPI PUSH1 0x1 DUP4 PUSH2 0xC48 SWAP2 SWAP1 PUSH2 0x37C0 JUMP JUMPDEST SWAP3 POP JUMPDEST DUP1 DUP1 PUSH2 0xC56 SWAP1 PUSH2 0x3845 JUMP JUMPDEST SWAP2 POP POP PUSH2 0xBBD JUMP JUMPDEST POP PUSH1 0x0 DUP3 PUSH8 0xFFFFFFFFFFFFFFFF DUP2 GT ISZERO PUSH2 0xC7B JUMPI PUSH2 0xC7A PUSH2 0x318D JUMP JUMPDEST JUMPDEST PUSH1 0x40 MLOAD SWAP1 DUP1 DUP3 MSTORE DUP1 PUSH1 0x20 MUL PUSH1 0x20 ADD DUP3 ADD PUSH1 0x40 MSTORE DUP1 ISZERO PUSH2 0xCB4 JUMPI DUP2 PUSH1 0x20 ADD JUMPDEST PUSH2 0xCA1 PUSH2 0x2B6C JUMP JUMPDEST DUP2 MSTORE PUSH1 0x20 ADD SWAP1 PUSH1 0x1 SWAP1 SUB SWAP1 DUP2 PUSH2 0xC99 JUMPI SWAP1 POP JUMPDEST POP SWAP1 POP PUSH1 0x0 JUMPDEST DUP5 DUP2 LT ISZERO PUSH2 0xE8A JUMPI CALLER PUSH20 0xFFFFFFFFFFFFFFFFFFFFFFFFFFFFFFFFFFFFFFFF AND PUSH1 0xB PUSH1 0x0 PUSH1 0x1 DUP5 PUSH2 0xCEA SWAP2 SWAP1 PUSH2 0x37C0 JUMP JUMPDEST DUP2 MSTORE PUSH1 0x20 ADD SWAP1 DUP2 MSTORE PUSH1 0x20 ADD PUSH1 0x0 KECCAK256 PUSH1 0x2 ADD PUSH1 0x0 SWAP1 SLOAD SWAP1 PUSH2 0x100 EXP SWAP1 DIV PUSH20 0xFFFFFFFFFFFFFFFFFFFFFFFFFFFFFFFFFFFFFFFF AND PUSH20 0xFFFFFFFFFFFFFFFFFFFFFFFFFFFFFFFFFFFFFFFF AND EQ ISZERO PUSH2 0xE77 JUMPI PUSH1 0x0 PUSH1 0x1 DUP3 PUSH2 0xD47 SWAP2 SWAP1 PUSH2 0x37C0 JUMP JUMPDEST SWAP1 POP PUSH1 0x0 PUSH1 0xB PUSH1 0x0 DUP4 DUP2 MSTORE PUSH1 0x20 ADD SWAP1 DUP2 MSTORE PUSH1 0x20 ADD PUSH1 0x0 KECCAK256 SWAP1 POP DUP1 PUSH1 0x40 MLOAD DUP1 PUSH1 0xA0 ADD PUSH1 0x40 MSTORE SWAP1 DUP2 PUSH1 0x0 DUP3 ADD SLOAD DUP2 MSTORE PUSH1 0x20 ADD PUSH1 0x1 DUP3 ADD PUSH1 0x0 SWAP1 SLOAD SWAP1 PUSH2 0x100 EXP SWAP1 DIV PUSH20 0xFFFFFFFFFFFFFFFFFFFFFFFFFFFFFFFFFFFFFFFF AND PUSH20 0xFFFFFFFFFFFFFFFFFFFFFFFFFFFFFFFFFFFFFFFF AND PUSH20 0xFFFFFFFFFFFFFFFFFFFFFFFFFFFFFFFFFFFFFFFF AND DUP2 MSTORE PUSH1 0x20 ADD PUSH1 0x2 DUP3 ADD PUSH1 0x0 SWAP1 SLOAD SWAP1 PUSH2 0x100 EXP SWAP1 DIV PUSH20 0xFFFFFFFFFFFFFFFFFFFFFFFFFFFFFFFFFFFFFFFF AND PUSH20 0xFFFFFFFFFFFFFFFFFFFFFFFFFFFFFFFFFFFFFFFF AND PUSH20 0xFFFFFFFFFFFFFFFFFFFFFFFFFFFFFFFFFFFFFFFF AND DUP2 MSTORE PUSH1 0x20 ADD PUSH1 0x3 DUP3 ADD SLOAD DUP2 MSTORE PUSH1 0x20 ADD PUSH1 0x4 DUP3 ADD PUSH1 0x0 SWAP1 SLOAD SWAP1 PUSH2 0x100 EXP SWAP1 DIV PUSH1 0xFF AND ISZERO ISZERO ISZERO ISZERO DUP2 MSTORE POP POP DUP5 DUP7 DUP2 MLOAD DUP2 LT PUSH2 0xE5A JUMPI PUSH2 0xE59 PUSH2 0x3816 JUMP JUMPDEST JUMPDEST PUSH1 0x20 MUL PUSH1 0x20 ADD ADD DUP2 SWAP1 MSTORE POP PUSH1 0x1 DUP6 PUSH2 0xE72 SWAP2 SWAP1 PUSH2 0x37C0 JUMP JUMPDEST SWAP5 POP POP POP JUMPDEST DUP1 DUP1 PUSH2 0xE82 SWAP1 PUSH2 0x3845 JUMP JUMPDEST SWAP2 POP POP PUSH2 0xCBA JUMP JUMPDEST POP DUP1 SWAP5 POP POP POP POP POP SWAP1 JUMP JUMPDEST PUSH2 0xEA6 PUSH2 0xEA0 PUSH2 0x1EFB JUMP JUMPDEST DUP3 PUSH2 0x1FCA JUMP JUMPDEST PUSH2 0xEE5 JUMPI PUSH1 0x40 MLOAD PUSH32 0x8C379A000000000000000000000000000000000000000000000000000000000 DUP2 MSTORE PUSH1 0x4 ADD PUSH2 0xEDC SWAP1 PUSH2 0x3900 JUMP JUMPDEST PUSH1 0x40 MLOAD DUP1 SWAP2 SUB SWAP1 REVERT JUMPDEST PUSH2 0xEF0 DUP4 DUP4 DUP4 PUSH2 0x20A8 JUMP JUMPDEST POP POP POP JUMP JUMPDEST PUSH1 0x0 DUP2 GT PUSH2 0xF38 JUMPI PUSH1 0x40 MLOAD PUSH32 0x8C379A000000000000000000000000000000000000000000000000000000000 DUP2 MSTORE PUSH1 0x4 ADD PUSH2 0xF2F SWAP1 PUSH2 0x396C JUMP JUMPDEST PUSH1 0x40 MLOAD DUP1 SWAP2 SUB SWAP1 REVERT JUMPDEST PUSH1 0x9 SLOAD CALLVALUE EQ PUSH2 0xF7C JUMPI PUSH1 0x40 MLOAD PUSH32 0x8C379A000000000000000000000000000000000000000000000000000000000 DUP2 MSTORE PUSH1 0x4 ADD PUSH2 0xF73 SWAP1 PUSH2 0x39FE JUMP JUMPDEST PUSH1 0x40 MLOAD DUP1 SWAP2 SUB SWAP1 REVERT JUMPDEST PUSH1 0x40 MLOAD DUP1 PUSH1 0xA0 ADD PUSH1 0x40 MSTORE DUP1 DUP4 DUP2 MSTORE PUSH1 0x20 ADD CALLER PUSH20 0xFFFFFFFFFFFFFFFFFFFFFFFFFFFFFFFFFFFFFFFF AND DUP2 MSTORE PUSH1 0x20 ADD ADDRESS PUSH20 0xFFFFFFFFFFFFFFFFFFFFFFFFFFFFFFFFFFFFFFFF AND DUP2 MSTORE PUSH1 0x20 ADD DUP3 DUP2 MSTORE PUSH1 0x20 ADD PUSH1 0x0 ISZERO ISZERO DUP2 MSTORE POP PUSH1 0xB PUSH1 0x0 DUP5 DUP2 MSTORE PUSH1 0x20 ADD SWAP1 DUP2 MSTORE PUSH1 0x20 ADD PUSH1 0x0 KECCAK256 PUSH1 0x0 DUP3 ADD MLOAD DUP2 PUSH1 0x0 ADD SSTORE PUSH1 0x20 DUP3 ADD MLOAD DUP2 PUSH1 0x1 ADD PUSH1 0x0 PUSH2 0x100 EXP DUP2 SLOAD DUP2 PUSH20 0xFFFFFFFFFFFFFFFFFFFFFFFFFFFFFFFFFFFFFFFF MUL NOT AND SWAP1 DUP4 PUSH20 0xFFFFFFFFFFFFFFFFFFFFFFFFFFFFFFFFFFFFFFFF AND MUL OR SWAP1 SSTORE POP PUSH1 0x40 DUP3 ADD MLOAD DUP2 PUSH1 0x2 ADD PUSH1 0x0 PUSH2 0x100 EXP DUP2 SLOAD DUP2 PUSH20 0xFFFFFFFFFFFFFFFFFFFFFFFFFFFFFFFFFFFFFFFF MUL NOT AND SWAP1 DUP4 PUSH20 0xFFFFFFFFFFFFFFFFFFFFFFFFFFFFFFFFFFFFFFFF AND MUL OR SWAP1 SSTORE POP PUSH1 0x60 DUP3 ADD MLOAD DUP2 PUSH1 0x3 ADD SSTORE PUSH1 0x80 DUP3 ADD MLOAD DUP2 PUSH1 0x4 ADD PUSH1 0x0 PUSH2 0x100 EXP DUP2 SLOAD DUP2 PUSH1 0xFF MUL NOT AND SWAP1 DUP4 ISZERO ISZERO MUL OR SWAP1 SSTORE POP SWAP1 POP POP PUSH2 0x10B5 CALLER ADDRESS DUP5 PUSH2 0x20A8 JUMP JUMPDEST DUP2 PUSH32 0xB640004F1D14576D0C209E240CAD0410E0D8C0C33A09375861FBADAE2588A98D CALLER ADDRESS DUP5 PUSH1 0x0 PUSH1 0x40 MLOAD PUSH2 0x10EC SWAP5 SWAP4 SWAP3 SWAP2 SWAP1 PUSH2 0x3A1E JUMP JUMPDEST PUSH1 0x40 MLOAD DUP1 SWAP2 SUB SWAP1 LOG2 POP POP JUMP JUMPDEST PUSH2 0x1113 DUP4 DUP4 DUP4 PUSH1 0x40 MLOAD DUP1 PUSH1 0x20 ADD PUSH1 0x40 MSTORE DUP1 PUSH1 0x0 DUP2 MSTORE POP PUSH2 0x172D JUMP JUMPDEST POP POP POP JUMP JUMPDEST PUSH1 0x60 PUSH1 0x0 PUSH2 0x1126 PUSH1 0x7 PUSH2 0x1FBC JUMP JUMPDEST SWAP1 POP PUSH1 0x0 DUP1 PUSH1 0x0 JUMPDEST DUP4 DUP2 LT ISZERO PUSH2 0x11CF JUMPI CALLER PUSH20 0xFFFFFFFFFFFFFFFFFFFFFFFFFFFFFFFFFFFFFFFF AND PUSH1 0xB PUSH1 0x0 PUSH1 0x1 DUP5 PUSH2 0x115E SWAP2 SWAP1 PUSH2 0x37C0 JUMP JUMPDEST DUP2 MSTORE PUSH1 0x20 ADD SWAP1 DUP2 MSTORE PUSH1 0x20 ADD PUSH1 0x0 KECCAK256 PUSH1 0x1 ADD PUSH1 0x0 SWAP1 SLOAD SWAP1 PUSH2 0x100 EXP SWAP1 DIV PUSH20 0xFFFFFFFFFFFFFFFFFFFFFFFFFFFFFFFFFFFFFFFF AND PUSH20 0xFFFFFFFFFFFFFFFFFFFFFFFFFFFFFFFFFFFFFFFF AND EQ ISZERO PUSH2 0x11BC JUMPI PUSH1 0x1 DUP4 PUSH2 0x11B9 SWAP2 SWAP1 PUSH2 0x37C0 JUMP JUMPDEST SWAP3 POP JUMPDEST DUP1 DUP1 PUSH2 0x11C7 SWAP1 PUSH2 0x3845 JUMP JUMPDEST SWAP2 POP POP PUSH2 0x112E JUMP JUMPDEST POP PUSH1 0x0 DUP3 PUSH8 0xFFFFFFFFFFFFFFFF DUP2 GT ISZERO PUSH2 0x11EC JUMPI PUSH2 0x11EB PUSH2 0x318D JUMP JUMPDEST JUMPDEST PUSH1 0x40 MLOAD SWAP1 DUP1 DUP3 MSTORE DUP1 PUSH1 0x20 MUL PUSH1 0x20 ADD DUP3 ADD PUSH1 0x40 MSTORE DUP1 ISZERO PUSH2 0x1225 JUMPI DUP2 PUSH1 0x20 ADD JUMPDEST PUSH2 0x1212 PUSH2 0x2B6C JUMP JUMPDEST DUP2 MSTORE PUSH1 0x20 ADD SWAP1 PUSH1 0x1 SWAP1 SUB SWAP1 DUP2 PUSH2 0x120A JUMPI SWAP1 POP JUMPDEST POP SWAP1 POP PUSH1 0x0 JUMPDEST DUP5 DUP2 LT ISZERO PUSH2 0x13FB JUMPI CALLER PUSH20 0xFFFFFFFFFFFFFFFFFFFFFFFFFFFFFFFFFFFFFFFF AND PUSH1 0xB PUSH1 0x0 PUSH1 0x1 DUP5 PUSH2 0x125B SWAP2 SWAP1 PUSH2 0x37C0 JUMP JUMPDEST DUP2 MSTORE PUSH1 0x20 ADD SWAP1 DUP2 MSTORE PUSH1 0x20 ADD PUSH1 0x0 KECCAK256 PUSH1 0x1 ADD PUSH1 0x0 SWAP1 SLOAD SWAP1 PUSH2 0x100 EXP SWAP1 DIV PUSH20 0xFFFFFFFFFFFFFFFFFFFFFFFFFFFFFFFFFFFFFFFF AND PUSH20 0xFFFFFFFFFFFFFFFFFFFFFFFFFFFFFFFFFFFFFFFF AND EQ ISZERO PUSH2 0x13E8 JUMPI PUSH1 0x0 PUSH1 0x1 DUP3 PUSH2 0x12B8 SWAP2 SWAP1 PUSH2 0x37C0 JUMP JUMPDEST SWAP1 POP PUSH1 0x0 PUSH1 0xB PUSH1 0x0 DUP4 DUP2 MSTORE PUSH1 0x20 ADD SWAP1 DUP2 MSTORE PUSH1 0x20 ADD PUSH1 0x0 KECCAK256 SWAP1 POP DUP1 PUSH1 0x40 MLOAD DUP1 PUSH1 0xA0 ADD PUSH1 0x40 MSTORE SWAP1 DUP2 PUSH1 0x0 DUP3 ADD SLOAD DUP2 MSTORE PUSH1 0x20 ADD PUSH1 0x1 DUP3 ADD PUSH1 0x0 SWAP1 SLOAD SWAP1 PUSH2 0x100 EXP SWAP1 DIV PUSH20 0xFFFFFFFFFFFFFFFFFFFFFFFFFFFFFFFFFFFFFFFF AND PUSH20 0xFFFFFFFFFFFFFFFFFFFFFFFFFFFFFFFFFFFFFFFF AND PUSH20 0xFFFFFFFFFFFFFFFFFFFFFFFFFFFFFFFFFFFFFFFF AND DUP2 MSTORE PUSH1 0x20 ADD PUSH1 0x2 DUP3 ADD PUSH1 0x0 SWAP1 SLOAD SWAP1 PUSH2 0x100 EXP SWAP1 DIV PUSH20 0xFFFFFFFFFFFFFFFFFFFFFFFFFFFFFFFFFFFFFFFF AND PUSH20 0xFFFFFFFFFFFFFFFFFFFFFFFFFFFFFFFFFFFFFFFF AND PUSH20 0xFFFFFFFFFFFFFFFFFFFFFFFFFFFFFFFFFFFFFFFF AND DUP2 MSTORE PUSH1 0x20 ADD PUSH1 0x3 DUP3 ADD SLOAD DUP2 MSTORE PUSH1 0x20 ADD PUSH1 0x4 DUP3 ADD PUSH1 0x0 SWAP1 SLOAD SWAP1 PUSH2 0x100 EXP SWAP1 DIV PUSH1 0xFF AND ISZERO ISZERO ISZERO ISZERO DUP2 MSTORE POP POP DUP5 DUP7 DUP2 MLOAD DUP2 LT PUSH2 0x13CB JUMPI PUSH2 0x13CA PUSH2 0x3816 JUMP JUMPDEST JUMPDEST PUSH1 0x20 MUL PUSH1 0x20 ADD ADD DUP2 SWAP1 MSTORE POP PUSH1 0x1 DUP6 PUSH2 0x13E3 SWAP2 SWAP1 PUSH2 0x37C0 JUMP JUMPDEST SWAP5 POP POP POP JUMPDEST DUP1 DUP1 PUSH2 0x13F3 SWAP1 PUSH2 0x3845 JUMP JUMPDEST SWAP2 POP POP PUSH2 0x122B JUMP JUMPDEST POP DUP1 SWAP5 POP POP POP POP POP SWAP1 JUMP JUMPDEST PUSH1 0x0 DUP1 PUSH1 0x2 PUSH1 0x0 DUP5 DUP2 MSTORE PUSH1 0x20 ADD SWAP1 DUP2 MSTORE PUSH1 0x20 ADD PUSH1 0x0 KECCAK256 PUSH1 0x0 SWAP1 SLOAD SWAP1 PUSH2 0x100 EXP SWAP1 DIV PUSH20 0xFFFFFFFFFFFFFFFFFFFFFFFFFFFFFFFFFFFFFFFF AND SWAP1 POP PUSH1 0x0 PUSH20 0xFFFFFFFFFFFFFFFFFFFFFFFFFFFFFFFFFFFFFFFF AND DUP2 PUSH20 0xFFFFFFFFFFFFFFFFFFFFFFFFFFFFFFFFFFFFFFFF AND EQ ISZERO PUSH2 0x14AF JUMPI PUSH1 0x40 MLOAD PUSH32 0x8C379A000000000000000000000000000000000000000000000000000000000 DUP2 MSTORE PUSH1 0x4 ADD PUSH2 0x14A6 SWAP1 PUSH2 0x3AD5 JUMP JUMPDEST PUSH1 0x40 MLOAD DUP1 SWAP2 SUB SWAP1 REVERT JUMPDEST DUP1 SWAP2 POP POP SWAP2 SWAP1 POP JUMP JUMPDEST PUSH2 0x14D6 PUSH20 0xD9145CCE52D386F254917E481EB44E9943F39138 DUP3 PUSH2 0x1F03 JUMP JUMPDEST POP JUMP JUMPDEST PUSH1 0x0 DUP1 PUSH20 0xFFFFFFFFFFFFFFFFFFFFFFFFFFFFFFFFFFFFFFFF AND DUP3 PUSH20 0xFFFFFFFFFFFFFFFFFFFFFFFFFFFFFFFFFFFFFFFF AND EQ ISZERO PUSH2 0x154A JUMPI PUSH1 0x40 MLOAD PUSH32 0x8C379A000000000000000000000000000000000000000000000000000000000 DUP2 MSTORE PUSH1 0x4 ADD PUSH2 0x1541 SWAP1 PUSH2 0x3B67 JUMP JUMPDEST PUSH1 0x40 MLOAD DUP1 SWAP2 SUB SWAP1 REVERT JUMPDEST PUSH1 0x3 PUSH1 0x0 DUP4 PUSH20 0xFFFFFFFFFFFFFFFFFFFFFFFFFFFFFFFFFFFFFFFF AND PUSH20 0xFFFFFFFFFFFFFFFFFFFFFFFFFFFFFFFFFFFFFFFF AND DUP2 MSTORE PUSH1 0x20 ADD SWAP1 DUP2 MSTORE PUSH1 0x20 ADD PUSH1 0x0 KECCAK256 SLOAD SWAP1 POP SWAP2 SWAP1 POP JUMP JUMPDEST PUSH1 0x0 PUSH2 0x159D PUSH1 0x7 PUSH2 0x230F JUMP JUMPDEST PUSH1 0x0 PUSH2 0x15A9 PUSH1 0x7 PUSH2 0x1FBC JUMP JUMPDEST SWAP1 POP PUSH2 0x15B5 CALLER DUP3 PUSH2 0x2325 JUMP JUMPDEST PUSH2 0x15BF DUP2 DUP6 PUSH2 0x24FF JUMP JUMPDEST PUSH2 0x15C9 DUP2 DUP5 PUSH2 0xEF5 JUMP JUMPDEST DUP1 SWAP2 POP POP SWAP3 SWAP2 POP POP JUMP JUMPDEST PUSH1 0x8 DUP1 PUSH1 0x0 ADD SLOAD SWAP1 POP DUP2 JUMP JUMPDEST PUSH1 0x60 PUSH1 0x1 DUP1 SLOAD PUSH2 0x15EE SWAP1 PUSH2 0x3575 JUMP JUMPDEST DUP1 PUSH1 0x1F ADD PUSH1 0x20 DUP1 SWAP2 DIV MUL PUSH1 0x20 ADD PUSH1 0x40 MLOAD SWAP1 DUP2 ADD PUSH1 0x40 MSTORE DUP1 SWAP3 SWAP2 SWAP1 DUP2 DUP2 MSTORE PUSH1 0x20 ADD DUP3 DUP1 SLOAD PUSH2 0x161A SWAP1 PUSH2 0x3575 JUMP JUMPDEST DUP1 ISZERO PUSH2 0x1667 JUMPI DUP1 PUSH1 0x1F LT PUSH2 0x163C JUMPI PUSH2 0x100 DUP1 DUP4 SLOAD DIV MUL DUP4 MSTORE SWAP2 PUSH1 0x20 ADD SWAP2 PUSH2 0x1667 JUMP JUMPDEST DUP3 ADD SWAP2 SWAP1 PUSH1 0x0 MSTORE PUSH1 0x20 PUSH1 0x0 KECCAK256 SWAP1 JUMPDEST DUP2 SLOAD DUP2 MSTORE SWAP1 PUSH1 0x1 ADD SWAP1 PUSH1 0x20 ADD DUP1 DUP4 GT PUSH2 0x164A JUMPI DUP3 SWAP1 SUB PUSH1 0x1F AND DUP3 ADD SWAP2 JUMPDEST POP POP POP POP POP SWAP1 POP SWAP1 JUMP JUMPDEST PUSH2 0x1683 PUSH2 0x167C PUSH2 0x1EFB JUMP JUMPDEST DUP4 DUP4 PUSH2 0x2573 JUMP JUMPDEST POP POP JUMP JUMPDEST PUSH1 0x7 DUP1 PUSH1 0x0 ADD SLOAD SWAP1 POP DUP2 JUMP JUMPDEST CALLER PUSH20 0xFFFFFFFFFFFFFFFFFFFFFFFFFFFFFFFFFFFFFFFF AND PUSH1 0xA PUSH1 0x0 SWAP1 SLOAD SWAP1 PUSH2 0x100 EXP SWAP1 DIV PUSH20 0xFFFFFFFFFFFFFFFFFFFFFFFFFFFFFFFFFFFFFFFF AND PUSH20 0xFFFFFFFFFFFFFFFFFFFFFFFFFFFFFFFFFFFFFFFF AND EQ PUSH2 0x1723 JUMPI PUSH1 0x40 MLOAD PUSH32 0x8C379A000000000000000000000000000000000000000000000000000000000 DUP2 MSTORE PUSH1 0x4 ADD PUSH2 0x171A SWAP1 PUSH2 0x3BF9 JUMP JUMPDEST PUSH1 0x40 MLOAD DUP1 SWAP2 SUB SWAP1 REVERT JUMPDEST DUP1 PUSH1 0x9 DUP2 SWAP1 SSTORE POP POP JUMP JUMPDEST PUSH2 0x173E PUSH2 0x1738 PUSH2 0x1EFB JUMP JUMPDEST DUP4 PUSH2 0x1FCA JUMP JUMPDEST PUSH2 0x177D JUMPI PUSH1 0x40 MLOAD PUSH32 0x8C379A000000000000000000000000000000000000000000000000000000000 DUP2 MSTORE PUSH1 0x4 ADD PUSH2 0x1774 SWAP1 PUSH2 0x3900 JUMP JUMPDEST PUSH1 0x40 MLOAD DUP1 SWAP2 SUB SWAP1 REVERT JUMPDEST PUSH2 0x1789 DUP5 DUP5 DUP5 DUP5 PUSH2 0x26E0 JUMP JUMPDEST POP POP POP POP JUMP JUMPDEST PUSH1 0x0 PUSH1 0xB PUSH1 0x0 DUP4 DUP2 MSTORE PUSH1 0x20 ADD SWAP1 DUP2 MSTORE PUSH1 0x20 ADD PUSH1 0x0 KECCAK256 PUSH1 0x3 ADD SLOAD SWAP1 POP DUP1 CALLVALUE EQ PUSH2 0x17EC JUMPI PUSH1 0x40 MLOAD PUSH32 0x8C379A000000000000000000000000000000000000000000000000000000000 DUP2 MSTORE PUSH1 0x4 ADD PUSH2 0x17E3 SWAP1 PUSH2 0x3C8B JUMP JUMPDEST PUSH1 0x40 MLOAD DUP1 SWAP2 SUB SWAP1 REVERT JUMPDEST CALLER PUSH1 0xB PUSH1 0x0 DUP5 DUP2 MSTORE PUSH1 0x20 ADD SWAP1 DUP2 MSTORE PUSH1 0x20 ADD PUSH1 0x0 KECCAK256 PUSH1 0x2 ADD PUSH1 0x0 PUSH2 0x100 EXP DUP2 SLOAD DUP2 PUSH20 0xFFFFFFFFFFFFFFFFFFFFFFFFFFFFFFFFFFFFFFFF MUL NOT AND SWAP1 DUP4 PUSH20 0xFFFFFFFFFFFFFFFFFFFFFFFFFFFFFFFFFFFFFFFF AND MUL OR SWAP1 SSTORE POP PUSH1 0x1 PUSH1 0xB PUSH1 0x0 DUP5 DUP2 MSTORE PUSH1 0x20 ADD SWAP1 DUP2 MSTORE PUSH1 0x20 ADD PUSH1 0x0 KECCAK256 PUSH1 0x4 ADD PUSH1 0x0 PUSH2 0x100 EXP DUP2 SLOAD DUP2 PUSH1 0xFF MUL NOT AND SWAP1 DUP4 ISZERO ISZERO MUL OR SWAP1 SSTORE POP PUSH1 0x0 PUSH1 0xB PUSH1 0x0 DUP5 DUP2 MSTORE PUSH1 0x20 ADD SWAP1 DUP2 MSTORE PUSH1 0x20 ADD PUSH1 0x0 KECCAK256 PUSH1 0x1 ADD PUSH1 0x0 PUSH2 0x100 EXP DUP2 SLOAD DUP2 PUSH20 0xFFFFFFFFFFFFFFFFFFFFFFFFFFFFFFFFFFFFFFFF MUL NOT AND SWAP1 DUP4 PUSH20 0xFFFFFFFFFFFFFFFFFFFFFFFFFFFFFFFFFFFFFFFF AND MUL OR SWAP1 SSTORE POP PUSH2 0x18D0 PUSH1 0x8 PUSH2 0x230F JUMP JUMPDEST PUSH2 0x18DB ADDRESS CALLER DUP5 PUSH2 0x20A8 JUMP JUMPDEST PUSH1 0xA PUSH1 0x0 SWAP1 SLOAD SWAP1 PUSH2 0x100 EXP SWAP1 DIV PUSH20 0xFFFFFFFFFFFFFFFFFFFFFFFFFFFFFFFFFFFFFFFF AND PUSH20 0xFFFFFFFFFFFFFFFFFFFFFFFFFFFFFFFFFFFFFFFF AND PUSH2 0x8FC PUSH1 0x9 SLOAD SWAP1 DUP2 ISZERO MUL SWAP1 PUSH1 0x40 MLOAD PUSH1 0x0 PUSH1 0x40 MLOAD DUP1 DUP4 SUB DUP2 DUP6 DUP9 DUP9 CALL SWAP4 POP POP POP POP ISZERO DUP1 ISZERO PUSH2 0x1945 JUMPI RETURNDATASIZE PUSH1 0x0 DUP1 RETURNDATACOPY RETURNDATASIZE PUSH1 0x0 REVERT JUMPDEST POP PUSH1 0xB PUSH1 0x0 DUP4 DUP2 MSTORE PUSH1 0x20 ADD SWAP1 DUP2 MSTORE PUSH1 0x20 ADD PUSH1 0x0 KECCAK256 PUSH1 0x1 ADD PUSH1 0x0 SWAP1 SLOAD SWAP1 PUSH2 0x100 EXP SWAP1 DIV PUSH20 0xFFFFFFFFFFFFFFFFFFFFFFFFFFFFFFFFFFFFFFFF AND PUSH20 0xFFFFFFFFFFFFFFFFFFFFFFFFFFFFFFFFFFFFFFFF AND PUSH2 0x8FC CALLVALUE SWAP1 DUP2 ISZERO MUL SWAP1 PUSH1 0x40 MLOAD PUSH1 0x0 PUSH1 0x40 MLOAD DUP1 DUP4 SUB DUP2 DUP6 DUP9 DUP9 CALL SWAP4 POP POP POP POP ISZERO DUP1 ISZERO PUSH2 0x19C2 JUMPI RETURNDATASIZE PUSH1 0x0 DUP1 RETURNDATACOPY RETURNDATASIZE PUSH1 0x0 REVERT JUMPDEST POP POP POP JUMP JUMPDEST PUSH1 0x60 PUSH2 0x19D2 DUP3 PUSH2 0x1E8F JUMP JUMPDEST PUSH2 0x1A11 JUMPI PUSH1 0x40 MLOAD PUSH32 0x8C379A000000000000000000000000000000000000000000000000000000000 DUP2 MSTORE PUSH1 0x4 ADD PUSH2 0x1A08 SWAP1 PUSH2 0x3D1D JUMP JUMPDEST PUSH1 0x40 MLOAD DUP1 SWAP2 SUB SWAP1 REVERT JUMPDEST PUSH1 0x0 PUSH1 0x6 PUSH1 0x0 DUP5 DUP2 MSTORE PUSH1 0x20 ADD SWAP1 DUP2 MSTORE PUSH1 0x20 ADD PUSH1 0x0 KECCAK256 DUP1 SLOAD PUSH2 0x1A31 SWAP1 PUSH2 0x3575 JUMP JUMPDEST DUP1 PUSH1 0x1F ADD PUSH1 0x20 DUP1 SWAP2 DIV MUL PUSH1 0x20 ADD PUSH1 0x40 MLOAD SWAP1 DUP2 ADD PUSH1 0x40 MSTORE DUP1 SWAP3 SWAP2 SWAP1 DUP2 DUP2 MSTORE PUSH1 0x20 ADD DUP3 DUP1 SLOAD PUSH2 0x1A5D SWAP1 PUSH2 0x3575 JUMP JUMPDEST DUP1 ISZERO PUSH2 0x1AAA JUMPI DUP1 PUSH1 0x1F LT PUSH2 0x1A7F JUMPI PUSH2 0x100 DUP1 DUP4 SLOAD DIV MUL DUP4 MSTORE SWAP2 PUSH1 0x20 ADD SWAP2 PUSH2 0x1AAA JUMP JUMPDEST DUP3 ADD SWAP2 SWAP1 PUSH1 0x0 MSTORE PUSH1 0x20 PUSH1 0x0 KECCAK256 SWAP1 JUMPDEST DUP2 SLOAD DUP2 MSTORE SWAP1 PUSH1 0x1 ADD SWAP1 PUSH1 0x20 ADD DUP1 DUP4 GT PUSH2 0x1A8D JUMPI DUP3 SWAP1 SUB PUSH1 0x1F AND DUP3 ADD SWAP2 JUMPDEST POP POP POP POP POP SWAP1 POP PUSH1 0x0 PUSH2 0x1ABB PUSH2 0x273C JUMP JUMPDEST SWAP1 POP PUSH1 0x0 DUP2 MLOAD EQ ISZERO PUSH2 0x1AD1 JUMPI DUP2 SWAP3 POP POP POP PUSH2 0x1B14 JUMP JUMPDEST PUSH1 0x0 DUP3 MLOAD GT ISZERO PUSH2 0x1B06 JUMPI DUP1 DUP3 PUSH1 0x40 MLOAD PUSH1 0x20 ADD PUSH2 0x1AEE SWAP3 SWAP2 SWAP1 PUSH2 0x3D79 JUMP JUMPDEST PUSH1 0x40 MLOAD PUSH1 0x20 DUP2 DUP4 SUB SUB DUP2 MSTORE SWAP1 PUSH1 0x40 MSTORE SWAP3 POP POP POP PUSH2 0x1B14 JUMP JUMPDEST PUSH2 0x1B0F DUP5 PUSH2 0x2753 JUMP JUMPDEST SWAP3 POP POP POP JUMPDEST SWAP2 SWAP1 POP JUMP JUMPDEST CALLER PUSH20 0xFFFFFFFFFFFFFFFFFFFFFFFFFFFFFFFFFFFFFFFF AND PUSH1 0xB PUSH1 0x0 DUP5 DUP2 MSTORE PUSH1 0x20 ADD SWAP1 DUP2 MSTORE PUSH1 0x20 ADD PUSH1 0x0 KECCAK256 PUSH1 0x2 ADD PUSH1 0x0 SWAP1 SLOAD SWAP1 PUSH2 0x100 EXP SWAP1 DIV PUSH20 0xFFFFFFFFFFFFFFFFFFFFFFFFFFFFFFFFFFFFFFFF AND PUSH20 0xFFFFFFFFFFFFFFFFFFFFFFFFFFFFFFFFFFFFFFFF AND EQ PUSH2 0x1BBD JUMPI PUSH1 0x40 MLOAD PUSH32 0x8C379A000000000000000000000000000000000000000000000000000000000 DUP2 MSTORE PUSH1 0x4 ADD PUSH2 0x1BB4 SWAP1 PUSH2 0x3E0F JUMP JUMPDEST PUSH1 0x40 MLOAD DUP1 SWAP2 SUB SWAP1 REVERT JUMPDEST PUSH1 0x9 SLOAD CALLVALUE EQ PUSH2 0x1C01 JUMPI PUSH1 0x40 MLOAD PUSH32 0x8C379A000000000000000000000000000000000000000000000000000000000 DUP2 MSTORE PUSH1 0x4 ADD PUSH2 0x1BF8 SWAP1 PUSH2 0x39FE JUMP JUMPDEST PUSH1 0x40 MLOAD DUP1 SWAP2 SUB SWAP1 REVERT JUMPDEST PUSH1 0x0 PUSH1 0xB PUSH1 0x0 DUP5 DUP2 MSTORE PUSH1 0x20 ADD SWAP1 DUP2 MSTORE PUSH1 0x20 ADD PUSH1 0x0 KECCAK256 PUSH1 0x4 ADD PUSH1 0x0 PUSH2 0x100 EXP DUP2 SLOAD DUP2 PUSH1 0xFF MUL NOT AND SWAP1 DUP4 ISZERO ISZERO MUL OR SWAP1 SSTORE POP DUP1 PUSH1 0xB PUSH1 0x0 DUP5 DUP2 MSTORE PUSH1 0x20 ADD SWAP1 DUP2 MSTORE PUSH1 0x20 ADD PUSH1 0x0 KECCAK256 PUSH1 0x3 ADD DUP2 SWAP1 SSTORE POP CALLER PUSH1 0xB PUSH1 0x0 DUP5 DUP2 MSTORE PUSH1 0x20 ADD SWAP1 DUP2 MSTORE PUSH1 0x20 ADD PUSH1 0x0 KECCAK256 PUSH1 0x1 ADD PUSH1 0x0 PUSH2 0x100 EXP DUP2 SLOAD DUP2 PUSH20 0xFFFFFFFFFFFFFFFFFFFFFFFFFFFFFFFFFFFFFFFF MUL NOT AND SWAP1 DUP4 PUSH20 0xFFFFFFFFFFFFFFFFFFFFFFFFFFFFFFFFFFFFFFFF AND MUL OR SWAP1 SSTORE POP ADDRESS PUSH1 0xB PUSH1 0x0 DUP5 DUP2 MSTORE PUSH1 0x20 ADD SWAP1 DUP2 MSTORE PUSH1 0x20 ADD PUSH1 0x0 KECCAK256 PUSH1 0x2 ADD PUSH1 0x0 PUSH2 0x100 EXP DUP2 SLOAD DUP2 PUSH20 0xFFFFFFFFFFFFFFFFFFFFFFFFFFFFFFFFFFFFFFFF MUL NOT AND SWAP1 DUP4 PUSH20 0xFFFFFFFFFFFFFFFFFFFFFFFFFFFFFFFFFFFFFFFF AND MUL OR SWAP1 SSTORE POP PUSH2 0x1CFF PUSH1 0x8 PUSH2 0x27FA JUMP JUMPDEST PUSH2 0x1D0A CALLER ADDRESS DUP5 PUSH2 0x20A8 JUMP JUMPDEST POP POP JUMP JUMPDEST PUSH1 0xB PUSH1 0x20 MSTORE DUP1 PUSH1 0x0 MSTORE PUSH1 0x40 PUSH1 0x0 KECCAK256 PUSH1 0x0 SWAP2 POP SWAP1 POP DUP1 PUSH1 0x0 ADD SLOAD SWAP1 DUP1 PUSH1 0x1 ADD PUSH1 0x0 SWAP1 SLOAD SWAP1 PUSH2 0x100 EXP SWAP1 DIV PUSH20 0xFFFFFFFFFFFFFFFFFFFFFFFFFFFFFFFFFFFFFFFF AND SWAP1 DUP1 PUSH1 0x2 ADD PUSH1 0x0 SWAP1 SLOAD SWAP1 PUSH2 0x100 EXP SWAP1 DIV PUSH20 0xFFFFFFFFFFFFFFFFFFFFFFFFFFFFFFFFFFFFFFFF AND SWAP1 DUP1 PUSH1 0x3 ADD SLOAD SWAP1 DUP1 PUSH1 0x4 ADD PUSH1 0x0 SWAP1 SLOAD SWAP1 PUSH2 0x100 EXP SWAP1 DIV PUSH1 0xFF AND SWAP1 POP DUP6 JUMP JUMPDEST PUSH1 0x0 PUSH1 0x5 PUSH1 0x0 DUP5 PUSH20 0xFFFFFFFFFFFFFFFFFFFFFFFFFFFFFFFFFFFFFFFF AND PUSH20 0xFFFFFFFFFFFFFFFFFFFFFFFFFFFFFFFFFFFFFFFF AND DUP2 MSTORE PUSH1 0x20 ADD SWAP1 DUP2 MSTORE PUSH1 0x20 ADD PUSH1 0x0 KECCAK256 PUSH1 0x0 DUP4 PUSH20 0xFFFFFFFFFFFFFFFFFFFFFFFFFFFFFFFFFFFFFFFF AND PUSH20 0xFFFFFFFFFFFFFFFFFFFFFFFFFFFFFFFFFFFFFFFF AND DUP2 MSTORE PUSH1 0x20 ADD SWAP1 DUP2 MSTORE PUSH1 0x20 ADD PUSH1 0x0 KECCAK256 PUSH1 0x0 SWAP1 SLOAD SWAP1 PUSH2 0x100 EXP SWAP1 DIV PUSH1 0xFF AND SWAP1 POP SWAP3 SWAP2 POP POP JUMP JUMPDEST PUSH1 0x0 PUSH32 0x1FFC9A700000000000000000000000000000000000000000000000000000000 PUSH28 0xFFFFFFFFFFFFFFFFFFFFFFFFFFFFFFFFFFFFFFFFFFFFFFFFFFFFFFFF NOT AND DUP3 PUSH28 0xFFFFFFFFFFFFFFFFFFFFFFFFFFFFFFFFFFFFFFFFFFFFFFFFFFFFFFFF NOT AND EQ SWAP1 POP SWAP2 SWAP1 POP JUMP JUMPDEST PUSH1 0x0 DUP1 PUSH20 0xFFFFFFFFFFFFFFFFFFFFFFFFFFFFFFFFFFFFFFFF AND PUSH1 0x2 PUSH1 0x0 DUP5 DUP2 MSTORE PUSH1 0x20 ADD SWAP1 DUP2 MSTORE PUSH1 0x20 ADD PUSH1 0x0 KECCAK256 PUSH1 0x0 SWAP1 SLOAD SWAP1 PUSH2 0x100 EXP SWAP1 DIV PUSH20 0xFFFFFFFFFFFFFFFFFFFFFFFFFFFFFFFFFFFFFFFF AND PUSH20 0xFFFFFFFFFFFFFFFFFFFFFFFFFFFFFFFFFFFFFFFF AND EQ ISZERO SWAP1 POP SWAP2 SWAP1 POP JUMP JUMPDEST PUSH1 0x0 CALLER SWAP1 POP SWAP1 JUMP JUMPDEST DUP2 PUSH1 0x4 PUSH1 0x0 DUP4 DUP2 MSTORE PUSH1 0x20 ADD SWAP1 DUP2 MSTORE PUSH1 0x20 ADD PUSH1 0x0 KECCAK256 PUSH1 0x0 PUSH2 0x100 EXP DUP2 SLOAD DUP2 PUSH20 0xFFFFFFFFFFFFFFFFFFFFFFFFFFFFFFFFFFFFFFFF MUL NOT AND SWAP1 DUP4 PUSH20 0xFFFFFFFFFFFFFFFFFFFFFFFFFFFFFFFFFFFFFFFF AND MUL OR SWAP1 SSTORE POP DUP1 DUP3 PUSH20 0xFFFFFFFFFFFFFFFFFFFFFFFFFFFFFFFFFFFFFFFF AND PUSH2 0x1F76 DUP4 PUSH2 0x1406 JUMP JUMPDEST PUSH20 0xFFFFFFFFFFFFFFFFFFFFFFFFFFFFFFFFFFFFFFFF AND PUSH32 0x8C5BE1E5EBEC7D5BD14F71427D1E84F3DD0314C0F7B2291E5B200AC8C7C3B925 PUSH1 0x40 MLOAD PUSH1 0x40 MLOAD DUP1 SWAP2 SUB SWAP1 LOG4 POP POP JUMP JUMPDEST PUSH1 0x0 DUP2 PUSH1 0x0 ADD SLOAD SWAP1 POP SWAP2 SWAP1 POP JUMP JUMPDEST PUSH1 0x0 PUSH2 0x1FD5 DUP3 PUSH2 0x1E8F JUMP JUMPDEST PUSH2 0x2014 JUMPI PUSH1 0x40 MLOAD PUSH32 0x8C379A000000000000000000000000000000000000000000000000000000000 DUP2 MSTORE PUSH1 0x4 ADD PUSH2 0x200B SWAP1 PUSH2 0x3EA1 JUMP JUMPDEST PUSH1 0x40 MLOAD DUP1 SWAP2 SUB SWAP1 REVERT JUMPDEST PUSH1 0x0 PUSH2 0x201F DUP4 PUSH2 0x1406 JUMP JUMPDEST SWAP1 POP DUP1 PUSH20 0xFFFFFFFFFFFFFFFFFFFFFFFFFFFFFFFFFFFFFFFF AND DUP5 PUSH20 0xFFFFFFFFFFFFFFFFFFFFFFFFFFFFFFFFFFFFFFFF AND EQ DUP1 PUSH2 0x208E JUMPI POP DUP4 PUSH20 0xFFFFFFFFFFFFFFFFFFFFFFFFFFFFFFFFFFFFFFFF AND PUSH2 0x2076 DUP5 PUSH2 0x797 JUMP JUMPDEST PUSH20 0xFFFFFFFFFFFFFFFFFFFFFFFFFFFFFFFFFFFFFFFF AND EQ JUMPDEST DUP1 PUSH2 0x209F JUMPI POP PUSH2 0x209E DUP2 DUP6 PUSH2 0x1D91 JUMP JUMPDEST JUMPDEST SWAP2 POP POP SWAP3 SWAP2 POP POP JUMP JUMPDEST DUP3 PUSH20 0xFFFFFFFFFFFFFFFFFFFFFFFFFFFFFFFFFFFFFFFF AND PUSH2 0x20C8 DUP3 PUSH2 0x1406 JUMP JUMPDEST PUSH20 0xFFFFFFFFFFFFFFFFFFFFFFFFFFFFFFFFFFFFFFFF AND EQ PUSH2 0x211E JUMPI PUSH1 0x40 MLOAD PUSH32 0x8C379A000000000000000000000000000000000000000000000000000000000 DUP2 MSTORE PUSH1 0x4 ADD PUSH2 0x2115 SWAP1 PUSH2 0x3F33 JUMP JUMPDEST PUSH1 0x40 MLOAD DUP1 SWAP2 SUB SWAP1 REVERT JUMPDEST PUSH1 0x0 PUSH20 0xFFFFFFFFFFFFFFFFFFFFFFFFFFFFFFFFFFFFFFFF AND DUP3 PUSH20 0xFFFFFFFFFFFFFFFFFFFFFFFFFFFFFFFFFFFFFFFF AND EQ ISZERO PUSH2 0x218E JUMPI PUSH1 0x40 MLOAD PUSH32 0x8C379A000000000000000000000000000000000000000000000000000000000 DUP2 MSTORE PUSH1 0x4 ADD PUSH2 0x2185 SWAP1 PUSH2 0x3FC5 JUMP JUMPDEST PUSH1 0x40 MLOAD DUP1 SWAP2 SUB SWAP1 REVERT JUMPDEST PUSH2 0x2199 DUP4 DUP4 DUP4 PUSH2 0x2856 JUMP JUMPDEST PUSH2 0x21A4 PUSH1 0x0 DUP3 PUSH2 0x1F03 JUMP JUMPDEST PUSH1 0x1 PUSH1 0x3 PUSH1 0x0 DUP6 PUSH20 0xFFFFFFFFFFFFFFFFFFFFFFFFFFFFFFFFFFFFFFFF AND PUSH20 0xFFFFFFFFFFFFFFFFFFFFFFFFFFFFFFFFFFFFFFFF AND DUP2 MSTORE PUSH1 0x20 ADD SWAP1 DUP2 MSTORE PUSH1 0x20 ADD PUSH1 0x0 KECCAK256 PUSH1 0x0 DUP3 DUP3 SLOAD PUSH2 0x21F4 SWAP2 SWAP1 PUSH2 0x378C JUMP JUMPDEST SWAP3 POP POP DUP2 SWAP1 SSTORE POP PUSH1 0x1 PUSH1 0x3 PUSH1 0x0 DUP5 PUSH20 0xFFFFFFFFFFFFFFFFFFFFFFFFFFFFFFFFFFFFFFFF AND PUSH20 0xFFFFFFFFFFFFFFFFFFFFFFFFFFFFFFFFFFFFFFFF AND DUP2 MSTORE PUSH1 0x20 ADD SWAP1 DUP2 MSTORE PUSH1 0x20 ADD PUSH1 0x0 KECCAK256 PUSH1 0x0 DUP3 DUP3 SLOAD PUSH2 0x224B SWAP2 SWAP1 PUSH2 0x37C0 JUMP JUMPDEST SWAP3 POP POP DUP2 SWAP1 SSTORE POP DUP2 PUSH1 0x2 PUSH1 0x0 DUP4 DUP2 MSTORE PUSH1 0x20 ADD SWAP1 DUP2 MSTORE PUSH1 0x20 ADD PUSH1 0x0 KECCAK256 PUSH1 0x0 PUSH2 0x100 EXP DUP2 SLOAD DUP2 PUSH20 0xFFFFFFFFFFFFFFFFFFFFFFFFFFFFFFFFFFFFFFFF MUL NOT AND SWAP1 DUP4 PUSH20 0xFFFFFFFFFFFFFFFFFFFFFFFFFFFFFFFFFFFFFFFF AND MUL OR SWAP1 SSTORE POP DUP1 DUP3 PUSH20 0xFFFFFFFFFFFFFFFFFFFFFFFFFFFFFFFFFFFFFFFF AND DUP5 PUSH20 0xFFFFFFFFFFFFFFFFFFFFFFFFFFFFFFFFFFFFFFFF AND PUSH32 0xDDF252AD1BE2C89B69C2B068FC378DAA952BA7F163C4A11628F55A4DF523B3EF PUSH1 0x40 MLOAD PUSH1 0x40 MLOAD DUP1 SWAP2 SUB SWAP1 LOG4 PUSH2 0x230A DUP4 DUP4 DUP4 PUSH2 0x285B JUMP JUMPDEST POP POP POP JUMP JUMPDEST PUSH1 0x1 DUP2 PUSH1 0x0 ADD PUSH1 0x0 DUP3 DUP3 SLOAD ADD SWAP3 POP POP DUP2 SWAP1 SSTORE POP POP JUMP JUMPDEST PUSH1 0x0 PUSH20 0xFFFFFFFFFFFFFFFFFFFFFFFFFFFFFFFFFFFFFFFF AND DUP3 PUSH20 0xFFFFFFFFFFFFFFFFFFFFFFFFFFFFFFFFFFFFFFFF AND EQ ISZERO PUSH2 0x2395 JUMPI PUSH1 0x40 MLOAD PUSH32 0x8C379A000000000000000000000000000000000000000000000000000000000 DUP2 MSTORE PUSH1 0x4 ADD PUSH2 0x238C SWAP1 PUSH2 0x4031 JUMP JUMPDEST PUSH1 0x40 MLOAD DUP1 SWAP2 SUB SWAP1 REVERT JUMPDEST PUSH2 0x239E DUP2 PUSH2 0x1E8F JUMP JUMPDEST ISZERO PUSH2 0x23DE JUMPI PUSH1 0x40 MLOAD PUSH32 0x8C379A000000000000000000000000000000000000000000000000000000000 DUP2 MSTORE PUSH1 0x4 ADD PUSH2 0x23D5 SWAP1 PUSH2 0x409D JUMP JUMPDEST PUSH1 0x40 MLOAD DUP1 SWAP2 SUB SWAP1 REVERT JUMPDEST PUSH2 0x23EA PUSH1 0x0 DUP4 DUP4 PUSH2 0x2856 JUMP JUMPDEST PUSH1 0x1 PUSH1 0x3 PUSH1 0x0 DUP5 PUSH20 0xFFFFFFFFFFFFFFFFFFFFFFFFFFFFFFFFFFFFFFFF AND PUSH20 0xFFFFFFFFFFFFFFFFFFFFFFFFFFFFFFFFFFFFFFFF AND DUP2 MSTORE PUSH1 0x20 ADD SWAP1 DUP2 MSTORE PUSH1 0x20 ADD PUSH1 0x0 KECCAK256 PUSH1 0x0 DUP3 DUP3 SLOAD PUSH2 0x243A SWAP2 SWAP1 PUSH2 0x37C0 JUMP JUMPDEST SWAP3 POP POP DUP2 SWAP1 SSTORE POP DUP2 PUSH1 0x2 PUSH1 0x0 DUP4 DUP2 MSTORE PUSH1 0x20 ADD SWAP1 DUP2 MSTORE PUSH1 0x20 ADD PUSH1 0x0 KECCAK256 PUSH1 0x0 PUSH2 0x100 EXP DUP2 SLOAD DUP2 PUSH20 0xFFFFFFFFFFFFFFFFFFFFFFFFFFFFFFFFFFFFFFFF MUL NOT AND SWAP1 DUP4 PUSH20 0xFFFFFFFFFFFFFFFFFFFFFFFFFFFFFFFFFFFFFFFF AND MUL OR SWAP1 SSTORE POP DUP1 DUP3 PUSH20 0xFFFFFFFFFFFFFFFFFFFFFFFFFFFFFFFFFFFFFFFF AND PUSH1 0x0 PUSH20 0xFFFFFFFFFFFFFFFFFFFFFFFFFFFFFFFFFFFFFFFF AND PUSH32 0xDDF252AD1BE2C89B69C2B068FC378DAA952BA7F163C4A11628F55A4DF523B3EF PUSH1 0x40 MLOAD PUSH1 0x40 MLOAD DUP1 SWAP2 SUB SWAP1 LOG4 PUSH2 0x24FB PUSH1 0x0 DUP4 DUP4 PUSH2 0x285B JUMP JUMPDEST POP POP JUMP JUMPDEST PUSH2 0x2508 DUP3 PUSH2 0x1E8F JUMP JUMPDEST PUSH2 0x2547 JUMPI PUSH1 0x40 MLOAD PUSH32 0x8C379A000000000000000000000000000000000000000000000000000000000 DUP2 MSTORE PUSH1 0x4 ADD PUSH2 0x253E SWAP1 PUSH2 0x412F JUMP JUMPDEST PUSH1 0x40 MLOAD DUP1 SWAP2 SUB SWAP1 REVERT JUMPDEST DUP1 PUSH1 0x6 PUSH1 0x0 DUP5 DUP2 MSTORE PUSH1 0x20 ADD SWAP1 DUP2 MSTORE PUSH1 0x20 ADD PUSH1 0x0 KECCAK256 SWAP1 DUP1 MLOAD SWAP1 PUSH1 0x20 ADD SWAP1 PUSH2 0x256E SWAP3 SWAP2 SWAP1 PUSH2 0x2BC9 JUMP JUMPDEST POP POP POP JUMP JUMPDEST DUP2 PUSH20 0xFFFFFFFFFFFFFFFFFFFFFFFFFFFFFFFFFFFFFFFF AND DUP4 PUSH20 0xFFFFFFFFFFFFFFFFFFFFFFFFFFFFFFFFFFFFFFFF AND EQ ISZERO PUSH2 0x25E2 JUMPI PUSH1 0x40 MLOAD PUSH32 0x8C379A000000000000000000000000000000000000000000000000000000000 DUP2 MSTORE PUSH1 0x4 ADD PUSH2 0x25D9 SWAP1 PUSH2 0x419B JUMP JUMPDEST PUSH1 0x40 MLOAD DUP1 SWAP2 SUB SWAP1 REVERT JUMPDEST DUP1 PUSH1 0x5 PUSH1 0x0 DUP6 PUSH20 0xFFFFFFFFFFFFFFFFFFFFFFFFFFFFFFFFFFFFFFFF AND PUSH20 0xFFFFFFFFFFFFFFFFFFFFFFFFFFFFFFFFFFFFFFFF AND DUP2 MSTORE PUSH1 0x20 ADD SWAP1 DUP2 MSTORE PUSH1 0x20 ADD PUSH1 0x0 KECCAK256 PUSH1 0x0 DUP5 PUSH20 0xFFFFFFFFFFFFFFFFFFFFFFFFFFFFFFFFFFFFFFFF AND PUSH20 0xFFFFFFFFFFFFFFFFFFFFFFFFFFFFFFFFFFFFFFFF AND DUP2 MSTORE PUSH1 0x20 ADD SWAP1 DUP2 MSTORE PUSH1 0x20 ADD PUSH1 0x0 KECCAK256 PUSH1 0x0 PUSH2 0x100 EXP DUP2 SLOAD DUP2 PUSH1 0xFF MUL NOT AND SWAP1 DUP4 ISZERO ISZERO MUL OR SWAP1 SSTORE POP DUP2 PUSH20 0xFFFFFFFFFFFFFFFFFFFFFFFFFFFFFFFFFFFFFFFF AND DUP4 PUSH20 0xFFFFFFFFFFFFFFFFFFFFFFFFFFFFFFFFFFFFFFFF AND PUSH32 0x17307EAB39AB6107E8899845AD3D59BD9653F200F220920489CA2B5937696C31 DUP4 PUSH1 0x40 MLOAD PUSH2 0x26D3 SWAP2 SWAP1 PUSH2 0x2D20 JUMP JUMPDEST PUSH1 0x40 MLOAD DUP1 SWAP2 SUB SWAP1 LOG3 POP POP POP JUMP JUMPDEST PUSH2 0x26EB DUP5 DUP5 DUP5 PUSH2 0x20A8 JUMP JUMPDEST PUSH2 0x26F7 DUP5 DUP5 DUP5 DUP5 PUSH2 0x2860 JUMP JUMPDEST PUSH2 0x2736 JUMPI PUSH1 0x40 MLOAD PUSH32 0x8C379A000000000000000000000000000000000000000000000000000000000 DUP2 MSTORE PUSH1 0x4 ADD PUSH2 0x272D SWAP1 PUSH2 0x422D JUMP JUMPDEST PUSH1 0x40 MLOAD DUP1 SWAP2 SUB SWAP1 REVERT JUMPDEST POP POP POP POP JUMP JUMPDEST PUSH1 0x60 PUSH1 0x40 MLOAD DUP1 PUSH1 0x20 ADD PUSH1 0x40 MSTORE DUP1 PUSH1 0x0 DUP2 MSTORE POP SWAP1 POP SWAP1 JUMP JUMPDEST PUSH1 0x60 PUSH2 0x275E DUP3 PUSH2 0x1E8F JUMP JUMPDEST PUSH2 0x279D JUMPI PUSH1 0x40 MLOAD PUSH32 0x8C379A000000000000000000000000000000000000000000000000000000000 DUP2 MSTORE PUSH1 0x4 ADD PUSH2 0x2794 SWAP1 PUSH2 0x42BF JUMP JUMPDEST PUSH1 0x40 MLOAD DUP1 SWAP2 SUB SWAP1 REVERT JUMPDEST PUSH1 0x0 PUSH2 0x27A7 PUSH2 0x273C JUMP JUMPDEST SWAP1 POP PUSH1 0x0 DUP2 MLOAD GT PUSH2 0x27C7 JUMPI PUSH1 0x40 MLOAD DUP1 PUSH1 0x20 ADD PUSH1 0x40 MSTORE DUP1 PUSH1 0x0 DUP2 MSTORE POP PUSH2 0x27F2 JUMP JUMPDEST DUP1 PUSH2 0x27D1 DUP5 PUSH2 0x29E8 JUMP JUMPDEST PUSH1 0x40 MLOAD PUSH1 0x20 ADD PUSH2 0x27E2 SWAP3 SWAP2 SWAP1 PUSH2 0x3D79 JUMP JUMPDEST PUSH1 0x40 MLOAD PUSH1 0x20 DUP2 DUP4 SUB SUB DUP2 MSTORE SWAP1 PUSH1 0x40 MSTORE JUMPDEST SWAP2 POP POP SWAP2 SWAP1 POP JUMP JUMPDEST PUSH1 0x0 DUP2 PUSH1 0x0 ADD SLOAD SWAP1 POP PUSH1 0x0 DUP2 GT PUSH2 0x2846 JUMPI PUSH1 0x40 MLOAD PUSH32 0x8C379A000000000000000000000000000000000000000000000000000000000 DUP2 MSTORE PUSH1 0x4 ADD PUSH2 0x283D SWAP1 PUSH2 0x432B JUMP JUMPDEST PUSH1 0x40 MLOAD DUP1 SWAP2 SUB SWAP1 REVERT JUMPDEST PUSH1 0x1 DUP2 SUB DUP3 PUSH1 0x0 ADD DUP2 SWAP1 SSTORE POP POP POP JUMP JUMPDEST POP POP POP JUMP JUMPDEST POP POP POP JUMP JUMPDEST PUSH1 0x0 PUSH2 0x2881 DUP5 PUSH20 0xFFFFFFFFFFFFFFFFFFFFFFFFFFFFFFFFFFFFFFFF AND PUSH2 0x2B49 JUMP JUMPDEST ISZERO PUSH2 0x29DB JUMPI DUP4 PUSH20 0xFFFFFFFFFFFFFFFFFFFFFFFFFFFFFFFFFFFFFFFF AND PUSH4 0x150B7A02 PUSH2 0x28AA PUSH2 0x1EFB JUMP JUMPDEST DUP8 DUP7 DUP7 PUSH1 0x40 MLOAD DUP6 PUSH4 0xFFFFFFFF AND PUSH1 0xE0 SHL DUP2 MSTORE PUSH1 0x4 ADD PUSH2 0x28CC SWAP5 SWAP4 SWAP3 SWAP2 SWAP1 PUSH2 0x43A0 JUMP JUMPDEST PUSH1 0x20 PUSH1 0x40 MLOAD DUP1 DUP4 SUB DUP2 PUSH1 0x0 DUP8 GAS CALL SWAP3 POP POP POP DUP1 ISZERO PUSH2 0x2908 JUMPI POP PUSH1 0x40 MLOAD RETURNDATASIZE PUSH1 0x1F NOT PUSH1 0x1F DUP3 ADD AND DUP3 ADD DUP1 PUSH1 0x40 MSTORE POP DUP2 ADD SWAP1 PUSH2 0x2905 SWAP2 SWAP1 PUSH2 0x4401 JUMP JUMPDEST PUSH1 0x1 JUMPDEST PUSH2 0x298B JUMPI RETURNDATASIZE DUP1 PUSH1 0x0 DUP2 EQ PUSH2 0x2938 JUMPI PUSH1 0x40 MLOAD SWAP2 POP PUSH1 0x1F NOT PUSH1 0x3F RETURNDATASIZE ADD AND DUP3 ADD PUSH1 0x40 MSTORE RETURNDATASIZE DUP3 MSTORE RETURNDATASIZE PUSH1 0x0 PUSH1 0x20 DUP5 ADD RETURNDATACOPY PUSH2 0x293D JUMP JUMPDEST PUSH1 0x60 SWAP2 POP JUMPDEST POP PUSH1 0x0 DUP2 MLOAD EQ ISZERO PUSH2 0x2983 JUMPI PUSH1 0x40 MLOAD PUSH32 0x8C379A000000000000000000000000000000000000000000000000000000000 DUP2 MSTORE PUSH1 0x4 ADD PUSH2 0x297A SWAP1 PUSH2 0x422D JUMP JUMPDEST PUSH1 0x40 MLOAD DUP1 SWAP2 SUB SWAP1 REVERT JUMPDEST DUP1 MLOAD DUP2 PUSH1 0x20 ADD REVERT JUMPDEST PUSH4 0x150B7A02 PUSH1 0xE0 SHL PUSH28 0xFFFFFFFFFFFFFFFFFFFFFFFFFFFFFFFFFFFFFFFFFFFFFFFFFFFFFFFF NOT AND DUP2 PUSH28 0xFFFFFFFFFFFFFFFFFFFFFFFFFFFFFFFFFFFFFFFFFFFFFFFFFFFFFFFF NOT AND EQ SWAP2 POP POP PUSH2 0x29E0 JUMP JUMPDEST PUSH1 0x1 SWAP1 POP JUMPDEST SWAP5 SWAP4 POP POP POP POP JUMP JUMPDEST PUSH1 0x60 PUSH1 0x0 DUP3 EQ ISZERO PUSH2 0x2A30 JUMPI PUSH1 0x40 MLOAD DUP1 PUSH1 0x40 ADD PUSH1 0x40 MSTORE DUP1 PUSH1 0x1 DUP2 MSTORE PUSH1 0x20 ADD PUSH32 0x3000000000000000000000000000000000000000000000000000000000000000 DUP2 MSTORE POP SWAP1 POP PUSH2 0x2B44 JUMP JUMPDEST PUSH1 0x0 DUP3 SWAP1 POP PUSH1 0x0 JUMPDEST PUSH1 0x0 DUP3 EQ PUSH2 0x2A62 JUMPI DUP1 DUP1 PUSH2 0x2A4B SWAP1 PUSH2 0x3845 JUMP JUMPDEST SWAP2 POP POP PUSH1 0xA DUP3 PUSH2 0x2A5B SWAP2 SWAP1 PUSH2 0x445D JUMP JUMPDEST SWAP2 POP PUSH2 0x2A38 JUMP JUMPDEST PUSH1 0x0 DUP2 PUSH8 0xFFFFFFFFFFFFFFFF DUP2 GT ISZERO PUSH2 0x2A7E JUMPI PUSH2 0x2A7D PUSH2 0x318D JUMP JUMPDEST JUMPDEST PUSH1 0x40 MLOAD SWAP1 DUP1 DUP3 MSTORE DUP1 PUSH1 0x1F ADD PUSH1 0x1F NOT AND PUSH1 0x20 ADD DUP3 ADD PUSH1 0x40 MSTORE DUP1 ISZERO PUSH2 0x2AB0 JUMPI DUP2 PUSH1 0x20 ADD PUSH1 0x1 DUP3 MUL DUP1 CALLDATASIZE DUP4 CALLDATACOPY DUP1 DUP3 ADD SWAP2 POP POP SWAP1 POP JUMPDEST POP SWAP1 POP JUMPDEST PUSH1 0x0 DUP6 EQ PUSH2 0x2B3D JUMPI PUSH1 0x1 DUP3 PUSH2 0x2AC9 SWAP2 SWAP1 PUSH2 0x378C JUMP JUMPDEST SWAP2 POP PUSH1 0xA DUP6 PUSH2 0x2AD8 SWAP2 SWAP1 PUSH2 0x448E JUMP JUMPDEST PUSH1 0x30 PUSH2 0x2AE4 SWAP2 SWAP1 PUSH2 0x37C0 JUMP JUMPDEST PUSH1 0xF8 SHL DUP2 DUP4 DUP2 MLOAD DUP2 LT PUSH2 0x2AFA JUMPI PUSH2 0x2AF9 PUSH2 0x3816 JUMP JUMPDEST JUMPDEST PUSH1 0x20 ADD ADD SWAP1 PUSH31 0xFFFFFFFFFFFFFFFFFFFFFFFFFFFFFFFFFFFFFFFFFFFFFFFFFFFFFFFFFFFFFF NOT AND SWAP1 DUP2 PUSH1 0x0 BYTE SWAP1 MSTORE8 POP PUSH1 0xA DUP6 PUSH2 0x2B36 SWAP2 SWAP1 PUSH2 0x445D JUMP JUMPDEST SWAP5 POP PUSH2 0x2AB4 JUMP JUMPDEST DUP1 SWAP4 POP POP POP POP JUMPDEST SWAP2 SWAP1 POP JUMP JUMPDEST PUSH1 0x0 DUP1 DUP3 PUSH20 0xFFFFFFFFFFFFFFFFFFFFFFFFFFFFFFFFFFFFFFFF AND EXTCODESIZE GT SWAP1 POP SWAP2 SWAP1 POP JUMP JUMPDEST PUSH1 0x40 MLOAD DUP1 PUSH1 0xA0 ADD PUSH1 0x40 MSTORE DUP1 PUSH1 0x0 DUP2 MSTORE PUSH1 0x20 ADD PUSH1 0x0 PUSH20 0xFFFFFFFFFFFFFFFFFFFFFFFFFFFFFFFFFFFFFFFF AND DUP2 MSTORE PUSH1 0x20 ADD PUSH1 0x0 PUSH20 0xFFFFFFFFFFFFFFFFFFFFFFFFFFFFFFFFFFFFFFFF AND DUP2 MSTORE PUSH1 0x20 ADD PUSH1 0x0 DUP2 MSTORE PUSH1 0x20 ADD PUSH1 0x0 ISZERO ISZERO DUP2 MSTORE POP SWAP1 JUMP JUMPDEST DUP3 DUP1 SLOAD PUSH2 0x2BD5 SWAP1 PUSH2 0x3575 JUMP JUMPDEST SWAP1 PUSH1 0x0 MSTORE PUSH1 0x20 PUSH1 0x0 KECCAK256 SWAP1 PUSH1 0x1F ADD PUSH1 0x20 SWAP1 DIV DUP2 ADD SWAP3 DUP3 PUSH2 0x2BF7 JUMPI PUSH1 0x0 DUP6 SSTORE PUSH2 0x2C3E JUMP JUMPDEST DUP3 PUSH1 0x1F LT PUSH2 0x2C10 JUMPI DUP1 MLOAD PUSH1 0xFF NOT AND DUP4 DUP1 ADD OR DUP6 SSTORE PUSH2 0x2C3E JUMP JUMPDEST DUP3 DUP1 ADD PUSH1 0x1 ADD DUP6 SSTORE DUP3 ISZERO PUSH2 0x2C3E JUMPI SWAP2 DUP3 ADD JUMPDEST DUP3 DUP2 GT ISZERO PUSH2 0x2C3D JUMPI DUP3 MLOAD DUP3 SSTORE SWAP2 PUSH1 0x20 ADD SWAP2 SWAP1 PUSH1 0x1 ADD SWAP1 PUSH2 0x2C22 JUMP JUMPDEST JUMPDEST POP SWAP1 POP PUSH2 0x2C4B SWAP2 SWAP1 PUSH2 0x2C4F JUMP JUMPDEST POP SWAP1 JUMP JUMPDEST JUMPDEST DUP1 DUP3 GT ISZERO PUSH2 0x2C68 JUMPI PUSH1 0x0 DUP2 PUSH1 0x0 SWAP1 SSTORE POP PUSH1 0x1 ADD PUSH2 0x2C50 JUMP JUMPDEST POP SWAP1 JUMP JUMPDEST PUSH1 0x0 PUSH1 0x40 MLOAD SWAP1 POP SWAP1 JUMP JUMPDEST PUSH1 0x0 DUP1 REVERT JUMPDEST PUSH1 0x0 DUP1 REVERT JUMPDEST PUSH1 0x0 PUSH32 0xFFFFFFFF00000000000000000000000000000000000000000000000000000000 DUP3 AND SWAP1 POP SWAP2 SWAP1 POP JUMP JUMPDEST PUSH2 0x2CB5 DUP2 PUSH2 0x2C80 JUMP JUMPDEST DUP2 EQ PUSH2 0x2CC0 JUMPI PUSH1 0x0 DUP1 REVERT JUMPDEST POP JUMP JUMPDEST PUSH1 0x0 DUP2 CALLDATALOAD SWAP1 POP PUSH2 0x2CD2 DUP2 PUSH2 0x2CAC JUMP JUMPDEST SWAP3 SWAP2 POP POP JUMP JUMPDEST PUSH1 0x0 PUSH1 0x20 DUP3 DUP5 SUB SLT ISZERO PUSH2 0x2CEE JUMPI PUSH2 0x2CED PUSH2 0x2C76 JUMP JUMPDEST JUMPDEST PUSH1 0x0 PUSH2 0x2CFC DUP5 DUP3 DUP6 ADD PUSH2 0x2CC3 JUMP JUMPDEST SWAP2 POP POP SWAP3 SWAP2 POP POP JUMP JUMPDEST PUSH1 0x0 DUP2 ISZERO ISZERO SWAP1 POP SWAP2 SWAP1 POP JUMP JUMPDEST PUSH2 0x2D1A DUP2 PUSH2 0x2D05 JUMP JUMPDEST DUP3 MSTORE POP POP JUMP JUMPDEST PUSH1 0x0 PUSH1 0x20 DUP3 ADD SWAP1 POP PUSH2 0x2D35 PUSH1 0x0 DUP4 ADD DUP5 PUSH2 0x2D11 JUMP JUMPDEST SWAP3 SWAP2 POP POP JUMP JUMPDEST PUSH1 0x0 DUP2 MLOAD SWAP1 POP SWAP2 SWAP1 POP JUMP JUMPDEST PUSH1 0x0 DUP3 DUP3 MSTORE PUSH1 0x20 DUP3 ADD SWAP1 POP SWAP3 SWAP2 POP POP JUMP JUMPDEST PUSH1 0x0 JUMPDEST DUP4 DUP2 LT ISZERO PUSH2 0x2D75 JUMPI DUP1 DUP3 ADD MLOAD DUP2 DUP5 ADD MSTORE PUSH1 0x20 DUP2 ADD SWAP1 POP PUSH2 0x2D5A JUMP JUMPDEST DUP4 DUP2 GT ISZERO PUSH2 0x2D84 JUMPI PUSH1 0x0 DUP5 DUP5 ADD MSTORE JUMPDEST POP POP POP POP JUMP JUMPDEST PUSH1 0x0 PUSH1 0x1F NOT PUSH1 0x1F DUP4 ADD AND SWAP1 POP SWAP2 SWAP1 POP JUMP JUMPDEST PUSH1 0x0 PUSH2 0x2DA6 DUP3 PUSH2 0x2D3B JUMP JUMPDEST PUSH2 0x2DB0 DUP2 DUP6 PUSH2 0x2D46 JUMP JUMPDEST SWAP4 POP PUSH2 0x2DC0 DUP2 DUP6 PUSH1 0x20 DUP7 ADD PUSH2 0x2D57 JUMP JUMPDEST PUSH2 0x2DC9 DUP2 PUSH2 0x2D8A JUMP JUMPDEST DUP5 ADD SWAP2 POP POP SWAP3 SWAP2 POP POP JUMP JUMPDEST PUSH1 0x0 PUSH1 0x20 DUP3 ADD SWAP1 POP DUP2 DUP2 SUB PUSH1 0x0 DUP4 ADD MSTORE PUSH2 0x2DEE DUP2 DUP5 PUSH2 0x2D9B JUMP JUMPDEST SWAP1 POP SWAP3 SWAP2 POP POP JUMP JUMPDEST PUSH1 0x0 DUP2 SWAP1 POP SWAP2 SWAP1 POP JUMP JUMPDEST PUSH2 0x2E09 DUP2 PUSH2 0x2DF6 JUMP JUMPDEST DUP2 EQ PUSH2 0x2E14 JUMPI PUSH1 0x0 DUP1 REVERT JUMPDEST POP JUMP JUMPDEST PUSH1 0x0 DUP2 CALLDATALOAD SWAP1 POP PUSH2 0x2E26 DUP2 PUSH2 0x2E00 JUMP JUMPDEST SWAP3 SWAP2 POP POP JUMP JUMPDEST PUSH1 0x0 PUSH1 0x20 DUP3 DUP5 SUB SLT ISZERO PUSH2 0x2E42 JUMPI PUSH2 0x2E41 PUSH2 0x2C76 JUMP JUMPDEST JUMPDEST PUSH1 0x0 PUSH2 0x2E50 DUP5 DUP3 DUP6 ADD PUSH2 0x2E17 JUMP JUMPDEST SWAP2 POP POP SWAP3 SWAP2 POP POP JUMP JUMPDEST PUSH1 0x0 PUSH20 0xFFFFFFFFFFFFFFFFFFFFFFFFFFFFFFFFFFFFFFFF DUP3 AND SWAP1 POP SWAP2 SWAP1 POP JUMP JUMPDEST PUSH1 0x0 PUSH2 0x2E84 DUP3 PUSH2 0x2E59 JUMP JUMPDEST SWAP1 POP SWAP2 SWAP1 POP JUMP JUMPDEST PUSH2 0x2E94 DUP2 PUSH2 0x2E79 JUMP JUMPDEST DUP3 MSTORE POP POP JUMP JUMPDEST PUSH1 0x0 PUSH1 0x20 DUP3 ADD SWAP1 POP PUSH2 0x2EAF PUSH1 0x0 DUP4 ADD DUP5 PUSH2 0x2E8B JUMP JUMPDEST SWAP3 SWAP2 POP POP JUMP JUMPDEST PUSH2 0x2EBE DUP2 PUSH2 0x2E79 JUMP JUMPDEST DUP2 EQ PUSH2 0x2EC9 JUMPI PUSH1 0x0 DUP1 REVERT JUMPDEST POP JUMP JUMPDEST PUSH1 0x0 DUP2 CALLDATALOAD SWAP1 POP PUSH2 0x2EDB DUP2 PUSH2 0x2EB5 JUMP JUMPDEST SWAP3 SWAP2 POP POP JUMP JUMPDEST PUSH1 0x0 DUP1 PUSH1 0x40 DUP4 DUP6 SUB SLT ISZERO PUSH2 0x2EF8 JUMPI PUSH2 0x2EF7 PUSH2 0x2C76 JUMP JUMPDEST JUMPDEST PUSH1 0x0 PUSH2 0x2F06 DUP6 DUP3 DUP7 ADD PUSH2 0x2ECC JUMP JUMPDEST SWAP3 POP POP PUSH1 0x20 PUSH2 0x2F17 DUP6 DUP3 DUP7 ADD PUSH2 0x2E17 JUMP JUMPDEST SWAP2 POP POP SWAP3 POP SWAP3 SWAP1 POP JUMP JUMPDEST PUSH1 0x0 DUP2 MLOAD SWAP1 POP SWAP2 SWAP1 POP JUMP JUMPDEST PUSH1 0x0 DUP3 DUP3 MSTORE PUSH1 0x20 DUP3 ADD SWAP1 POP SWAP3 SWAP2 POP POP JUMP JUMPDEST PUSH1 0x0 DUP2 SWAP1 POP PUSH1 0x20 DUP3 ADD SWAP1 POP SWAP2 SWAP1 POP JUMP JUMPDEST PUSH2 0x2F56 DUP2 PUSH2 0x2DF6 JUMP JUMPDEST DUP3 MSTORE POP POP JUMP JUMPDEST PUSH1 0x0 PUSH2 0x2F67 DUP3 PUSH2 0x2E59 JUMP JUMPDEST SWAP1 POP SWAP2 SWAP1 POP JUMP JUMPDEST PUSH2 0x2F77 DUP2 PUSH2 0x2F5C JUMP JUMPDEST DUP3 MSTORE POP POP JUMP JUMPDEST PUSH2 0x2F86 DUP2 PUSH2 0x2D05 JUMP JUMPDEST DUP3 MSTORE POP POP JUMP JUMPDEST PUSH1 0xA0 DUP3 ADD PUSH1 0x0 DUP3 ADD MLOAD PUSH2 0x2FA2 PUSH1 0x0 DUP6 ADD DUP3 PUSH2 0x2F4D JUMP JUMPDEST POP PUSH1 0x20 DUP3 ADD MLOAD PUSH2 0x2FB5 PUSH1 0x20 DUP6 ADD DUP3 PUSH2 0x2F6E JUMP JUMPDEST POP PUSH1 0x40 DUP3 ADD MLOAD PUSH2 0x2FC8 PUSH1 0x40 DUP6 ADD DUP3 PUSH2 0x2F6E JUMP JUMPDEST POP PUSH1 0x60 DUP3 ADD MLOAD PUSH2 0x2FDB PUSH1 0x60 DUP6 ADD DUP3 PUSH2 0x2F4D JUMP JUMPDEST POP PUSH1 0x80 DUP3 ADD MLOAD PUSH2 0x2FEE PUSH1 0x80 DUP6 ADD DUP3 PUSH2 0x2F7D JUMP JUMPDEST POP POP POP POP JUMP JUMPDEST PUSH1 0x0 PUSH2 0x3000 DUP4 DUP4 PUSH2 0x2F8C JUMP JUMPDEST PUSH1 0xA0 DUP4 ADD SWAP1 POP SWAP3 SWAP2 POP POP JUMP JUMPDEST PUSH1 0x0 PUSH1 0x20 DUP3 ADD SWAP1 POP SWAP2 SWAP1 POP JUMP JUMPDEST PUSH1 0x0 PUSH2 0x3024 DUP3 PUSH2 0x2F21 JUMP JUMPDEST PUSH2 0x302E DUP2 DUP6 PUSH2 0x2F2C JUMP JUMPDEST SWAP4 POP PUSH2 0x3039 DUP4 PUSH2 0x2F3D JUMP JUMPDEST DUP1 PUSH1 0x0 JUMPDEST DUP4 DUP2 LT ISZERO PUSH2 0x306A JUMPI DUP2 MLOAD PUSH2 0x3051 DUP9 DUP3 PUSH2 0x2FF4 JUMP JUMPDEST SWAP8 POP PUSH2 0x305C DUP4 PUSH2 0x300C JUMP JUMPDEST SWAP3 POP POP PUSH1 0x1 DUP2 ADD SWAP1 POP PUSH2 0x303D JUMP JUMPDEST POP DUP6 SWAP4 POP POP POP POP SWAP3 SWAP2 POP POP JUMP JUMPDEST PUSH1 0x0 PUSH1 0x20 DUP3 ADD SWAP1 POP DUP2 DUP2 SUB PUSH1 0x0 DUP4 ADD MSTORE PUSH2 0x3091 DUP2 DUP5 PUSH2 0x3019 JUMP JUMPDEST SWAP1 POP SWAP3 SWAP2 POP POP JUMP JUMPDEST PUSH2 0x30A2 DUP2 PUSH2 0x2DF6 JUMP JUMPDEST DUP3 MSTORE POP POP JUMP JUMPDEST PUSH1 0x0 PUSH1 0x20 DUP3 ADD SWAP1 POP PUSH2 0x30BD PUSH1 0x0 DUP4 ADD DUP5 PUSH2 0x3099 JUMP JUMPDEST SWAP3 SWAP2 POP POP JUMP JUMPDEST PUSH1 0x0 DUP1 PUSH1 0x0 PUSH1 0x60 DUP5 DUP7 SUB SLT ISZERO PUSH2 0x30DC JUMPI PUSH2 0x30DB PUSH2 0x2C76 JUMP JUMPDEST JUMPDEST PUSH1 0x0 PUSH2 0x30EA DUP7 DUP3 DUP8 ADD PUSH2 0x2ECC JUMP JUMPDEST SWAP4 POP POP PUSH1 0x20 PUSH2 0x30FB DUP7 DUP3 DUP8 ADD PUSH2 0x2ECC JUMP JUMPDEST SWAP3 POP POP PUSH1 0x40 PUSH2 0x310C DUP7 DUP3 DUP8 ADD PUSH2 0x2E17 JUMP JUMPDEST SWAP2 POP POP SWAP3 POP SWAP3 POP SWAP3 JUMP JUMPDEST PUSH1 0x0 DUP1 PUSH1 0x40 DUP4 DUP6 SUB SLT ISZERO PUSH2 0x312D JUMPI PUSH2 0x312C PUSH2 0x2C76 JUMP JUMPDEST JUMPDEST PUSH1 0x0 PUSH2 0x313B DUP6 DUP3 DUP7 ADD PUSH2 0x2E17 JUMP JUMPDEST SWAP3 POP POP PUSH1 0x20 PUSH2 0x314C DUP6 DUP3 DUP7 ADD PUSH2 0x2E17 JUMP JUMPDEST SWAP2 POP POP SWAP3 POP SWAP3 SWAP1 POP JUMP JUMPDEST PUSH1 0x0 PUSH1 0x20 DUP3 DUP5 SUB SLT ISZERO PUSH2 0x316C JUMPI PUSH2 0x316B PUSH2 0x2C76 JUMP JUMPDEST JUMPDEST PUSH1 0x0 PUSH2 0x317A DUP5 DUP3 DUP6 ADD PUSH2 0x2ECC JUMP JUMPDEST SWAP2 POP POP SWAP3 SWAP2 POP POP JUMP JUMPDEST PUSH1 0x0 DUP1 REVERT JUMPDEST PUSH1 0x0 DUP1 REVERT JUMPDEST PUSH32 0x4E487B7100000000000000000000000000000000000000000000000000000000 PUSH1 0x0 MSTORE PUSH1 0x41 PUSH1 0x4 MSTORE PUSH1 0x24 PUSH1 0x0 REVERT JUMPDEST PUSH2 0x31C5 DUP3 PUSH2 0x2D8A JUMP JUMPDEST DUP2 ADD DUP2 DUP2 LT PUSH8 0xFFFFFFFFFFFFFFFF DUP3 GT OR ISZERO PUSH2 0x31E4 JUMPI PUSH2 0x31E3 PUSH2 0x318D JUMP JUMPDEST JUMPDEST DUP1 PUSH1 0x40 MSTORE POP POP POP JUMP JUMPDEST PUSH1 0x0 PUSH2 0x31F7 PUSH2 0x2C6C JUMP JUMPDEST SWAP1 POP PUSH2 0x3203 DUP3 DUP3 PUSH2 0x31BC JUMP JUMPDEST SWAP2 SWAP1 POP JUMP JUMPDEST PUSH1 0x0 PUSH8 0xFFFFFFFFFFFFFFFF DUP3 GT ISZERO PUSH2 0x3223 JUMPI PUSH2 0x3222 PUSH2 0x318D JUMP JUMPDEST JUMPDEST PUSH2 0x322C DUP3 PUSH2 0x2D8A JUMP JUMPDEST SWAP1 POP PUSH1 0x20 DUP2 ADD SWAP1 POP SWAP2 SWAP1 POP JUMP JUMPDEST DUP3 DUP2 DUP4 CALLDATACOPY PUSH1 0x0 DUP4 DUP4 ADD MSTORE POP POP POP JUMP JUMPDEST PUSH1 0x0 PUSH2 0x325B PUSH2 0x3256 DUP5 PUSH2 0x3208 JUMP JUMPDEST PUSH2 0x31ED JUMP JUMPDEST SWAP1 POP DUP3 DUP2 MSTORE PUSH1 0x20 DUP2 ADD DUP5 DUP5 DUP5 ADD GT ISZERO PUSH2 0x3277 JUMPI PUSH2 0x3276 PUSH2 0x3188 JUMP JUMPDEST JUMPDEST PUSH2 0x3282 DUP5 DUP3 DUP6 PUSH2 0x3239 JUMP JUMPDEST POP SWAP4 SWAP3 POP POP POP JUMP JUMPDEST PUSH1 0x0 DUP3 PUSH1 0x1F DUP4 ADD SLT PUSH2 0x329F JUMPI PUSH2 0x329E PUSH2 0x3183 JUMP JUMPDEST JUMPDEST DUP2 CALLDATALOAD PUSH2 0x32AF DUP5 DUP3 PUSH1 0x20 DUP7 ADD PUSH2 0x3248 JUMP JUMPDEST SWAP2 POP POP SWAP3 SWAP2 POP POP JUMP JUMPDEST PUSH1 0x0 DUP1 PUSH1 0x40 DUP4 DUP6 SUB SLT ISZERO PUSH2 0x32CF JUMPI PUSH2 0x32CE PUSH2 0x2C76 JUMP JUMPDEST JUMPDEST PUSH1 0x0 DUP4 ADD CALLDATALOAD PUSH8 0xFFFFFFFFFFFFFFFF DUP2 GT ISZERO PUSH2 0x32ED JUMPI PUSH2 0x32EC PUSH2 0x2C7B JUMP JUMPDEST JUMPDEST PUSH2 0x32F9 DUP6 DUP3 DUP7 ADD PUSH2 0x328A JUMP JUMPDEST SWAP3 POP POP PUSH1 0x20 PUSH2 0x330A DUP6 DUP3 DUP7 ADD PUSH2 0x2E17 JUMP JUMPDEST SWAP2 POP POP SWAP3 POP SWAP3 SWAP1 POP JUMP JUMPDEST PUSH2 0x331D DUP2 PUSH2 0x2D05 JUMP JUMPDEST DUP2 EQ PUSH2 0x3328 JUMPI PUSH1 0x0 DUP1 REVERT JUMPDEST POP JUMP JUMPDEST PUSH1 0x0 DUP2 CALLDATALOAD SWAP1 POP PUSH2 0x333A DUP2 PUSH2 0x3314 JUMP JUMPDEST SWAP3 SWAP2 POP POP JUMP JUMPDEST PUSH1 0x0 DUP1 PUSH1 0x40 DUP4 DUP6 SUB SLT ISZERO PUSH2 0x3357 JUMPI PUSH2 0x3356 PUSH2 0x2C76 JUMP JUMPDEST JUMPDEST PUSH1 0x0 PUSH2 0x3365 DUP6 DUP3 DUP7 ADD PUSH2 0x2ECC JUMP JUMPDEST SWAP3 POP POP PUSH1 0x20 PUSH2 0x3376 DUP6 DUP3 DUP7 ADD PUSH2 0x332B JUMP JUMPDEST SWAP2 POP POP SWAP3 POP SWAP3 SWAP1 POP JUMP JUMPDEST PUSH1 0x0 PUSH8 0xFFFFFFFFFFFFFFFF DUP3 GT ISZERO PUSH2 0x339B JUMPI PUSH2 0x339A PUSH2 0x318D JUMP JUMPDEST JUMPDEST PUSH2 0x33A4 DUP3 PUSH2 0x2D8A JUMP JUMPDEST SWAP1 POP PUSH1 0x20 DUP2 ADD SWAP1 POP SWAP2 SWAP1 POP JUMP JUMPDEST PUSH1 0x0 PUSH2 0x33C4 PUSH2 0x33BF DUP5 PUSH2 0x3380 JUMP JUMPDEST PUSH2 0x31ED JUMP JUMPDEST SWAP1 POP DUP3 DUP2 MSTORE PUSH1 0x20 DUP2 ADD DUP5 DUP5 DUP5 ADD GT ISZERO PUSH2 0x33E0 JUMPI PUSH2 0x33DF PUSH2 0x3188 JUMP JUMPDEST JUMPDEST PUSH2 0x33EB DUP5 DUP3 DUP6 PUSH2 0x3239 JUMP JUMPDEST POP SWAP4 SWAP3 POP POP POP JUMP JUMPDEST PUSH1 0x0 DUP3 PUSH1 0x1F DUP4 ADD SLT PUSH2 0x3408 JUMPI PUSH2 0x3407 PUSH2 0x3183 JUMP JUMPDEST JUMPDEST DUP2 CALLDATALOAD PUSH2 0x3418 DUP5 DUP3 PUSH1 0x20 DUP7 ADD PUSH2 0x33B1 JUMP JUMPDEST SWAP2 POP POP SWAP3 SWAP2 POP POP JUMP JUMPDEST PUSH1 0x0 DUP1 PUSH1 0x0 DUP1 PUSH1 0x80 DUP6 DUP8 SUB SLT ISZERO PUSH2 0x343B JUMPI PUSH2 0x343A PUSH2 0x2C76 JUMP JUMPDEST JUMPDEST PUSH1 0x0 PUSH2 0x3449 DUP8 DUP3 DUP9 ADD PUSH2 0x2ECC JUMP JUMPDEST SWAP5 POP POP PUSH1 0x20 PUSH2 0x345A DUP8 DUP3 DUP9 ADD PUSH2 0x2ECC JUMP JUMPDEST SWAP4 POP POP PUSH1 0x40 PUSH2 0x346B DUP8 DUP3 DUP9 ADD PUSH2 0x2E17 JUMP JUMPDEST SWAP3 POP POP PUSH1 0x60 DUP6 ADD CALLDATALOAD PUSH8 0xFFFFFFFFFFFFFFFF DUP2 GT ISZERO PUSH2 0x348C JUMPI PUSH2 0x348B PUSH2 0x2C7B JUMP JUMPDEST JUMPDEST PUSH2 0x3498 DUP8 DUP3 DUP9 ADD PUSH2 0x33F3 JUMP JUMPDEST SWAP2 POP POP SWAP3 SWAP6 SWAP2 SWAP5 POP SWAP3 POP JUMP JUMPDEST PUSH2 0x34AD DUP2 PUSH2 0x2F5C JUMP JUMPDEST DUP3 MSTORE POP POP JUMP JUMPDEST PUSH1 0x0 PUSH1 0xA0 DUP3 ADD SWAP1 POP PUSH2 0x34C8 PUSH1 0x0 DUP4 ADD DUP9 PUSH2 0x3099 JUMP JUMPDEST PUSH2 0x34D5 PUSH1 0x20 DUP4 ADD DUP8 PUSH2 0x34A4 JUMP JUMPDEST PUSH2 0x34E2 PUSH1 0x40 DUP4 ADD DUP7 PUSH2 0x34A4 JUMP JUMPDEST PUSH2 0x34EF PUSH1 0x60 DUP4 ADD DUP6 PUSH2 0x3099 JUMP JUMPDEST PUSH2 0x34FC PUSH1 0x80 DUP4 ADD DUP5 PUSH2 0x2D11 JUMP JUMPDEST SWAP7 SWAP6 POP POP POP POP POP POP JUMP JUMPDEST PUSH1 0x0 DUP1 PUSH1 0x40 DUP4 DUP6 SUB SLT ISZERO PUSH2 0x351D JUMPI PUSH2 0x351C PUSH2 0x2C76 JUMP JUMPDEST JUMPDEST PUSH1 0x0 PUSH2 0x352B DUP6 DUP3 DUP7 ADD PUSH2 0x2ECC JUMP JUMPDEST SWAP3 POP POP PUSH1 0x20 PUSH2 0x353C DUP6 DUP3 DUP7 ADD PUSH2 0x2ECC JUMP JUMPDEST SWAP2 POP POP SWAP3 POP SWAP3 SWAP1 POP JUMP JUMPDEST PUSH32 0x4E487B7100000000000000000000000000000000000000000000000000000000 PUSH1 0x0 MSTORE PUSH1 0x22 PUSH1 0x4 MSTORE PUSH1 0x24 PUSH1 0x0 REVERT JUMPDEST PUSH1 0x0 PUSH1 0x2 DUP3 DIV SWAP1 POP PUSH1 0x1 DUP3 AND DUP1 PUSH2 0x358D JUMPI PUSH1 0x7F DUP3 AND SWAP2 POP JUMPDEST PUSH1 0x20 DUP3 LT DUP2 EQ ISZERO PUSH2 0x35A1 JUMPI PUSH2 0x35A0 PUSH2 0x3546 JUMP JUMPDEST JUMPDEST POP SWAP2 SWAP1 POP JUMP JUMPDEST PUSH32 0x4552433732313A20617070726F76656420717565727920666F72206E6F6E6578 PUSH1 0x0 DUP3 ADD MSTORE PUSH32 0x697374656E7420746F6B656E0000000000000000000000000000000000000000 PUSH1 0x20 DUP3 ADD MSTORE POP JUMP JUMPDEST PUSH1 0x0 PUSH2 0x3603 PUSH1 0x2C DUP4 PUSH2 0x2D46 JUMP JUMPDEST SWAP2 POP PUSH2 0x360E DUP3 PUSH2 0x35A7 JUMP JUMPDEST PUSH1 0x40 DUP3 ADD SWAP1 POP SWAP2 SWAP1 POP JUMP JUMPDEST PUSH1 0x0 PUSH1 0x20 DUP3 ADD SWAP1 POP DUP2 DUP2 SUB PUSH1 0x0 DUP4 ADD MSTORE PUSH2 0x3632 DUP2 PUSH2 0x35F6 JUMP JUMPDEST SWAP1 POP SWAP2 SWAP1 POP JUMP JUMPDEST PUSH32 0x4552433732313A20617070726F76616C20746F2063757272656E74206F776E65 PUSH1 0x0 DUP3 ADD MSTORE PUSH32 0x7200000000000000000000000000000000000000000000000000000000000000 PUSH1 0x20 DUP3 ADD MSTORE POP JUMP JUMPDEST PUSH1 0x0 PUSH2 0x3695 PUSH1 0x21 DUP4 PUSH2 0x2D46 JUMP JUMPDEST SWAP2 POP PUSH2 0x36A0 DUP3 PUSH2 0x3639 JUMP JUMPDEST PUSH1 0x40 DUP3 ADD SWAP1 POP SWAP2 SWAP1 POP JUMP JUMPDEST PUSH1 0x0 PUSH1 0x20 DUP3 ADD SWAP1 POP DUP2 DUP2 SUB PUSH1 0x0 DUP4 ADD MSTORE PUSH2 0x36C4 DUP2 PUSH2 0x3688 JUMP JUMPDEST SWAP1 POP SWAP2 SWAP1 POP JUMP JUMPDEST PUSH32 0x4552433732313A20617070726F76652063616C6C6572206973206E6F74206F77 PUSH1 0x0 DUP3 ADD MSTORE PUSH32 0x6E6572206E6F7220617070726F76656420666F7220616C6C0000000000000000 PUSH1 0x20 DUP3 ADD MSTORE POP JUMP JUMPDEST PUSH1 0x0 PUSH2 0x3727 PUSH1 0x38 DUP4 PUSH2 0x2D46 JUMP JUMPDEST SWAP2 POP PUSH2 0x3732 DUP3 PUSH2 0x36CB JUMP JUMPDEST PUSH1 0x40 DUP3 ADD SWAP1 POP SWAP2 SWAP1 POP JUMP JUMPDEST PUSH1 0x0 PUSH1 0x20 DUP3 ADD SWAP1 POP DUP2 DUP2 SUB PUSH1 0x0 DUP4 ADD MSTORE PUSH2 0x3756 DUP2 PUSH2 0x371A JUMP JUMPDEST SWAP1 POP SWAP2 SWAP1 POP JUMP JUMPDEST PUSH32 0x4E487B7100000000000000000000000000000000000000000000000000000000 PUSH1 0x0 MSTORE PUSH1 0x11 PUSH1 0x4 MSTORE PUSH1 0x24 PUSH1 0x0 REVERT JUMPDEST PUSH1 0x0 PUSH2 0x3797 DUP3 PUSH2 0x2DF6 JUMP JUMPDEST SWAP2 POP PUSH2 0x37A2 DUP4 PUSH2 0x2DF6 JUMP JUMPDEST SWAP3 POP DUP3 DUP3 LT ISZERO PUSH2 0x37B5 JUMPI PUSH2 0x37B4 PUSH2 0x375D JUMP JUMPDEST JUMPDEST DUP3 DUP3 SUB SWAP1 POP SWAP3 SWAP2 POP POP JUMP JUMPDEST PUSH1 0x0 PUSH2 0x37CB DUP3 PUSH2 0x2DF6 JUMP JUMPDEST SWAP2 POP PUSH2 0x37D6 DUP4 PUSH2 0x2DF6 JUMP JUMPDEST SWAP3 POP DUP3 PUSH32 0xFFFFFFFFFFFFFFFFFFFFFFFFFFFFFFFFFFFFFFFFFFFFFFFFFFFFFFFFFFFFFFFF SUB DUP3 GT ISZERO PUSH2 0x380B JUMPI PUSH2 0x380A PUSH2 0x375D JUMP JUMPDEST JUMPDEST DUP3 DUP3 ADD SWAP1 POP SWAP3 SWAP2 POP POP JUMP JUMPDEST PUSH32 0x4E487B7100000000000000000000000000000000000000000000000000000000 PUSH1 0x0 MSTORE PUSH1 0x32 PUSH1 0x4 MSTORE PUSH1 0x24 PUSH1 0x0 REVERT JUMPDEST PUSH1 0x0 PUSH2 0x3850 DUP3 PUSH2 0x2DF6 JUMP JUMPDEST SWAP2 POP PUSH32 0xFFFFFFFFFFFFFFFFFFFFFFFFFFFFFFFFFFFFFFFFFFFFFFFFFFFFFFFFFFFFFFFF DUP3 EQ ISZERO PUSH2 0x3883 JUMPI PUSH2 0x3882 PUSH2 0x375D JUMP JUMPDEST JUMPDEST PUSH1 0x1 DUP3 ADD SWAP1 POP SWAP2 SWAP1 POP JUMP JUMPDEST PUSH32 0x4552433732313A207472616E736665722063616C6C6572206973206E6F74206F PUSH1 0x0 DUP3 ADD MSTORE PUSH32 0x776E6572206E6F7220617070726F766564000000000000000000000000000000 PUSH1 0x20 DUP3 ADD MSTORE POP JUMP JUMPDEST PUSH1 0x0 PUSH2 0x38EA PUSH1 0x31 DUP4 PUSH2 0x2D46 JUMP JUMPDEST SWAP2 POP PUSH2 0x38F5 DUP3 PUSH2 0x388E JUMP JUMPDEST PUSH1 0x40 DUP3 ADD SWAP1 POP SWAP2 SWAP1 POP JUMP JUMPDEST PUSH1 0x0 PUSH1 0x20 DUP3 ADD SWAP1 POP DUP2 DUP2 SUB PUSH1 0x0 DUP4 ADD MSTORE PUSH2 0x3919 DUP2 PUSH2 0x38DD JUMP JUMPDEST SWAP1 POP SWAP2 SWAP1 POP JUMP JUMPDEST PUSH32 0x5072696365206D757374206265206174206C6561737420312077656900000000 PUSH1 0x0 DUP3 ADD MSTORE POP JUMP JUMPDEST PUSH1 0x0 PUSH2 0x3956 PUSH1 0x1C DUP4 PUSH2 0x2D46 JUMP JUMPDEST SWAP2 POP PUSH2 0x3961 DUP3 PUSH2 0x3920 JUMP JUMPDEST PUSH1 0x20 DUP3 ADD SWAP1 POP SWAP2 SWAP1 POP JUMP JUMPDEST PUSH1 0x0 PUSH1 0x20 DUP3 ADD SWAP1 POP DUP2 DUP2 SUB PUSH1 0x0 DUP4 ADD MSTORE PUSH2 0x3985 DUP2 PUSH2 0x3949 JUMP JUMPDEST SWAP1 POP SWAP2 SWAP1 POP JUMP JUMPDEST PUSH32 0x5072696365206D75737420626520657175616C20746F206C697374696E672070 PUSH1 0x0 DUP3 ADD MSTORE PUSH32 0x7269636500000000000000000000000000000000000000000000000000000000 PUSH1 0x20 DUP3 ADD MSTORE POP JUMP JUMPDEST PUSH1 0x0 PUSH2 0x39E8 PUSH1 0x24 DUP4 PUSH2 0x2D46 JUMP JUMPDEST SWAP2 POP PUSH2 0x39F3 DUP3 PUSH2 0x398C JUMP JUMPDEST PUSH1 0x40 DUP3 ADD SWAP1 POP SWAP2 SWAP1 POP JUMP JUMPDEST PUSH1 0x0 PUSH1 0x20 DUP3 ADD SWAP1 POP DUP2 DUP2 SUB PUSH1 0x0 DUP4 ADD MSTORE PUSH2 0x3A17 DUP2 PUSH2 0x39DB JUMP JUMPDEST SWAP1 POP SWAP2 SWAP1 POP JUMP JUMPDEST PUSH1 0x0 PUSH1 0x80 DUP3 ADD SWAP1 POP PUSH2 0x3A33 PUSH1 0x0 DUP4 ADD DUP8 PUSH2 0x2E8B JUMP JUMPDEST PUSH2 0x3A40 PUSH1 0x20 DUP4 ADD DUP7 PUSH2 0x2E8B JUMP JUMPDEST PUSH2 0x3A4D PUSH1 0x40 DUP4 ADD DUP6 PUSH2 0x3099 JUMP JUMPDEST PUSH2 0x3A5A PUSH1 0x60 DUP4 ADD DUP5 PUSH2 0x2D11 JUMP JUMPDEST SWAP6 SWAP5 POP POP POP POP POP JUMP JUMPDEST PUSH32 0x4552433732313A206F776E657220717565727920666F72206E6F6E6578697374 PUSH1 0x0 DUP3 ADD MSTORE PUSH32 0x656E7420746F6B656E0000000000000000000000000000000000000000000000 PUSH1 0x20 DUP3 ADD MSTORE POP JUMP JUMPDEST PUSH1 0x0 PUSH2 0x3ABF PUSH1 0x29 DUP4 PUSH2 0x2D46 JUMP JUMPDEST SWAP2 POP PUSH2 0x3ACA DUP3 PUSH2 0x3A63 JUMP JUMPDEST PUSH1 0x40 DUP3 ADD SWAP1 POP SWAP2 SWAP1 POP JUMP JUMPDEST PUSH1 0x0 PUSH1 0x20 DUP3 ADD SWAP1 POP DUP2 DUP2 SUB PUSH1 0x0 DUP4 ADD MSTORE PUSH2 0x3AEE DUP2 PUSH2 0x3AB2 JUMP JUMPDEST SWAP1 POP SWAP2 SWAP1 POP JUMP JUMPDEST PUSH32 0x4552433732313A2062616C616E636520717565727920666F7220746865207A65 PUSH1 0x0 DUP3 ADD MSTORE PUSH32 0x726F206164647265737300000000000000000000000000000000000000000000 PUSH1 0x20 DUP3 ADD MSTORE POP JUMP JUMPDEST PUSH1 0x0 PUSH2 0x3B51 PUSH1 0x2A DUP4 PUSH2 0x2D46 JUMP JUMPDEST SWAP2 POP PUSH2 0x3B5C DUP3 PUSH2 0x3AF5 JUMP JUMPDEST PUSH1 0x40 DUP3 ADD SWAP1 POP SWAP2 SWAP1 POP JUMP JUMPDEST PUSH1 0x0 PUSH1 0x20 DUP3 ADD SWAP1 POP DUP2 DUP2 SUB PUSH1 0x0 DUP4 ADD MSTORE PUSH2 0x3B80 DUP2 PUSH2 0x3B44 JUMP JUMPDEST SWAP1 POP SWAP2 SWAP1 POP JUMP JUMPDEST PUSH32 0x4F6E6C79206D61726B6574706C616365206F776E65722063616E207570646174 PUSH1 0x0 DUP3 ADD MSTORE PUSH32 0x65206C697374696E672070726963652E00000000000000000000000000000000 PUSH1 0x20 DUP3 ADD MSTORE POP JUMP JUMPDEST PUSH1 0x0 PUSH2 0x3BE3 PUSH1 0x30 DUP4 PUSH2 0x2D46 JUMP JUMPDEST SWAP2 POP PUSH2 0x3BEE DUP3 PUSH2 0x3B87 JUMP JUMPDEST PUSH1 0x40 DUP3 ADD SWAP1 POP SWAP2 SWAP1 POP JUMP JUMPDEST PUSH1 0x0 PUSH1 0x20 DUP3 ADD SWAP1 POP DUP2 DUP2 SUB PUSH1 0x0 DUP4 ADD MSTORE PUSH2 0x3C12 DUP2 PUSH2 0x3BD6 JUMP JUMPDEST SWAP1 POP SWAP2 SWAP1 POP JUMP JUMPDEST PUSH32 0x506C65617365207375626D6974207468652061736B696E672070726963652069 PUSH1 0x0 DUP3 ADD MSTORE PUSH32 0x6E206F7264657220746F20636F6D706C65746520746865207075726368617365 PUSH1 0x20 DUP3 ADD MSTORE POP JUMP JUMPDEST PUSH1 0x0 PUSH2 0x3C75 PUSH1 0x40 DUP4 PUSH2 0x2D46 JUMP JUMPDEST SWAP2 POP PUSH2 0x3C80 DUP3 PUSH2 0x3C19 JUMP JUMPDEST PUSH1 0x40 DUP3 ADD SWAP1 POP SWAP2 SWAP1 POP JUMP JUMPDEST PUSH1 0x0 PUSH1 0x20 DUP3 ADD SWAP1 POP DUP2 DUP2 SUB PUSH1 0x0 DUP4 ADD MSTORE PUSH2 0x3CA4 DUP2 PUSH2 0x3C68 JUMP JUMPDEST SWAP1 POP SWAP2 SWAP1 POP JUMP JUMPDEST PUSH32 0x45524337323155524953746F726167653A2055524920717565727920666F7220 PUSH1 0x0 DUP3 ADD MSTORE PUSH32 0x6E6F6E6578697374656E7420746F6B656E000000000000000000000000000000 PUSH1 0x20 DUP3 ADD MSTORE POP JUMP JUMPDEST PUSH1 0x0 PUSH2 0x3D07 PUSH1 0x31 DUP4 PUSH2 0x2D46 JUMP JUMPDEST SWAP2 POP PUSH2 0x3D12 DUP3 PUSH2 0x3CAB JUMP JUMPDEST PUSH1 0x40 DUP3 ADD SWAP1 POP SWAP2 SWAP1 POP JUMP JUMPDEST PUSH1 0x0 PUSH1 0x20 DUP3 ADD SWAP1 POP DUP2 DUP2 SUB PUSH1 0x0 DUP4 ADD MSTORE PUSH2 0x3D36 DUP2 PUSH2 0x3CFA JUMP JUMPDEST SWAP1 POP SWAP2 SWAP1 POP JUMP JUMPDEST PUSH1 0x0 DUP2 SWAP1 POP SWAP3 SWAP2 POP POP JUMP JUMPDEST PUSH1 0x0 PUSH2 0x3D53 DUP3 PUSH2 0x2D3B JUMP JUMPDEST PUSH2 0x3D5D DUP2 DUP6 PUSH2 0x3D3D JUMP JUMPDEST SWAP4 POP PUSH2 0x3D6D DUP2 DUP6 PUSH1 0x20 DUP7 ADD PUSH2 0x2D57 JUMP JUMPDEST DUP1 DUP5 ADD SWAP2 POP POP SWAP3 SWAP2 POP POP JUMP JUMPDEST PUSH1 0x0 PUSH2 0x3D85 DUP3 DUP6 PUSH2 0x3D48 JUMP JUMPDEST SWAP2 POP PUSH2 0x3D91 DUP3 DUP5 PUSH2 0x3D48 JUMP JUMPDEST SWAP2 POP DUP2 SWAP1 POP SWAP4 SWAP3 POP POP POP JUMP JUMPDEST PUSH32 0x4F6E6C79206974656D206F776E65722063616E20706572666F726D2074686973 PUSH1 0x0 DUP3 ADD MSTORE PUSH32 0x206F7065726174696F6E00000000000000000000000000000000000000000000 PUSH1 0x20 DUP3 ADD MSTORE POP JUMP JUMPDEST PUSH1 0x0 PUSH2 0x3DF9 PUSH1 0x2A DUP4 PUSH2 0x2D46 JUMP JUMPDEST SWAP2 POP PUSH2 0x3E04 DUP3 PUSH2 0x3D9D JUMP JUMPDEST PUSH1 0x40 DUP3 ADD SWAP1 POP SWAP2 SWAP1 POP JUMP JUMPDEST PUSH1 0x0 PUSH1 0x20 DUP3 ADD SWAP1 POP DUP2 DUP2 SUB PUSH1 0x0 DUP4 ADD MSTORE PUSH2 0x3E28 DUP2 PUSH2 0x3DEC JUMP JUMPDEST SWAP1 POP SWAP2 SWAP1 POP JUMP JUMPDEST PUSH32 0x4552433732313A206F70657261746F7220717565727920666F72206E6F6E6578 PUSH1 0x0 DUP3 ADD MSTORE PUSH32 0x697374656E7420746F6B656E0000000000000000000000000000000000000000 PUSH1 0x20 DUP3 ADD MSTORE POP JUMP JUMPDEST PUSH1 0x0 PUSH2 0x3E8B PUSH1 0x2C DUP4 PUSH2 0x2D46 JUMP JUMPDEST SWAP2 POP PUSH2 0x3E96 DUP3 PUSH2 0x3E2F JUMP JUMPDEST PUSH1 0x40 DUP3 ADD SWAP1 POP SWAP2 SWAP1 POP JUMP JUMPDEST PUSH1 0x0 PUSH1 0x20 DUP3 ADD SWAP1 POP DUP2 DUP2 SUB PUSH1 0x0 DUP4 ADD MSTORE PUSH2 0x3EBA DUP2 PUSH2 0x3E7E JUMP JUMPDEST SWAP1 POP SWAP2 SWAP1 POP JUMP JUMPDEST PUSH32 0x4552433732313A207472616E736665722066726F6D20696E636F727265637420 PUSH1 0x0 DUP3 ADD MSTORE PUSH32 0x6F776E6572000000000000000000000000000000000000000000000000000000 PUSH1 0x20 DUP3 ADD MSTORE POP JUMP JUMPDEST PUSH1 0x0 PUSH2 0x3F1D PUSH1 0x25 DUP4 PUSH2 0x2D46 JUMP JUMPDEST SWAP2 POP PUSH2 0x3F28 DUP3 PUSH2 0x3EC1 JUMP JUMPDEST PUSH1 0x40 DUP3 ADD SWAP1 POP SWAP2 SWAP1 POP JUMP JUMPDEST PUSH1 0x0 PUSH1 0x20 DUP3 ADD SWAP1 POP DUP2 DUP2 SUB PUSH1 0x0 DUP4 ADD MSTORE PUSH2 0x3F4C DUP2 PUSH2 0x3F10 JUMP JUMPDEST SWAP1 POP SWAP2 SWAP1 POP JUMP JUMPDEST PUSH32 0x4552433732313A207472616E7366657220746F20746865207A65726F20616464 PUSH1 0x0 DUP3 ADD MSTORE PUSH32 0x7265737300000000000000000000000000000000000000000000000000000000 PUSH1 0x20 DUP3 ADD MSTORE POP JUMP JUMPDEST PUSH1 0x0 PUSH2 0x3FAF PUSH1 0x24 DUP4 PUSH2 0x2D46 JUMP JUMPDEST SWAP2 POP PUSH2 0x3FBA DUP3 PUSH2 0x3F53 JUMP JUMPDEST PUSH1 0x40 DUP3 ADD SWAP1 POP SWAP2 SWAP1 POP JUMP JUMPDEST PUSH1 0x0 PUSH1 0x20 DUP3 ADD SWAP1 POP DUP2 DUP2 SUB PUSH1 0x0 DUP4 ADD MSTORE PUSH2 0x3FDE DUP2 PUSH2 0x3FA2 JUMP JUMPDEST SWAP1 POP SWAP2 SWAP1 POP JUMP JUMPDEST PUSH32 0x4552433732313A206D696E7420746F20746865207A65726F2061646472657373 PUSH1 0x0 DUP3 ADD MSTORE POP JUMP JUMPDEST PUSH1 0x0 PUSH2 0x401B PUSH1 0x20 DUP4 PUSH2 0x2D46 JUMP JUMPDEST SWAP2 POP PUSH2 0x4026 DUP3 PUSH2 0x3FE5 JUMP JUMPDEST PUSH1 0x20 DUP3 ADD SWAP1 POP SWAP2 SWAP1 POP JUMP JUMPDEST PUSH1 0x0 PUSH1 0x20 DUP3 ADD SWAP1 POP DUP2 DUP2 SUB PUSH1 0x0 DUP4 ADD MSTORE PUSH2 0x404A DUP2 PUSH2 0x400E JUMP JUMPDEST SWAP1 POP SWAP2 SWAP1 POP JUMP JUMPDEST PUSH32 0x4552433732313A20746F6B656E20616C7265616479206D696E74656400000000 PUSH1 0x0 DUP3 ADD MSTORE POP JUMP JUMPDEST PUSH1 0x0 PUSH2 0x4087 PUSH1 0x1C DUP4 PUSH2 0x2D46 JUMP JUMPDEST SWAP2 POP PUSH2 0x4092 DUP3 PUSH2 0x4051 JUMP JUMPDEST PUSH1 0x20 DUP3 ADD SWAP1 POP SWAP2 SWAP1 POP JUMP JUMPDEST PUSH1 0x0 PUSH1 0x20 DUP3 ADD SWAP1 POP DUP2 DUP2 SUB PUSH1 0x0 DUP4 ADD MSTORE PUSH2 0x40B6 DUP2 PUSH2 0x407A JUMP JUMPDEST SWAP1 POP SWAP2 SWAP1 POP JUMP JUMPDEST PUSH32 0x45524337323155524953746F726167653A2055524920736574206F66206E6F6E PUSH1 0x0 DUP3 ADD MSTORE PUSH32 0x6578697374656E7420746F6B656E000000000000000000000000000000000000 PUSH1 0x20 DUP3 ADD MSTORE POP JUMP JUMPDEST PUSH1 0x0 PUSH2 0x4119 PUSH1 0x2E DUP4 PUSH2 0x2D46 JUMP JUMPDEST SWAP2 POP PUSH2 0x4124 DUP3 PUSH2 0x40BD JUMP JUMPDEST PUSH1 0x40 DUP3 ADD SWAP1 POP SWAP2 SWAP1 POP JUMP JUMPDEST PUSH1 0x0 PUSH1 0x20 DUP3 ADD SWAP1 POP DUP2 DUP2 SUB PUSH1 0x0 DUP4 ADD MSTORE PUSH2 0x4148 DUP2 PUSH2 0x410C JUMP JUMPDEST SWAP1 POP SWAP2 SWAP1 POP JUMP JUMPDEST PUSH32 0x4552433732313A20617070726F766520746F2063616C6C657200000000000000 PUSH1 0x0 DUP3 ADD MSTORE POP JUMP JUMPDEST PUSH1 0x0 PUSH2 0x4185 PUSH1 0x19 DUP4 PUSH2 0x2D46 JUMP JUMPDEST SWAP2 POP PUSH2 0x4190 DUP3 PUSH2 0x414F JUMP JUMPDEST PUSH1 0x20 DUP3 ADD SWAP1 POP SWAP2 SWAP1 POP JUMP JUMPDEST PUSH1 0x0 PUSH1 0x20 DUP3 ADD SWAP1 POP DUP2 DUP2 SUB PUSH1 0x0 DUP4 ADD MSTORE PUSH2 0x41B4 DUP2 PUSH2 0x4178 JUMP JUMPDEST SWAP1 POP SWAP2 SWAP1 POP JUMP JUMPDEST PUSH32 0x4552433732313A207472616E7366657220746F206E6F6E204552433732315265 PUSH1 0x0 DUP3 ADD MSTORE PUSH32 0x63656976657220696D706C656D656E7465720000000000000000000000000000 PUSH1 0x20 DUP3 ADD MSTORE POP JUMP JUMPDEST PUSH1 0x0 PUSH2 0x4217 PUSH1 0x32 DUP4 PUSH2 0x2D46 JUMP JUMPDEST SWAP2 POP PUSH2 0x4222 DUP3 PUSH2 0x41BB JUMP JUMPDEST PUSH1 0x40 DUP3 ADD SWAP1 POP SWAP2 SWAP1 POP JUMP JUMPDEST PUSH1 0x0 PUSH1 0x20 DUP3 ADD SWAP1 POP DUP2 DUP2 SUB PUSH1 0x0 DUP4 ADD MSTORE PUSH2 0x4246 DUP2 PUSH2 0x420A JUMP JUMPDEST SWAP1 POP SWAP2 SWAP1 POP JUMP JUMPDEST PUSH32 0x4552433732314D657461646174613A2055524920717565727920666F72206E6F PUSH1 0x0 DUP3 ADD MSTORE PUSH32 0x6E6578697374656E7420746F6B656E0000000000000000000000000000000000 PUSH1 0x20 DUP3 ADD MSTORE POP JUMP JUMPDEST PUSH1 0x0 PUSH2 0x42A9 PUSH1 0x2F DUP4 PUSH2 0x2D46 JUMP JUMPDEST SWAP2 POP PUSH2 0x42B4 DUP3 PUSH2 0x424D JUMP JUMPDEST PUSH1 0x40 DUP3 ADD SWAP1 POP SWAP2 SWAP1 POP JUMP JUMPDEST PUSH1 0x0 PUSH1 0x20 DUP3 ADD SWAP1 POP DUP2 DUP2 SUB PUSH1 0x0 DUP4 ADD MSTORE PUSH2 0x42D8 DUP2 PUSH2 0x429C JUMP JUMPDEST SWAP1 POP SWAP2 SWAP1 POP JUMP JUMPDEST PUSH32 0x436F756E7465723A2064656372656D656E74206F766572666C6F770000000000 PUSH1 0x0 DUP3 ADD MSTORE POP JUMP JUMPDEST PUSH1 0x0 PUSH2 0x4315 PUSH1 0x1B DUP4 PUSH2 0x2D46 JUMP JUMPDEST SWAP2 POP PUSH2 0x4320 DUP3 PUSH2 0x42DF JUMP JUMPDEST PUSH1 0x20 DUP3 ADD SWAP1 POP SWAP2 SWAP1 POP JUMP JUMPDEST PUSH1 0x0 PUSH1 0x20 DUP3 ADD SWAP1 POP DUP2 DUP2 SUB PUSH1 0x0 DUP4 ADD MSTORE PUSH2 0x4344 DUP2 PUSH2 0x4308 JUMP JUMPDEST SWAP1 POP SWAP2 SWAP1 POP JUMP JUMPDEST PUSH1 0x0 DUP2 MLOAD SWAP1 POP SWAP2 SWAP1 POP JUMP JUMPDEST PUSH1 0x0 DUP3 DUP3 MSTORE PUSH1 0x20 DUP3 ADD SWAP1 POP SWAP3 SWAP2 POP POP JUMP JUMPDEST PUSH1 0x0 PUSH2 0x4372 DUP3 PUSH2 0x434B JUMP JUMPDEST PUSH2 0x437C DUP2 DUP6 PUSH2 0x4356 JUMP JUMPDEST SWAP4 POP PUSH2 0x438C DUP2 DUP6 PUSH1 0x20 DUP7 ADD PUSH2 0x2D57 JUMP JUMPDEST PUSH2 0x4395 DUP2 PUSH2 0x2D8A JUMP JUMPDEST DUP5 ADD SWAP2 POP POP SWAP3 SWAP2 POP POP JUMP JUMPDEST PUSH1 0x0 PUSH1 0x80 DUP3 ADD SWAP1 POP PUSH2 0x43B5 PUSH1 0x0 DUP4 ADD DUP8 PUSH2 0x2E8B JUMP JUMPDEST PUSH2 0x43C2 PUSH1 0x20 DUP4 ADD DUP7 PUSH2 0x2E8B JUMP JUMPDEST PUSH2 0x43CF PUSH1 0x40 DUP4 ADD DUP6 PUSH2 0x3099 JUMP JUMPDEST DUP2 DUP2 SUB PUSH1 0x60 DUP4 ADD MSTORE PUSH2 0x43E1 DUP2 DUP5 PUSH2 0x4367 JUMP JUMPDEST SWAP1 POP SWAP6 SWAP5 POP POP POP POP POP JUMP JUMPDEST PUSH1 0x0 DUP2 MLOAD SWAP1 POP PUSH2 0x43FB DUP2 PUSH2 0x2CAC JUMP JUMPDEST SWAP3 SWAP2 POP POP JUMP JUMPDEST PUSH1 0x0 PUSH1 0x20 DUP3 DUP5 SUB SLT ISZERO PUSH2 0x4417 JUMPI PUSH2 0x4416 PUSH2 0x2C76 JUMP JUMPDEST JUMPDEST PUSH1 0x0 PUSH2 0x4425 DUP5 DUP3 DUP6 ADD PUSH2 0x43EC JUMP JUMPDEST SWAP2 POP POP SWAP3 SWAP2 POP POP JUMP JUMPDEST PUSH32 0x4E487B7100000000000000000000000000000000000000000000000000000000 PUSH1 0x0 MSTORE PUSH1 0x12 PUSH1 0x4 MSTORE PUSH1 0x24 PUSH1 0x0 REVERT JUMPDEST PUSH1 0x0 PUSH2 0x4468 DUP3 PUSH2 0x2DF6 JUMP JUMPDEST SWAP2 POP PUSH2 0x4473 DUP4 PUSH2 0x2DF6 JUMP JUMPDEST SWAP3 POP DUP3 PUSH2 0x4483 JUMPI PUSH2 0x4482 PUSH2 0x442E JUMP JUMPDEST JUMPDEST DUP3 DUP3 DIV SWAP1 POP SWAP3 SWAP2 POP POP JUMP JUMPDEST PUSH1 0x0 PUSH2 0x4499 DUP3 PUSH2 0x2DF6 JUMP JUMPDEST SWAP2 POP PUSH2 0x44A4 DUP4 PUSH2 0x2DF6 JUMP JUMPDEST SWAP3 POP DUP3 PUSH2 0x44B4 JUMPI PUSH2 0x44B3 PUSH2 0x442E JUMP JUMPDEST JUMPDEST DUP3 DUP3 MOD SWAP1 POP SWAP3 SWAP2 POP POP JUMP INVALID LOG2 PUSH5 0x6970667358 0x22 SLT KECCAK256 DUP6 DUP5 ADDRESS PUSH20 0xC7C75F020FB14A43E5F69F2C82114DB250DFAB3D 0xC5 0x23 0x1E 0xD 0xD6 0xEA 0xC3 0xD0 PUSH5 0x736F6C6343 STOP ADDMOD 0xC STOP CALLER "
		},
		"gasEstimates": {
			"creation": {
				"codeDepositCost": "3530600",
				"executionCost": "infinite",
				"totalCost": "infinite"
			},
			"external": {
				"_itemsSold()": "2510",
				"_tokenIds()": "2576",
				"approve(address,uint256)": "infinite",
				"approveForAuction(uint256)": "29127",
				"balanceOf(address)": "2902",
				"createMarketItem(uint256,uint256)": "infinite",
				"createMarketSale(uint256)": "infinite",
				"createToken(string,uint256)": "infinite",
				"fetchItemsListed()": "infinite",
				"fetchMarketItems()": "infinite",
				"fetchMyNFTs()": "infinite",
				"getApproved(uint256)": "5228",
				"getListingPrice()": "2571",
				"idToMarketItem(uint256)": "infinite",
				"isApprovedForAll(address,address)": "infinite",
				"name()": "infinite",
				"ownerOf(uint256)": "3066",
				"resellToken(uint256,uint256)": "infinite",
				"safeTransferFrom(address,address,uint256)": "infinite",
				"safeTransferFrom(address,address,uint256,bytes)": "infinite",
				"setApprovalForAll(address,bool)": "infinite",
				"supportsInterface(bytes4)": "797",
				"symbol()": "infinite",
				"tokenURI(uint256)": "infinite",
				"transferFrom(address,address,uint256)": "infinite",
				"updateListingPrice(uint256)": "24711"
			}
		},
		"methodIdentifiers": {
			"_itemsSold()": "87506a0d",
			"_tokenIds()": "aa46a400",
			"approve(address,uint256)": "095ea7b3",
			"approveForAuction(uint256)": "64a748a3",
			"balanceOf(address)": "70a08231",
			"createMarketItem(uint256,uint256)": "361c1995",
			"createMarketSale(uint256)": "be9af536",
			"createToken(string,uint256)": "72b3b620",
			"fetchItemsListed()": "45f8fa80",
			"fetchMarketItems()": "0f08efe0",
			"fetchMyNFTs()": "202e3740",
			"getApproved(uint256)": "081812fc",
			"getListingPrice()": "12e85585",
			"idToMarketItem(uint256)": "e61a70c0",
			"isApprovedForAll(address,address)": "e985e9c5",
			"name()": "06fdde03",
			"ownerOf(uint256)": "6352211e",
			"resellToken(uint256,uint256)": "e219fc75",
			"safeTransferFrom(address,address,uint256)": "42842e0e",
			"safeTransferFrom(address,address,uint256,bytes)": "b88d4fde",
			"setApprovalForAll(address,bool)": "a22cb465",
			"supportsInterface(bytes4)": "01ffc9a7",
			"symbol()": "95d89b41",
			"tokenURI(uint256)": "c87b56dd",
			"transferFrom(address,address,uint256)": "23b872dd",
			"updateListingPrice(uint256)": "ae677aa3"
		}
	},
	"abi": [
		{
			"inputs": [],
			"stateMutability": "nonpayable",
			"type": "constructor"
		},
		{
			"anonymous": false,
			"inputs": [
				{
					"indexed": true,
					"internalType": "address",
					"name": "owner",
					"type": "address"
				},
				{
					"indexed": true,
					"internalType": "address",
					"name": "approved",
					"type": "address"
				},
				{
					"indexed": true,
					"internalType": "uint256",
					"name": "tokenId",
					"type": "uint256"
				}
			],
			"name": "Approval",
			"type": "event"
		},
		{
			"anonymous": false,
			"inputs": [
				{
					"indexed": true,
					"internalType": "address",
					"name": "owner",
					"type": "address"
				},
				{
					"indexed": true,
					"internalType": "address",
					"name": "operator",
					"type": "address"
				},
				{
					"indexed": false,
					"internalType": "bool",
					"name": "approved",
					"type": "bool"
				}
			],
			"name": "ApprovalForAll",
			"type": "event"
		},
		{
			"anonymous": false,
			"inputs": [
				{
					"indexed": true,
					"internalType": "uint256",
					"name": "tokenId",
					"type": "uint256"
				},
				{
					"indexed": false,
					"internalType": "address",
					"name": "seller",
					"type": "address"
				},
				{
					"indexed": false,
					"internalType": "address",
					"name": "owner",
					"type": "address"
				},
				{
					"indexed": false,
					"internalType": "uint256",
					"name": "price",
					"type": "uint256"
				},
				{
					"indexed": false,
					"internalType": "bool",
					"name": "sold",
					"type": "bool"
				}
			],
			"name": "MarketItemCreated",
			"type": "event"
		},
		{
			"anonymous": false,
			"inputs": [
				{
					"indexed": true,
					"internalType": "address",
					"name": "from",
					"type": "address"
				},
				{
					"indexed": true,
					"internalType": "address",
					"name": "to",
					"type": "address"
				},
				{
					"indexed": true,
					"internalType": "uint256",
					"name": "tokenId",
					"type": "uint256"
				}
			],
			"name": "Transfer",
			"type": "event"
		},
		{
			"inputs": [],
			"name": "_itemsSold",
			"outputs": [
				{
					"internalType": "uint256",
					"name": "_value",
					"type": "uint256"
				}
			],
			"stateMutability": "view",
			"type": "function"
		},
		{
			"inputs": [],
			"name": "_tokenIds",
			"outputs": [
				{
					"internalType": "uint256",
					"name": "_value",
					"type": "uint256"
				}
			],
			"stateMutability": "view",
			"type": "function"
		},
		{
			"inputs": [
				{
					"internalType": "address",
					"name": "to",
					"type": "address"
				},
				{
					"internalType": "uint256",
					"name": "tokenId",
					"type": "uint256"
				}
			],
			"name": "approve",
			"outputs": [],
			"stateMutability": "nonpayable",
			"type": "function"
		},
		{
			"inputs": [
				{
					"internalType": "uint256",
					"name": "tokenId",
					"type": "uint256"
				}
			],
			"name": "approveForAuction",
			"outputs": [],
			"stateMutability": "nonpayable",
			"type": "function"
		},
		{
			"inputs": [
				{
					"internalType": "address",
					"name": "owner",
					"type": "address"
				}
			],
			"name": "balanceOf",
			"outputs": [
				{
					"internalType": "uint256",
					"name": "",
					"type": "uint256"
				}
			],
			"stateMutability": "view",
			"type": "function"
		},
		{
			"inputs": [
				{
					"internalType": "uint256",
					"name": "tokenId",
					"type": "uint256"
				},
				{
					"internalType": "uint256",
					"name": "price",
					"type": "uint256"
				}
			],
			"name": "createMarketItem",
			"outputs": [],
			"stateMutability": "payable",
			"type": "function"
		},
		{
			"inputs": [
				{
					"internalType": "uint256",
					"name": "tokenId",
					"type": "uint256"
				}
			],
			"name": "createMarketSale",
			"outputs": [],
			"stateMutability": "payable",
			"type": "function"
		},
		{
			"inputs": [
				{
					"internalType": "string",
					"name": "tokenURI",
					"type": "string"
				},
				{
					"internalType": "uint256",
					"name": "price",
					"type": "uint256"
				}
			],
			"name": "createToken",
			"outputs": [
				{
					"internalType": "uint256",
					"name": "",
					"type": "uint256"
				}
			],
			"stateMutability": "payable",
			"type": "function"
		},
		{
			"inputs": [],
			"name": "fetchItemsListed",
			"outputs": [
				{
					"components": [
						{
							"internalType": "uint256",
							"name": "tokenId",
							"type": "uint256"
						},
						{
							"internalType": "address payable",
							"name": "seller",
							"type": "address"
						},
						{
							"internalType": "address payable",
							"name": "owner",
							"type": "address"
						},
						{
							"internalType": "uint256",
							"name": "price",
							"type": "uint256"
						},
						{
							"internalType": "bool",
							"name": "sold",
							"type": "bool"
						}
					],
					"internalType": "struct NFTMarketplace.MarketItem[]",
					"name": "",
					"type": "tuple[]"
				}
			],
			"stateMutability": "view",
			"type": "function"
		},
		{
			"inputs": [],
			"name": "fetchMarketItems",
			"outputs": [
				{
					"components": [
						{
							"internalType": "uint256",
							"name": "tokenId",
							"type": "uint256"
						},
						{
							"internalType": "address payable",
							"name": "seller",
							"type": "address"
						},
						{
							"internalType": "address payable",
							"name": "owner",
							"type": "address"
						},
						{
							"internalType": "uint256",
							"name": "price",
							"type": "uint256"
						},
						{
							"internalType": "bool",
							"name": "sold",
							"type": "bool"
						}
					],
					"internalType": "struct NFTMarketplace.MarketItem[]",
					"name": "",
					"type": "tuple[]"
				}
			],
			"stateMutability": "view",
			"type": "function"
		},
		{
			"inputs": [],
			"name": "fetchMyNFTs",
			"outputs": [
				{
					"components": [
						{
							"internalType": "uint256",
							"name": "tokenId",
							"type": "uint256"
						},
						{
							"internalType": "address payable",
							"name": "seller",
							"type": "address"
						},
						{
							"internalType": "address payable",
							"name": "owner",
							"type": "address"
						},
						{
							"internalType": "uint256",
							"name": "price",
							"type": "uint256"
						},
						{
							"internalType": "bool",
							"name": "sold",
							"type": "bool"
						}
					],
					"internalType": "struct NFTMarketplace.MarketItem[]",
					"name": "",
					"type": "tuple[]"
				}
			],
			"stateMutability": "view",
			"type": "function"
		},
		{
			"inputs": [
				{
					"internalType": "uint256",
					"name": "tokenId",
					"type": "uint256"
				}
			],
			"name": "getApproved",
			"outputs": [
				{
					"internalType": "address",
					"name": "",
					"type": "address"
				}
			],
			"stateMutability": "view",
			"type": "function"
		},
		{
			"inputs": [],
			"name": "getListingPrice",
			"outputs": [
				{
					"internalType": "uint256",
					"name": "",
					"type": "uint256"
				}
			],
			"stateMutability": "view",
			"type": "function"
		},
		{
			"inputs": [
				{
					"internalType": "uint256",
					"name": "",
					"type": "uint256"
				}
			],
			"name": "idToMarketItem",
			"outputs": [
				{
					"internalType": "uint256",
					"name": "tokenId",
					"type": "uint256"
				},
				{
					"internalType": "address payable",
					"name": "seller",
					"type": "address"
				},
				{
					"internalType": "address payable",
					"name": "owner",
					"type": "address"
				},
				{
					"internalType": "uint256",
					"name": "price",
					"type": "uint256"
				},
				{
					"internalType": "bool",
					"name": "sold",
					"type": "bool"
				}
			],
			"stateMutability": "view",
			"type": "function"
		},
		{
			"inputs": [
				{
					"internalType": "address",
					"name": "owner",
					"type": "address"
				},
				{
					"internalType": "address",
					"name": "operator",
					"type": "address"
				}
			],
			"name": "isApprovedForAll",
			"outputs": [
				{
					"internalType": "bool",
					"name": "",
					"type": "bool"
				}
			],
			"stateMutability": "view",
			"type": "function"
		},
		{
			"inputs": [],
			"name": "name",
			"outputs": [
				{
					"internalType": "string",
					"name": "",
					"type": "string"
				}
			],
			"stateMutability": "view",
			"type": "function"
		},
		{
			"inputs": [
				{
					"internalType": "uint256",
					"name": "tokenId",
					"type": "uint256"
				}
			],
			"name": "ownerOf",
			"outputs": [
				{
					"internalType": "address",
					"name": "",
					"type": "address"
				}
			],
			"stateMutability": "view",
			"type": "function"
		},
		{
			"inputs": [
				{
					"internalType": "uint256",
					"name": "tokenId",
					"type": "uint256"
				},
				{
					"internalType": "uint256",
					"name": "price",
					"type": "uint256"
				}
			],
			"name": "resellToken",
			"outputs": [],
			"stateMutability": "payable",
			"type": "function"
		},
		{
			"inputs": [
				{
					"internalType": "address",
					"name": "from",
					"type": "address"
				},
				{
					"internalType": "address",
					"name": "to",
					"type": "address"
				},
				{
					"internalType": "uint256",
					"name": "tokenId",
					"type": "uint256"
				}
			],
			"name": "safeTransferFrom",
			"outputs": [],
			"stateMutability": "nonpayable",
			"type": "function"
		},
		{
			"inputs": [
				{
					"internalType": "address",
					"name": "from",
					"type": "address"
				},
				{
					"internalType": "address",
					"name": "to",
					"type": "address"
				},
				{
					"internalType": "uint256",
					"name": "tokenId",
					"type": "uint256"
				},
				{
					"internalType": "bytes",
					"name": "_data",
					"type": "bytes"
				}
			],
			"name": "safeTransferFrom",
			"outputs": [],
			"stateMutability": "nonpayable",
			"type": "function"
		},
		{
			"inputs": [
				{
					"internalType": "address",
					"name": "operator",
					"type": "address"
				},
				{
					"internalType": "bool",
					"name": "approved",
					"type": "bool"
				}
			],
			"name": "setApprovalForAll",
			"outputs": [],
			"stateMutability": "nonpayable",
			"type": "function"
		},
		{
			"inputs": [
				{
					"internalType": "bytes4",
					"name": "interfaceId",
					"type": "bytes4"
				}
			],
			"name": "supportsInterface",
			"outputs": [
				{
					"internalType": "bool",
					"name": "",
					"type": "bool"
				}
			],
			"stateMutability": "view",
			"type": "function"
		},
		{
			"inputs": [],
			"name": "symbol",
			"outputs": [
				{
					"internalType": "string",
					"name": "",
					"type": "string"
				}
			],
			"stateMutability": "view",
			"type": "function"
		},
		{
			"inputs": [
				{
					"internalType": "uint256",
					"name": "tokenId",
					"type": "uint256"
				}
			],
			"name": "tokenURI",
			"outputs": [
				{
					"internalType": "string",
					"name": "",
					"type": "string"
				}
			],
			"stateMutability": "view",
			"type": "function"
		},
		{
			"inputs": [
				{
					"internalType": "address",
					"name": "from",
					"type": "address"
				},
				{
					"internalType": "address",
					"name": "to",
					"type": "address"
				},
				{
					"internalType": "uint256",
					"name": "tokenId",
					"type": "uint256"
				}
			],
			"name": "transferFrom",
			"outputs": [],
			"stateMutability": "nonpayable",
			"type": "function"
		},
		{
			"inputs": [
				{
					"internalType": "uint256",
					"name": "_listingPrice",
					"type": "uint256"
				}
			],
			"name": "updateListingPrice",
			"outputs": [],
			"stateMutability": "payable",
			"type": "function"
		}
	]
}