{
	"contracts/FundMe.sol": {
		"FundMe": {
			"abi": [
				{
					"inputs": [],
					"stateMutability": "nonpayable",
					"type": "constructor"
				},
				{
					"inputs": [],
					"name": "Fund",
					"outputs": [],
					"stateMutability": "payable",
					"type": "function"
				},
				{
					"inputs": [],
					"name": "MINIMUM_USD",
					"outputs": [
						{
							"internalType": "uint256",
							"name": "",
							"type": "uint256"
						}
					],
					"stateMutability": "view",
					"type": "function"
				},
				{
					"inputs": [
						{
							"internalType": "address",
							"name": "",
							"type": "address"
						}
					],
					"name": "addressToAmountFunded",
					"outputs": [
						{
							"internalType": "uint256",
							"name": "",
							"type": "uint256"
						}
					],
					"stateMutability": "view",
					"type": "function"
				},
				{
					"inputs": [
						{
							"internalType": "uint256",
							"name": "",
							"type": "uint256"
						}
					],
					"name": "funders",
					"outputs": [
						{
							"internalType": "address",
							"name": "",
							"type": "address"
						}
					],
					"stateMutability": "view",
					"type": "function"
				},
				{
					"inputs": [],
					"name": "withdraw",
					"outputs": [],
					"stateMutability": "payable",
					"type": "function"
				}
			],
			"devdoc": {
				"kind": "dev",
				"methods": {},
				"version": 1
			},
			"evm": {
				"assembly": "    /* \"contracts/FundMe.sol\":89:1028  contract FundMe{... */\n  mstore(0x40, 0xa0)\n    /* \"contracts/FundMe.sol\":331:381  constructor(){... */\n  callvalue\n  dup1\n  iszero\n  tag_1\n  jumpi\n  0x00\n  dup1\n  revert\ntag_1:\n  pop\n    /* \"contracts/FundMe.sol\":364:374  msg.sender */\n  caller\n    /* \"contracts/FundMe.sol\":354:374  i_owner = msg.sender */\n  0xffffffffffffffffffffffffffffffffffffffff\n  and\n  0x80\n  dup2\n  0xffffffffffffffffffffffffffffffffffffffff\n  and\n  0x60\n  shl\n  dup2\n  mstore\n  pop\n  pop\n    /* \"contracts/FundMe.sol\":89:1028  contract FundMe{... */\n  shr(0x60, mload(0x80))\n  codecopy(0x00, dataOffset(sub_0), dataSize(sub_0))\n  0x00\n  assignImmutable(\"0xbbd48b257be1b8216d144ef9be5734f8d11697959c9e0f7768bec89db74a63a3\")\n  return(0x00, dataSize(sub_0))\nstop\n\nsub_0: assembly {\n        /* \"contracts/FundMe.sol\":89:1028  contract FundMe{... */\n      mstore(0x40, 0x80)\n      jumpi(tag_1, lt(calldatasize, 0x04))\n      shr(0xe0, calldataload(0x00))\n      dup1\n      0x3ccfd60b\n      eq\n      tag_2\n      jumpi\n      dup1\n      0x3e47d6f3\n      eq\n      tag_3\n      jumpi\n      dup1\n      0x6b69a592\n      eq\n      tag_4\n      jumpi\n      dup1\n      0x6ce1417e\n      eq\n      tag_5\n      jumpi\n      dup1\n      0xdc0d3dff\n      eq\n      tag_6\n      jumpi\n    tag_1:\n      0x00\n      dup1\n      revert\n        /* \"contracts/FundMe.sol\":611:1026  function withdraw() payable public {... */\n    tag_2:\n      tag_7\n      tag_8\n      jump\t// in\n    tag_7:\n      stop\n        /* \"contracts/FundMe.sol\":215:271  mapping(address => uint256) public addressToAmountFunded */\n    tag_3:\n      callvalue\n      dup1\n      iszero\n      tag_9\n      jumpi\n      0x00\n      dup1\n      revert\n    tag_9:\n      pop\n      tag_10\n      0x04\n      dup1\n      calldatasize\n      sub\n      dup2\n      add\n      swap1\n      tag_11\n      swap2\n      swap1\n      tag_12\n      jump\t// in\n    tag_11:\n      tag_13\n      jump\t// in\n    tag_10:\n      mload(0x40)\n      tag_14\n      swap2\n      swap1\n      tag_15\n      jump\t// in\n    tag_14:\n      mload(0x40)\n      dup1\n      swap2\n      sub\n      swap1\n      return\n        /* \"contracts/FundMe.sol\":277:324  uint256 constant public MINIMUM_USD = 50*10**18 */\n    tag_4:\n      callvalue\n      dup1\n      iszero\n      tag_16\n      jumpi\n      0x00\n      dup1\n      revert\n    tag_16:\n      pop\n      tag_17\n      tag_18\n      jump\t// in\n    tag_17:\n      mload(0x40)\n      tag_19\n      swap2\n      swap1\n      tag_15\n      jump\t// in\n    tag_19:\n      mload(0x40)\n      dup1\n      swap2\n      sub\n      swap1\n      return\n        /* \"contracts/FundMe.sol\":387:605  function Fund() payable public{... */\n    tag_5:\n      tag_20\n      tag_21\n      jump\t// in\n    tag_20:\n      stop\n        /* \"contracts/FundMe.sol\":185:209  address[] public funders */\n    tag_6:\n      callvalue\n      dup1\n      iszero\n      tag_22\n      jumpi\n      0x00\n      dup1\n      revert\n    tag_22:\n      pop\n      tag_23\n      0x04\n      dup1\n      calldatasize\n      sub\n      dup2\n      add\n      swap1\n      tag_24\n      swap2\n      swap1\n      tag_25\n      jump\t// in\n    tag_24:\n      tag_26\n      jump\t// in\n    tag_23:\n      mload(0x40)\n      tag_27\n      swap2\n      swap1\n      tag_28\n      jump\t// in\n    tag_27:\n      mload(0x40)\n      dup1\n      swap2\n      sub\n      swap1\n      return\n        /* \"contracts/FundMe.sol\":611:1026  function withdraw() payable public {... */\n    tag_8:\n        /* \"contracts/FundMe.sol\":678:685  i_owner */\n      immutable(\"0xbbd48b257be1b8216d144ef9be5734f8d11697959c9e0f7768bec89db74a63a3\")\n        /* \"contracts/FundMe.sol\":664:685  msg.sender == i_owner */\n      0xffffffffffffffffffffffffffffffffffffffff\n      and\n        /* \"contracts/FundMe.sol\":664:674  msg.sender */\n      caller\n        /* \"contracts/FundMe.sol\":664:685  msg.sender == i_owner */\n      0xffffffffffffffffffffffffffffffffffffffff\n      and\n      eq\n        /* \"contracts/FundMe.sol\":656:686  require(msg.sender == i_owner) */\n      tag_30\n      jumpi\n      0x00\n      dup1\n      revert\n    tag_30:\n        /* \"contracts/FundMe.sol\":721:722  0 */\n      0x00\n        /* \"contracts/FundMe.sol\":707:723  new address[](0) */\n      0xffffffffffffffff\n      dup2\n      gt\n      iszero\n      tag_31\n      jumpi\n      tag_32\n      tag_33\n      jump\t// in\n    tag_32:\n    tag_31:\n      mload(0x40)\n      swap1\n      dup1\n      dup3\n      mstore\n      dup1\n      0x20\n      mul\n      0x20\n      add\n      dup3\n      add\n      0x40\n      mstore\n      dup1\n      iszero\n      tag_34\n      jumpi\n      dup2\n      0x20\n      add\n      0x20\n      dup3\n      mul\n      dup1\n      calldatasize\n      dup4\n      calldatacopy\n      dup1\n      dup3\n      add\n      swap2\n      pop\n      pop\n      swap1\n      pop\n    tag_34:\n      pop\n        /* \"contracts/FundMe.sol\":697:704  funders */\n      0x00\n        /* \"contracts/FundMe.sol\":697:723  funders = new address[](0) */\n      swap1\n      dup1\n      mload\n      swap1\n      0x20\n      add\n      swap1\n      tag_35\n      swap3\n      swap2\n      swap1\n      tag_36\n      jump\t// in\n    tag_35:\n      pop\n        /* \"contracts/FundMe.sol\":737:750  uint256 index */\n      0x00\n        /* \"contracts/FundMe.sol\":733:891  for(uint256 index = 0; index < funders.length; index++){... */\n    tag_37:\n        /* \"contracts/FundMe.sol\":764:771  funders */\n      0x00\n        /* \"contracts/FundMe.sol\":764:778  funders.length */\n      dup1\n      sload\n      swap1\n      pop\n        /* \"contracts/FundMe.sol\":756:761  index */\n      dup2\n        /* \"contracts/FundMe.sol\":756:778  index < funders.length */\n      lt\n        /* \"contracts/FundMe.sol\":733:891  for(uint256 index = 0; index < funders.length; index++){... */\n      iszero\n      tag_38\n      jumpi\n        /* \"contracts/FundMe.sol\":802:816  address funder */\n      0x00\n        /* \"contracts/FundMe.sol\":819:826  funders */\n      dup1\n        /* \"contracts/FundMe.sol\":827:832  index */\n      dup3\n        /* \"contracts/FundMe.sol\":819:833  funders[index] */\n      dup2\n      sload\n      dup2\n      lt\n      tag_40\n      jumpi\n      tag_41\n      tag_42\n      jump\t// in\n    tag_41:\n    tag_40:\n      swap1\n      0x00\n      mstore\n      keccak256(0x00, 0x20)\n      add\n      0x00\n      swap1\n      sload\n      swap1\n      0x0100\n      exp\n      swap1\n      div\n      0xffffffffffffffffffffffffffffffffffffffff\n      and\n        /* \"contracts/FundMe.sol\":802:833  address funder = funders[index] */\n      swap1\n      pop\n        /* \"contracts/FundMe.sol\":879:880  0 */\n      0x00\n        /* \"contracts/FundMe.sol\":847:868  addressToAmountFunded */\n      0x01\n        /* \"contracts/FundMe.sol\":847:876  addressToAmountFunded[funder] */\n      0x00\n        /* \"contracts/FundMe.sol\":869:875  funder */\n      dup4\n        /* \"contracts/FundMe.sol\":847:876  addressToAmountFunded[funder] */\n      0xffffffffffffffffffffffffffffffffffffffff\n      and\n      0xffffffffffffffffffffffffffffffffffffffff\n      and\n      dup2\n      mstore\n      0x20\n      add\n      swap1\n      dup2\n      mstore\n      0x20\n      add\n      0x00\n      keccak256\n        /* \"contracts/FundMe.sol\":847:880  addressToAmountFunded[funder] = 0 */\n      dup2\n      swap1\n      sstore\n      pop\n        /* \"contracts/FundMe.sol\":788:891  {... */\n      pop\n        /* \"contracts/FundMe.sol\":780:787  index++ */\n      dup1\n      dup1\n      tag_44\n      swap1\n      tag_45\n      jump\t// in\n    tag_44:\n      swap2\n      pop\n      pop\n        /* \"contracts/FundMe.sol\":733:891  for(uint256 index = 0; index < funders.length; index++){... */\n      jump(tag_37)\n    tag_38:\n      pop\n        /* \"contracts/FundMe.sol\":902:914  bool success */\n      0x00\n        /* \"contracts/FundMe.sol\":928:938  msg.sender */\n      caller\n        /* \"contracts/FundMe.sol\":920:944  payable(msg.sender).call */\n      0xffffffffffffffffffffffffffffffffffffffff\n      and\n        /* \"contracts/FundMe.sol\":952:973  address(this).balance */\n      selfbalance\n        /* \"contracts/FundMe.sol\":920:978  payable(msg.sender).call{value: address(this).balance}(\"\") */\n      mload(0x40)\n      tag_46\n      swap1\n      tag_47\n      jump\t// in\n    tag_46:\n      0x00\n      mload(0x40)\n      dup1\n      dup4\n      sub\n      dup2\n      dup6\n      dup8\n      gas\n      call\n      swap3\n      pop\n      pop\n      pop\n      returndatasize\n      dup1\n      0x00\n      dup2\n      eq\n      tag_50\n      jumpi\n      mload(0x40)\n      swap2\n      pop\n      and(add(returndatasize, 0x3f), not(0x1f))\n      dup3\n      add\n      0x40\n      mstore\n      returndatasize\n      dup3\n      mstore\n      returndatasize\n      0x00\n      0x20\n      dup5\n      add\n      returndatacopy\n      jump(tag_49)\n    tag_50:\n      0x60\n      swap2\n      pop\n    tag_49:\n      pop\n        /* \"contracts/FundMe.sol\":901:978  (bool success, ) = payable(msg.sender).call{value: address(this).balance}(\"\") */\n      pop\n      swap1\n      pop\n        /* \"contracts/FundMe.sol\":996:1003  success */\n      dup1\n        /* \"contracts/FundMe.sol\":988:1019  require(success, \"Call Failed\") */\n      tag_51\n      jumpi\n      mload(0x40)\n      0x08c379a000000000000000000000000000000000000000000000000000000000\n      dup2\n      mstore\n      0x04\n      add\n      tag_52\n      swap1\n      tag_53\n      jump\t// in\n    tag_52:\n      mload(0x40)\n      dup1\n      swap2\n      sub\n      swap1\n      revert\n    tag_51:\n        /* \"contracts/FundMe.sol\":646:1026  {... */\n      pop\n        /* \"contracts/FundMe.sol\":611:1026  function withdraw() payable public {... */\n      jump\t// out\n        /* \"contracts/FundMe.sol\":215:271  mapping(address => uint256) public addressToAmountFunded */\n    tag_13:\n      mstore(0x20, 0x01)\n      dup1\n      0x00\n      mstore\n      keccak256(0x00, 0x40)\n      0x00\n      swap2\n      pop\n      swap1\n      pop\n      sload\n      dup2\n      jump\t// out\n        /* \"contracts/FundMe.sol\":277:324  uint256 constant public MINIMUM_USD = 50*10**18 */\n    tag_18:\n        /* \"contracts/FundMe.sol\":315:324  50*10**18 */\n      0x02b5e3af16b1880000\n        /* \"contracts/FundMe.sol\":277:324  uint256 constant public MINIMUM_USD = 50*10**18 */\n      dup2\n      jump\t// out\n        /* \"contracts/FundMe.sol\":387:605  function Fund() payable public{... */\n    tag_21:\n        /* \"contracts/FundMe.sol\":315:324  50*10**18 */\n      0x02b5e3af16b1880000\n        /* \"contracts/FundMe.sol\":435:464  msg.value.getConversionRate() */\n      tag_55\n        /* \"contracts/FundMe.sol\":435:444  msg.value */\n      callvalue\n        /* \"contracts/FundMe.sol\":435:462  msg.value.getConversionRate */\n      tag_56\n        /* \"contracts/FundMe.sol\":435:464  msg.value.getConversionRate() */\n      jump\t// in\n    tag_55:\n        /* \"contracts/FundMe.sol\":435:478  msg.value.getConversionRate() > MINIMUM_USD */\n      gt\n        /* \"contracts/FundMe.sol\":427:508  require(msg.value.getConversionRate() > MINIMUM_USD, \"You need to send more ETH\") */\n      tag_57\n      jumpi\n      mload(0x40)\n      0x08c379a000000000000000000000000000000000000000000000000000000000\n      dup2\n      mstore\n      0x04\n      add\n      tag_58\n      swap1\n      tag_59\n      jump\t// in\n    tag_58:\n      mload(0x40)\n      dup1\n      swap2\n      sub\n      swap1\n      revert\n    tag_57:\n        /* \"contracts/FundMe.sol\":518:525  funders */\n      0x00\n        /* \"contracts/FundMe.sol\":531:541  msg.sender */\n      caller\n        /* \"contracts/FundMe.sol\":518:542  funders.push(msg.sender) */\n      swap1\n      dup1\n      0x01\n      dup2\n      sload\n      add\n      dup1\n      dup3\n      sstore\n      dup1\n      swap2\n      pop\n      pop\n      0x01\n      swap1\n      sub\n      swap1\n      0x00\n      mstore\n      keccak256(0x00, 0x20)\n      add\n      0x00\n      swap1\n      swap2\n      swap1\n      swap2\n      swap1\n      swap2\n      0x0100\n      exp\n      dup2\n      sload\n      dup2\n      0xffffffffffffffffffffffffffffffffffffffff\n      mul\n      not\n      and\n      swap1\n      dup4\n      0xffffffffffffffffffffffffffffffffffffffff\n      and\n      mul\n      or\n      swap1\n      sstore\n      pop\n        /* \"contracts/FundMe.sol\":589:598  msg.value */\n      callvalue\n        /* \"contracts/FundMe.sol\":552:573  addressToAmountFunded */\n      0x01\n        /* \"contracts/FundMe.sol\":552:585  addressToAmountFunded[msg.sender] */\n      0x00\n        /* \"contracts/FundMe.sol\":574:584  msg.sender */\n      caller\n        /* \"contracts/FundMe.sol\":552:585  addressToAmountFunded[msg.sender] */\n      0xffffffffffffffffffffffffffffffffffffffff\n      and\n      0xffffffffffffffffffffffffffffffffffffffff\n      and\n      dup2\n      mstore\n      0x20\n      add\n      swap1\n      dup2\n      mstore\n      0x20\n      add\n      0x00\n      keccak256\n      0x00\n        /* \"contracts/FundMe.sol\":552:598  addressToAmountFunded[msg.sender] += msg.value */\n      dup3\n      dup3\n      sload\n      tag_61\n      swap2\n      swap1\n      tag_62\n      jump\t// in\n    tag_61:\n      swap3\n      pop\n      pop\n      dup2\n      swap1\n      sstore\n      pop\n        /* \"contracts/FundMe.sol\":387:605  function Fund() payable public{... */\n      jump\t// out\n        /* \"contracts/FundMe.sol\":185:209  address[] public funders */\n    tag_26:\n      0x00\n      dup2\n      dup2\n      sload\n      dup2\n      lt\n      tag_63\n      jumpi\n      0x00\n      dup1\n      revert\n    tag_63:\n      swap1\n      0x00\n      mstore\n      keccak256(0x00, 0x20)\n      add\n      0x00\n      swap2\n      pop\n      sload\n      swap1\n      0x0100\n      exp\n      swap1\n      div\n      0xffffffffffffffffffffffffffffffffffffffff\n      and\n      dup2\n      jump\t// out\n        /* \"contracts/PriceConverter.sol\":578:766  function getConversionRate(uint256 getAmount) internal view returns(uint256){... */\n    tag_56:\n        /* \"contracts/PriceConverter.sol\":646:653  uint256 */\n      0x00\n        /* \"contracts/PriceConverter.sol\":664:685  uint256 ethPriceInUSD */\n      dup1\n        /* \"contracts/PriceConverter.sol\":688:698  getPrice() */\n      tag_66\n        /* \"contracts/PriceConverter.sol\":688:696  getPrice */\n      tag_67\n        /* \"contracts/PriceConverter.sol\":688:698  getPrice() */\n      jump\t// in\n    tag_66:\n        /* \"contracts/PriceConverter.sol\":664:698  uint256 ethPriceInUSD = getPrice() */\n      swap1\n      pop\n        /* \"contracts/PriceConverter.sol\":752:758  10**18 */\n      0x0de0b6b3a7640000\n        /* \"contracts/PriceConverter.sol\":739:748  getAmount */\n      dup4\n        /* \"contracts/PriceConverter.sol\":730:736  10**10 */\n      0x02540be400\n        /* \"contracts/PriceConverter.sol\":716:729  ethPriceInUSD */\n      dup4\n        /* \"contracts/PriceConverter.sol\":716:736  ethPriceInUSD*10**10 */\n      tag_68\n      swap2\n      swap1\n      tag_69\n      jump\t// in\n    tag_68:\n        /* \"contracts/PriceConverter.sol\":716:748  ethPriceInUSD*10**10 * getAmount */\n      tag_70\n      swap2\n      swap1\n      tag_69\n      jump\t// in\n    tag_70:\n        /* \"contracts/PriceConverter.sol\":715:758  (ethPriceInUSD*10**10 * getAmount) / 10**18 */\n      tag_71\n      swap2\n      swap1\n      tag_72\n      jump\t// in\n    tag_71:\n        /* \"contracts/PriceConverter.sol\":708:758  return (ethPriceInUSD*10**10 * getAmount) / 10**18 */\n      swap2\n      pop\n      pop\n        /* \"contracts/PriceConverter.sol\":578:766  function getConversionRate(uint256 getAmount) internal view returns(uint256){... */\n      swap2\n      swap1\n      pop\n      jump\t// out\n        /* \"contracts/PriceConverter.sol\":165:572  function getPrice() internal view returns(uint256){... */\n    tag_67:\n        /* \"contracts/PriceConverter.sol\":207:214  uint256 */\n      0x00\n        /* \"contracts/PriceConverter.sol\":225:256  AggregatorV3Interface priceFeed */\n      dup1\n        /* \"contracts/PriceConverter.sol\":281:323  0x8A753747A1Fa494EC906cE90E9f37563A8AF630e */\n      0x8a753747a1fa494ec906ce90e9f37563a8af630e\n        /* \"contracts/PriceConverter.sol\":225:324  AggregatorV3Interface priceFeed = AggregatorV3Interface(0x8A753747A1Fa494EC906cE90E9f37563A8AF630e) */\n      swap1\n      pop\n        /* \"contracts/PriceConverter.sol\":380:389  int price */\n      0x00\n        /* \"contracts/PriceConverter.sol\":506:515  priceFeed */\n      dup2\n        /* \"contracts/PriceConverter.sol\":506:531  priceFeed.latestRoundData */\n      0xffffffffffffffffffffffffffffffffffffffff\n      and\n      0xfeaf968c\n        /* \"contracts/PriceConverter.sol\":506:533  priceFeed.latestRoundData() */\n      mload(0x40)\n      dup2\n      0xffffffff\n      and\n      0xe0\n      shl\n      dup2\n      mstore\n      0x04\n      add\n      0xa0\n      mload(0x40)\n      dup1\n      dup4\n      sub\n      dup2\n      dup7\n      dup1\n      extcodesize\n      iszero\n      dup1\n      iszero\n      tag_74\n      jumpi\n      0x00\n      dup1\n      revert\n    tag_74:\n      pop\n      gas\n      staticcall\n      iszero\n      dup1\n      iszero\n      tag_76\n      jumpi\n      returndatasize\n      0x00\n      dup1\n      returndatacopy\n      revert(0x00, returndatasize)\n    tag_76:\n      pop\n      pop\n      pop\n      pop\n      mload(0x40)\n      returndatasize\n      not(0x1f)\n      0x1f\n      dup3\n      add\n      and\n      dup3\n      add\n      dup1\n      0x40\n      mstore\n      pop\n      dup2\n      add\n      swap1\n      tag_77\n      swap2\n      swap1\n      tag_78\n      jump\t// in\n    tag_77:\n        /* \"contracts/PriceConverter.sol\":334:533  (... */\n      pop\n      pop\n      pop\n      swap2\n      pop\n      pop\n        /* \"contracts/PriceConverter.sol\":559:564  price */\n      dup1\n        /* \"contracts/PriceConverter.sol\":544:565  return uint256(price) */\n      swap3\n      pop\n      pop\n      pop\n        /* \"contracts/PriceConverter.sol\":165:572  function getPrice() internal view returns(uint256){... */\n      swap1\n      jump\t// out\n    tag_36:\n      dup3\n      dup1\n      sload\n      dup3\n      dup3\n      sstore\n      swap1\n      0x00\n      mstore\n      keccak256(0x00, 0x20)\n      swap1\n      dup2\n      add\n      swap3\n      dup3\n      iszero\n      tag_79\n      jumpi\n      swap2\n      0x20\n      mul\n      dup3\n      add\n    tag_80:\n      dup3\n      dup2\n      gt\n      iszero\n      tag_81\n      jumpi\n      dup3\n      mload\n      dup3\n      exp(0x0100, 0x00)\n      dup2\n      sload\n      dup2\n      0xffffffffffffffffffffffffffffffffffffffff\n      mul\n      not\n      and\n      swap1\n      dup4\n      0xffffffffffffffffffffffffffffffffffffffff\n      and\n      mul\n      or\n      swap1\n      sstore\n      pop\n      swap2\n      0x20\n      add\n      swap2\n      swap1\n      0x01\n      add\n      swap1\n      jump(tag_80)\n    tag_81:\n    tag_79:\n      pop\n      swap1\n      pop\n      tag_82\n      swap2\n      swap1\n      tag_83\n      jump\t// in\n    tag_82:\n      pop\n      swap1\n      jump\t// out\n    tag_83:\n    tag_84:\n      dup1\n      dup3\n      gt\n      iszero\n      tag_85\n      jumpi\n      0x00\n      dup2\n      0x00\n      swap1\n      sstore\n      pop\n      0x01\n      add\n      jump(tag_84)\n    tag_85:\n      pop\n      swap1\n      jump\t// out\n        /* \"#utility.yul\":7:146   */\n    tag_87:\n        /* \"#utility.yul\":53:58   */\n      0x00\n        /* \"#utility.yul\":91:97   */\n      dup2\n        /* \"#utility.yul\":78:98   */\n      calldataload\n        /* \"#utility.yul\":69:98   */\n      swap1\n      pop\n        /* \"#utility.yul\":107:140   */\n      tag_89\n        /* \"#utility.yul\":134:139   */\n      dup2\n        /* \"#utility.yul\":107:140   */\n      tag_90\n      jump\t// in\n    tag_89:\n        /* \"#utility.yul\":7:146   */\n      swap3\n      swap2\n      pop\n      pop\n      jump\t// out\n        /* \"#utility.yul\":152:293   */\n    tag_91:\n        /* \"#utility.yul\":208:213   */\n      0x00\n        /* \"#utility.yul\":239:245   */\n      dup2\n        /* \"#utility.yul\":233:246   */\n      mload\n        /* \"#utility.yul\":224:246   */\n      swap1\n      pop\n        /* \"#utility.yul\":255:287   */\n      tag_93\n        /* \"#utility.yul\":281:286   */\n      dup2\n        /* \"#utility.yul\":255:287   */\n      tag_94\n      jump\t// in\n    tag_93:\n        /* \"#utility.yul\":152:293   */\n      swap3\n      swap2\n      pop\n      pop\n      jump\t// out\n        /* \"#utility.yul\":299:438   */\n    tag_95:\n        /* \"#utility.yul\":345:350   */\n      0x00\n        /* \"#utility.yul\":383:389   */\n      dup2\n        /* \"#utility.yul\":370:390   */\n      calldataload\n        /* \"#utility.yul\":361:390   */\n      swap1\n      pop\n        /* \"#utility.yul\":399:432   */\n      tag_97\n        /* \"#utility.yul\":426:431   */\n      dup2\n        /* \"#utility.yul\":399:432   */\n      tag_98\n      jump\t// in\n    tag_97:\n        /* \"#utility.yul\":299:438   */\n      swap3\n      swap2\n      pop\n      pop\n      jump\t// out\n        /* \"#utility.yul\":444:587   */\n    tag_99:\n        /* \"#utility.yul\":501:506   */\n      0x00\n        /* \"#utility.yul\":532:538   */\n      dup2\n        /* \"#utility.yul\":526:539   */\n      mload\n        /* \"#utility.yul\":517:539   */\n      swap1\n      pop\n        /* \"#utility.yul\":548:581   */\n      tag_101\n        /* \"#utility.yul\":575:580   */\n      dup2\n        /* \"#utility.yul\":548:581   */\n      tag_98\n      jump\t// in\n    tag_101:\n        /* \"#utility.yul\":444:587   */\n      swap3\n      swap2\n      pop\n      pop\n      jump\t// out\n        /* \"#utility.yul\":593:734   */\n    tag_102:\n        /* \"#utility.yul\":649:654   */\n      0x00\n        /* \"#utility.yul\":680:686   */\n      dup2\n        /* \"#utility.yul\":674:687   */\n      mload\n        /* \"#utility.yul\":665:687   */\n      swap1\n      pop\n        /* \"#utility.yul\":696:728   */\n      tag_104\n        /* \"#utility.yul\":722:727   */\n      dup2\n        /* \"#utility.yul\":696:728   */\n      tag_105\n      jump\t// in\n    tag_104:\n        /* \"#utility.yul\":593:734   */\n      swap3\n      swap2\n      pop\n      pop\n      jump\t// out\n        /* \"#utility.yul\":740:1069   */\n    tag_12:\n        /* \"#utility.yul\":799:805   */\n      0x00\n        /* \"#utility.yul\":848:850   */\n      0x20\n        /* \"#utility.yul\":836:845   */\n      dup3\n        /* \"#utility.yul\":827:834   */\n      dup5\n        /* \"#utility.yul\":823:846   */\n      sub\n        /* \"#utility.yul\":819:851   */\n      slt\n        /* \"#utility.yul\":816:935   */\n      iszero\n      tag_107\n      jumpi\n        /* \"#utility.yul\":854:933   */\n      tag_108\n      tag_109\n      jump\t// in\n    tag_108:\n        /* \"#utility.yul\":816:935   */\n    tag_107:\n        /* \"#utility.yul\":974:975   */\n      0x00\n        /* \"#utility.yul\":999:1052   */\n      tag_110\n        /* \"#utility.yul\":1044:1051   */\n      dup5\n        /* \"#utility.yul\":1035:1041   */\n      dup3\n        /* \"#utility.yul\":1024:1033   */\n      dup6\n        /* \"#utility.yul\":1020:1042   */\n      add\n        /* \"#utility.yul\":999:1052   */\n      tag_87\n      jump\t// in\n    tag_110:\n        /* \"#utility.yul\":989:1052   */\n      swap2\n      pop\n        /* \"#utility.yul\":945:1062   */\n      pop\n        /* \"#utility.yul\":740:1069   */\n      swap3\n      swap2\n      pop\n      pop\n      jump\t// out\n        /* \"#utility.yul\":1075:1404   */\n    tag_25:\n        /* \"#utility.yul\":1134:1140   */\n      0x00\n        /* \"#utility.yul\":1183:1185   */\n      0x20\n        /* \"#utility.yul\":1171:1180   */\n      dup3\n        /* \"#utility.yul\":1162:1169   */\n      dup5\n        /* \"#utility.yul\":1158:1181   */\n      sub\n        /* \"#utility.yul\":1154:1186   */\n      slt\n        /* \"#utility.yul\":1151:1270   */\n      iszero\n      tag_112\n      jumpi\n        /* \"#utility.yul\":1189:1268   */\n      tag_113\n      tag_109\n      jump\t// in\n    tag_113:\n        /* \"#utility.yul\":1151:1270   */\n    tag_112:\n        /* \"#utility.yul\":1309:1310   */\n      0x00\n        /* \"#utility.yul\":1334:1387   */\n      tag_114\n        /* \"#utility.yul\":1379:1386   */\n      dup5\n        /* \"#utility.yul\":1370:1376   */\n      dup3\n        /* \"#utility.yul\":1359:1368   */\n      dup6\n        /* \"#utility.yul\":1355:1377   */\n      add\n        /* \"#utility.yul\":1334:1387   */\n      tag_95\n      jump\t// in\n    tag_114:\n        /* \"#utility.yul\":1324:1387   */\n      swap2\n      pop\n        /* \"#utility.yul\":1280:1397   */\n      pop\n        /* \"#utility.yul\":1075:1404   */\n      swap3\n      swap2\n      pop\n      pop\n      jump\t// out\n        /* \"#utility.yul\":1410:2381   */\n    tag_78:\n        /* \"#utility.yul\":1513:1519   */\n      0x00\n        /* \"#utility.yul\":1521:1527   */\n      dup1\n        /* \"#utility.yul\":1529:1535   */\n      0x00\n        /* \"#utility.yul\":1537:1543   */\n      dup1\n        /* \"#utility.yul\":1545:1551   */\n      0x00\n        /* \"#utility.yul\":1594:1597   */\n      0xa0\n        /* \"#utility.yul\":1582:1591   */\n      dup7\n        /* \"#utility.yul\":1573:1580   */\n      dup9\n        /* \"#utility.yul\":1569:1592   */\n      sub\n        /* \"#utility.yul\":1565:1598   */\n      slt\n        /* \"#utility.yul\":1562:1682   */\n      iszero\n      tag_116\n      jumpi\n        /* \"#utility.yul\":1601:1680   */\n      tag_117\n      tag_109\n      jump\t// in\n    tag_117:\n        /* \"#utility.yul\":1562:1682   */\n    tag_116:\n        /* \"#utility.yul\":1721:1722   */\n      0x00\n        /* \"#utility.yul\":1746:1809   */\n      tag_118\n        /* \"#utility.yul\":1801:1808   */\n      dup9\n        /* \"#utility.yul\":1792:1798   */\n      dup3\n        /* \"#utility.yul\":1781:1790   */\n      dup10\n        /* \"#utility.yul\":1777:1799   */\n      add\n        /* \"#utility.yul\":1746:1809   */\n      tag_102\n      jump\t// in\n    tag_118:\n        /* \"#utility.yul\":1736:1809   */\n      swap6\n      pop\n        /* \"#utility.yul\":1692:1819   */\n      pop\n        /* \"#utility.yul\":1858:1860   */\n      0x20\n        /* \"#utility.yul\":1884:1947   */\n      tag_119\n        /* \"#utility.yul\":1939:1946   */\n      dup9\n        /* \"#utility.yul\":1930:1936   */\n      dup3\n        /* \"#utility.yul\":1919:1928   */\n      dup10\n        /* \"#utility.yul\":1915:1937   */\n      add\n        /* \"#utility.yul\":1884:1947   */\n      tag_91\n      jump\t// in\n    tag_119:\n        /* \"#utility.yul\":1874:1947   */\n      swap5\n      pop\n        /* \"#utility.yul\":1829:1957   */\n      pop\n        /* \"#utility.yul\":1996:1998   */\n      0x40\n        /* \"#utility.yul\":2022:2086   */\n      tag_120\n        /* \"#utility.yul\":2078:2085   */\n      dup9\n        /* \"#utility.yul\":2069:2075   */\n      dup3\n        /* \"#utility.yul\":2058:2067   */\n      dup10\n        /* \"#utility.yul\":2054:2076   */\n      add\n        /* \"#utility.yul\":2022:2086   */\n      tag_99\n      jump\t// in\n    tag_120:\n        /* \"#utility.yul\":2012:2086   */\n      swap4\n      pop\n        /* \"#utility.yul\":1967:2096   */\n      pop\n        /* \"#utility.yul\":2135:2137   */\n      0x60\n        /* \"#utility.yul\":2161:2225   */\n      tag_121\n        /* \"#utility.yul\":2217:2224   */\n      dup9\n        /* \"#utility.yul\":2208:2214   */\n      dup3\n        /* \"#utility.yul\":2197:2206   */\n      dup10\n        /* \"#utility.yul\":2193:2215   */\n      add\n        /* \"#utility.yul\":2161:2225   */\n      tag_99\n      jump\t// in\n    tag_121:\n        /* \"#utility.yul\":2151:2225   */\n      swap3\n      pop\n        /* \"#utility.yul\":2106:2235   */\n      pop\n        /* \"#utility.yul\":2274:2277   */\n      0x80\n        /* \"#utility.yul\":2301:2364   */\n      tag_122\n        /* \"#utility.yul\":2356:2363   */\n      dup9\n        /* \"#utility.yul\":2347:2353   */\n      dup3\n        /* \"#utility.yul\":2336:2345   */\n      dup10\n        /* \"#utility.yul\":2332:2354   */\n      add\n        /* \"#utility.yul\":2301:2364   */\n      tag_102\n      jump\t// in\n    tag_122:\n        /* \"#utility.yul\":2291:2364   */\n      swap2\n      pop\n        /* \"#utility.yul\":2245:2374   */\n      pop\n        /* \"#utility.yul\":1410:2381   */\n      swap3\n      swap6\n      pop\n      swap3\n      swap6\n      swap1\n      swap4\n      pop\n      jump\t// out\n        /* \"#utility.yul\":2387:2505   */\n    tag_123:\n        /* \"#utility.yul\":2474:2498   */\n      tag_125\n        /* \"#utility.yul\":2492:2497   */\n      dup2\n        /* \"#utility.yul\":2474:2498   */\n      tag_126\n      jump\t// in\n    tag_125:\n        /* \"#utility.yul\":2469:2472   */\n      dup3\n        /* \"#utility.yul\":2462:2499   */\n      mstore\n        /* \"#utility.yul\":2387:2505   */\n      pop\n      pop\n      jump\t// out\n        /* \"#utility.yul\":2511:2909   */\n    tag_127:\n        /* \"#utility.yul\":2670:2673   */\n      0x00\n        /* \"#utility.yul\":2691:2774   */\n      tag_129\n        /* \"#utility.yul\":2772:2773   */\n      0x00\n        /* \"#utility.yul\":2767:2770   */\n      dup4\n        /* \"#utility.yul\":2691:2774   */\n      tag_130\n      jump\t// in\n    tag_129:\n        /* \"#utility.yul\":2684:2774   */\n      swap2\n      pop\n        /* \"#utility.yul\":2783:2876   */\n      tag_131\n        /* \"#utility.yul\":2872:2875   */\n      dup3\n        /* \"#utility.yul\":2783:2876   */\n      tag_132\n      jump\t// in\n    tag_131:\n        /* \"#utility.yul\":2901:2902   */\n      0x00\n        /* \"#utility.yul\":2896:2899   */\n      dup3\n        /* \"#utility.yul\":2892:2903   */\n      add\n        /* \"#utility.yul\":2885:2903   */\n      swap1\n      pop\n        /* \"#utility.yul\":2511:2909   */\n      swap2\n      swap1\n      pop\n      jump\t// out\n        /* \"#utility.yul\":2915:3281   */\n    tag_133:\n        /* \"#utility.yul\":3057:3060   */\n      0x00\n        /* \"#utility.yul\":3078:3145   */\n      tag_135\n        /* \"#utility.yul\":3142:3144   */\n      0x19\n        /* \"#utility.yul\":3137:3140   */\n      dup4\n        /* \"#utility.yul\":3078:3145   */\n      tag_136\n      jump\t// in\n    tag_135:\n        /* \"#utility.yul\":3071:3145   */\n      swap2\n      pop\n        /* \"#utility.yul\":3154:3247   */\n      tag_137\n        /* \"#utility.yul\":3243:3246   */\n      dup3\n        /* \"#utility.yul\":3154:3247   */\n      tag_138\n      jump\t// in\n    tag_137:\n        /* \"#utility.yul\":3272:3274   */\n      0x20\n        /* \"#utility.yul\":3267:3270   */\n      dup3\n        /* \"#utility.yul\":3263:3275   */\n      add\n        /* \"#utility.yul\":3256:3275   */\n      swap1\n      pop\n        /* \"#utility.yul\":2915:3281   */\n      swap2\n      swap1\n      pop\n      jump\t// out\n        /* \"#utility.yul\":3287:3653   */\n    tag_139:\n        /* \"#utility.yul\":3429:3432   */\n      0x00\n        /* \"#utility.yul\":3450:3517   */\n      tag_141\n        /* \"#utility.yul\":3514:3516   */\n      0x0b\n        /* \"#utility.yul\":3509:3512   */\n      dup4\n        /* \"#utility.yul\":3450:3517   */\n      tag_136\n      jump\t// in\n    tag_141:\n        /* \"#utility.yul\":3443:3517   */\n      swap2\n      pop\n        /* \"#utility.yul\":3526:3619   */\n      tag_142\n        /* \"#utility.yul\":3615:3618   */\n      dup3\n        /* \"#utility.yul\":3526:3619   */\n      tag_143\n      jump\t// in\n    tag_142:\n        /* \"#utility.yul\":3644:3646   */\n      0x20\n        /* \"#utility.yul\":3639:3642   */\n      dup3\n        /* \"#utility.yul\":3635:3647   */\n      add\n        /* \"#utility.yul\":3628:3647   */\n      swap1\n      pop\n        /* \"#utility.yul\":3287:3653   */\n      swap2\n      swap1\n      pop\n      jump\t// out\n        /* \"#utility.yul\":3659:3777   */\n    tag_144:\n        /* \"#utility.yul\":3746:3770   */\n      tag_146\n        /* \"#utility.yul\":3764:3769   */\n      dup2\n        /* \"#utility.yul\":3746:3770   */\n      tag_147\n      jump\t// in\n    tag_146:\n        /* \"#utility.yul\":3741:3744   */\n      dup3\n        /* \"#utility.yul\":3734:3771   */\n      mstore\n        /* \"#utility.yul\":3659:3777   */\n      pop\n      pop\n      jump\t// out\n        /* \"#utility.yul\":3783:4162   */\n    tag_47:\n        /* \"#utility.yul\":3967:3970   */\n      0x00\n        /* \"#utility.yul\":3989:4136   */\n      tag_149\n        /* \"#utility.yul\":4132:4135   */\n      dup3\n        /* \"#utility.yul\":3989:4136   */\n      tag_127\n      jump\t// in\n    tag_149:\n        /* \"#utility.yul\":3982:4136   */\n      swap2\n      pop\n        /* \"#utility.yul\":4153:4156   */\n      dup2\n        /* \"#utility.yul\":4146:4156   */\n      swap1\n      pop\n        /* \"#utility.yul\":3783:4162   */\n      swap2\n      swap1\n      pop\n      jump\t// out\n        /* \"#utility.yul\":4168:4390   */\n    tag_28:\n        /* \"#utility.yul\":4261:4265   */\n      0x00\n        /* \"#utility.yul\":4299:4301   */\n      0x20\n        /* \"#utility.yul\":4288:4297   */\n      dup3\n        /* \"#utility.yul\":4284:4302   */\n      add\n        /* \"#utility.yul\":4276:4302   */\n      swap1\n      pop\n        /* \"#utility.yul\":4312:4383   */\n      tag_151\n        /* \"#utility.yul\":4380:4381   */\n      0x00\n        /* \"#utility.yul\":4369:4378   */\n      dup4\n        /* \"#utility.yul\":4365:4382   */\n      add\n        /* \"#utility.yul\":4356:4362   */\n      dup5\n        /* \"#utility.yul\":4312:4383   */\n      tag_123\n      jump\t// in\n    tag_151:\n        /* \"#utility.yul\":4168:4390   */\n      swap3\n      swap2\n      pop\n      pop\n      jump\t// out\n        /* \"#utility.yul\":4396:4815   */\n    tag_59:\n        /* \"#utility.yul\":4562:4566   */\n      0x00\n        /* \"#utility.yul\":4600:4602   */\n      0x20\n        /* \"#utility.yul\":4589:4598   */\n      dup3\n        /* \"#utility.yul\":4585:4603   */\n      add\n        /* \"#utility.yul\":4577:4603   */\n      swap1\n      pop\n        /* \"#utility.yul\":4649:4658   */\n      dup2\n        /* \"#utility.yul\":4643:4647   */\n      dup2\n        /* \"#utility.yul\":4639:4659   */\n      sub\n        /* \"#utility.yul\":4635:4636   */\n      0x00\n        /* \"#utility.yul\":4624:4633   */\n      dup4\n        /* \"#utility.yul\":4620:4637   */\n      add\n        /* \"#utility.yul\":4613:4660   */\n      mstore\n        /* \"#utility.yul\":4677:4808   */\n      tag_153\n        /* \"#utility.yul\":4803:4807   */\n      dup2\n        /* \"#utility.yul\":4677:4808   */\n      tag_133\n      jump\t// in\n    tag_153:\n        /* \"#utility.yul\":4669:4808   */\n      swap1\n      pop\n        /* \"#utility.yul\":4396:4815   */\n      swap2\n      swap1\n      pop\n      jump\t// out\n        /* \"#utility.yul\":4821:5240   */\n    tag_53:\n        /* \"#utility.yul\":4987:4991   */\n      0x00\n        /* \"#utility.yul\":5025:5027   */\n      0x20\n        /* \"#utility.yul\":5014:5023   */\n      dup3\n        /* \"#utility.yul\":5010:5028   */\n      add\n        /* \"#utility.yul\":5002:5028   */\n      swap1\n      pop\n        /* \"#utility.yul\":5074:5083   */\n      dup2\n        /* \"#utility.yul\":5068:5072   */\n      dup2\n        /* \"#utility.yul\":5064:5084   */\n      sub\n        /* \"#utility.yul\":5060:5061   */\n      0x00\n        /* \"#utility.yul\":5049:5058   */\n      dup4\n        /* \"#utility.yul\":5045:5062   */\n      add\n        /* \"#utility.yul\":5038:5085   */\n      mstore\n        /* \"#utility.yul\":5102:5233   */\n      tag_155\n        /* \"#utility.yul\":5228:5232   */\n      dup2\n        /* \"#utility.yul\":5102:5233   */\n      tag_139\n      jump\t// in\n    tag_155:\n        /* \"#utility.yul\":5094:5233   */\n      swap1\n      pop\n        /* \"#utility.yul\":4821:5240   */\n      swap2\n      swap1\n      pop\n      jump\t// out\n        /* \"#utility.yul\":5246:5468   */\n    tag_15:\n        /* \"#utility.yul\":5339:5343   */\n      0x00\n        /* \"#utility.yul\":5377:5379   */\n      0x20\n        /* \"#utility.yul\":5366:5375   */\n      dup3\n        /* \"#utility.yul\":5362:5380   */\n      add\n        /* \"#utility.yul\":5354:5380   */\n      swap1\n      pop\n        /* \"#utility.yul\":5390:5461   */\n      tag_157\n        /* \"#utility.yul\":5458:5459   */\n      0x00\n        /* \"#utility.yul\":5447:5456   */\n      dup4\n        /* \"#utility.yul\":5443:5460   */\n      add\n        /* \"#utility.yul\":5434:5440   */\n      dup5\n        /* \"#utility.yul\":5390:5461   */\n      tag_144\n      jump\t// in\n    tag_157:\n        /* \"#utility.yul\":5246:5468   */\n      swap3\n      swap2\n      pop\n      pop\n      jump\t// out\n        /* \"#utility.yul\":5555:5702   */\n    tag_130:\n        /* \"#utility.yul\":5656:5667   */\n      0x00\n        /* \"#utility.yul\":5693:5696   */\n      dup2\n        /* \"#utility.yul\":5678:5696   */\n      swap1\n      pop\n        /* \"#utility.yul\":5555:5702   */\n      swap3\n      swap2\n      pop\n      pop\n      jump\t// out\n        /* \"#utility.yul\":5708:5877   */\n    tag_136:\n        /* \"#utility.yul\":5792:5803   */\n      0x00\n        /* \"#utility.yul\":5826:5832   */\n      dup3\n        /* \"#utility.yul\":5821:5824   */\n      dup3\n        /* \"#utility.yul\":5814:5833   */\n      mstore\n        /* \"#utility.yul\":5866:5870   */\n      0x20\n        /* \"#utility.yul\":5861:5864   */\n      dup3\n        /* \"#utility.yul\":5857:5871   */\n      add\n        /* \"#utility.yul\":5842:5871   */\n      swap1\n      pop\n        /* \"#utility.yul\":5708:5877   */\n      swap3\n      swap2\n      pop\n      pop\n      jump\t// out\n        /* \"#utility.yul\":5883:6188   */\n    tag_62:\n        /* \"#utility.yul\":5923:5926   */\n      0x00\n        /* \"#utility.yul\":5942:5962   */\n      tag_163\n        /* \"#utility.yul\":5960:5961   */\n      dup3\n        /* \"#utility.yul\":5942:5962   */\n      tag_147\n      jump\t// in\n    tag_163:\n        /* \"#utility.yul\":5937:5962   */\n      swap2\n      pop\n        /* \"#utility.yul\":5976:5996   */\n      tag_164\n        /* \"#utility.yul\":5994:5995   */\n      dup4\n        /* \"#utility.yul\":5976:5996   */\n      tag_147\n      jump\t// in\n    tag_164:\n        /* \"#utility.yul\":5971:5996   */\n      swap3\n      pop\n        /* \"#utility.yul\":6130:6131   */\n      dup3\n        /* \"#utility.yul\":6062:6128   */\n      0xffffffffffffffffffffffffffffffffffffffffffffffffffffffffffffffff\n        /* \"#utility.yul\":6058:6132   */\n      sub\n        /* \"#utility.yul\":6055:6056   */\n      dup3\n        /* \"#utility.yul\":6052:6133   */\n      gt\n        /* \"#utility.yul\":6049:6156   */\n      iszero\n      tag_165\n      jumpi\n        /* \"#utility.yul\":6136:6154   */\n      tag_166\n      tag_167\n      jump\t// in\n    tag_166:\n        /* \"#utility.yul\":6049:6156   */\n    tag_165:\n        /* \"#utility.yul\":6180:6181   */\n      dup3\n        /* \"#utility.yul\":6177:6178   */\n      dup3\n        /* \"#utility.yul\":6173:6182   */\n      add\n        /* \"#utility.yul\":6166:6182   */\n      swap1\n      pop\n        /* \"#utility.yul\":5883:6188   */\n      swap3\n      swap2\n      pop\n      pop\n      jump\t// out\n        /* \"#utility.yul\":6194:6379   */\n    tag_72:\n        /* \"#utility.yul\":6234:6235   */\n      0x00\n        /* \"#utility.yul\":6251:6271   */\n      tag_169\n        /* \"#utility.yul\":6269:6270   */\n      dup3\n        /* \"#utility.yul\":6251:6271   */\n      tag_147\n      jump\t// in\n    tag_169:\n        /* \"#utility.yul\":6246:6271   */\n      swap2\n      pop\n        /* \"#utility.yul\":6285:6305   */\n      tag_170\n        /* \"#utility.yul\":6303:6304   */\n      dup4\n        /* \"#utility.yul\":6285:6305   */\n      tag_147\n      jump\t// in\n    tag_170:\n        /* \"#utility.yul\":6280:6305   */\n      swap3\n      pop\n        /* \"#utility.yul\":6324:6325   */\n      dup3\n        /* \"#utility.yul\":6314:6349   */\n      tag_171\n      jumpi\n        /* \"#utility.yul\":6329:6347   */\n      tag_172\n      tag_173\n      jump\t// in\n    tag_172:\n        /* \"#utility.yul\":6314:6349   */\n    tag_171:\n        /* \"#utility.yul\":6371:6372   */\n      dup3\n        /* \"#utility.yul\":6368:6369   */\n      dup3\n        /* \"#utility.yul\":6364:6373   */\n      div\n        /* \"#utility.yul\":6359:6373   */\n      swap1\n      pop\n        /* \"#utility.yul\":6194:6379   */\n      swap3\n      swap2\n      pop\n      pop\n      jump\t// out\n        /* \"#utility.yul\":6385:6733   */\n    tag_69:\n        /* \"#utility.yul\":6425:6432   */\n      0x00\n        /* \"#utility.yul\":6448:6468   */\n      tag_175\n        /* \"#utility.yul\":6466:6467   */\n      dup3\n        /* \"#utility.yul\":6448:6468   */\n      tag_147\n      jump\t// in\n    tag_175:\n        /* \"#utility.yul\":6443:6468   */\n      swap2\n      pop\n        /* \"#utility.yul\":6482:6502   */\n      tag_176\n        /* \"#utility.yul\":6500:6501   */\n      dup4\n        /* \"#utility.yul\":6482:6502   */\n      tag_147\n      jump\t// in\n    tag_176:\n        /* \"#utility.yul\":6477:6502   */\n      swap3\n      pop\n        /* \"#utility.yul\":6670:6671   */\n      dup2\n        /* \"#utility.yul\":6602:6668   */\n      0xffffffffffffffffffffffffffffffffffffffffffffffffffffffffffffffff\n        /* \"#utility.yul\":6598:6672   */\n      div\n        /* \"#utility.yul\":6595:6596   */\n      dup4\n        /* \"#utility.yul\":6592:6673   */\n      gt\n        /* \"#utility.yul\":6587:6588   */\n      dup3\n        /* \"#utility.yul\":6580:6589   */\n      iszero\n        /* \"#utility.yul\":6573:6590   */\n      iszero\n        /* \"#utility.yul\":6569:6674   */\n      and\n        /* \"#utility.yul\":6566:6697   */\n      iszero\n      tag_177\n      jumpi\n        /* \"#utility.yul\":6677:6695   */\n      tag_178\n      tag_167\n      jump\t// in\n    tag_178:\n        /* \"#utility.yul\":6566:6697   */\n    tag_177:\n        /* \"#utility.yul\":6725:6726   */\n      dup3\n        /* \"#utility.yul\":6722:6723   */\n      dup3\n        /* \"#utility.yul\":6718:6727   */\n      mul\n        /* \"#utility.yul\":6707:6727   */\n      swap1\n      pop\n        /* \"#utility.yul\":6385:6733   */\n      swap3\n      swap2\n      pop\n      pop\n      jump\t// out\n        /* \"#utility.yul\":6739:6835   */\n    tag_126:\n        /* \"#utility.yul\":6776:6783   */\n      0x00\n        /* \"#utility.yul\":6805:6829   */\n      tag_180\n        /* \"#utility.yul\":6823:6828   */\n      dup3\n        /* \"#utility.yul\":6805:6829   */\n      tag_181\n      jump\t// in\n    tag_180:\n        /* \"#utility.yul\":6794:6829   */\n      swap1\n      pop\n        /* \"#utility.yul\":6739:6835   */\n      swap2\n      swap1\n      pop\n      jump\t// out\n        /* \"#utility.yul\":6841:6917   */\n    tag_182:\n        /* \"#utility.yul\":6877:6884   */\n      0x00\n        /* \"#utility.yul\":6906:6911   */\n      dup2\n        /* \"#utility.yul\":6895:6911   */\n      swap1\n      pop\n        /* \"#utility.yul\":6841:6917   */\n      swap2\n      swap1\n      pop\n      jump\t// out\n        /* \"#utility.yul\":6923:7049   */\n    tag_181:\n        /* \"#utility.yul\":6960:6967   */\n      0x00\n        /* \"#utility.yul\":7000:7042   */\n      0xffffffffffffffffffffffffffffffffffffffff\n        /* \"#utility.yul\":6993:6998   */\n      dup3\n        /* \"#utility.yul\":6989:7043   */\n      and\n        /* \"#utility.yul\":6978:7043   */\n      swap1\n      pop\n        /* \"#utility.yul\":6923:7049   */\n      swap2\n      swap1\n      pop\n      jump\t// out\n        /* \"#utility.yul\":7055:7132   */\n    tag_147:\n        /* \"#utility.yul\":7092:7099   */\n      0x00\n        /* \"#utility.yul\":7121:7126   */\n      dup2\n        /* \"#utility.yul\":7110:7126   */\n      swap1\n      pop\n        /* \"#utility.yul\":7055:7132   */\n      swap2\n      swap1\n      pop\n      jump\t// out\n        /* \"#utility.yul\":7138:7243   */\n    tag_186:\n        /* \"#utility.yul\":7174:7181   */\n      0x00\n        /* \"#utility.yul\":7214:7236   */\n      0xffffffffffffffffffff\n        /* \"#utility.yul\":7207:7212   */\n      dup3\n        /* \"#utility.yul\":7203:7237   */\n      and\n        /* \"#utility.yul\":7192:7237   */\n      swap1\n      pop\n        /* \"#utility.yul\":7138:7243   */\n      swap2\n      swap1\n      pop\n      jump\t// out\n        /* \"#utility.yul\":7249:7482   */\n    tag_45:\n        /* \"#utility.yul\":7288:7291   */\n      0x00\n        /* \"#utility.yul\":7311:7335   */\n      tag_189\n        /* \"#utility.yul\":7329:7334   */\n      dup3\n        /* \"#utility.yul\":7311:7335   */\n      tag_147\n      jump\t// in\n    tag_189:\n        /* \"#utility.yul\":7302:7335   */\n      swap2\n      pop\n        /* \"#utility.yul\":7357:7423   */\n      0xffffffffffffffffffffffffffffffffffffffffffffffffffffffffffffffff\n        /* \"#utility.yul\":7350:7355   */\n      dup3\n        /* \"#utility.yul\":7347:7424   */\n      eq\n        /* \"#utility.yul\":7344:7447   */\n      iszero\n      tag_190\n      jumpi\n        /* \"#utility.yul\":7427:7445   */\n      tag_191\n      tag_167\n      jump\t// in\n    tag_191:\n        /* \"#utility.yul\":7344:7447   */\n    tag_190:\n        /* \"#utility.yul\":7474:7475   */\n      0x01\n        /* \"#utility.yul\":7467:7472   */\n      dup3\n        /* \"#utility.yul\":7463:7476   */\n      add\n        /* \"#utility.yul\":7456:7476   */\n      swap1\n      pop\n        /* \"#utility.yul\":7249:7482   */\n      swap2\n      swap1\n      pop\n      jump\t// out\n        /* \"#utility.yul\":7488:7668   */\n    tag_167:\n        /* \"#utility.yul\":7536:7613   */\n      0x4e487b7100000000000000000000000000000000000000000000000000000000\n        /* \"#utility.yul\":7533:7534   */\n      0x00\n        /* \"#utility.yul\":7526:7614   */\n      mstore\n        /* \"#utility.yul\":7633:7637   */\n      0x11\n        /* \"#utility.yul\":7630:7631   */\n      0x04\n        /* \"#utility.yul\":7623:7638   */\n      mstore\n        /* \"#utility.yul\":7657:7661   */\n      0x24\n        /* \"#utility.yul\":7654:7655   */\n      0x00\n        /* \"#utility.yul\":7647:7662   */\n      revert\n        /* \"#utility.yul\":7674:7854   */\n    tag_173:\n        /* \"#utility.yul\":7722:7799   */\n      0x4e487b7100000000000000000000000000000000000000000000000000000000\n        /* \"#utility.yul\":7719:7720   */\n      0x00\n        /* \"#utility.yul\":7712:7800   */\n      mstore\n        /* \"#utility.yul\":7819:7823   */\n      0x12\n        /* \"#utility.yul\":7816:7817   */\n      0x04\n        /* \"#utility.yul\":7809:7824   */\n      mstore\n        /* \"#utility.yul\":7843:7847   */\n      0x24\n        /* \"#utility.yul\":7840:7841   */\n      0x00\n        /* \"#utility.yul\":7833:7848   */\n      revert\n        /* \"#utility.yul\":7860:8040   */\n    tag_42:\n        /* \"#utility.yul\":7908:7985   */\n      0x4e487b7100000000000000000000000000000000000000000000000000000000\n        /* \"#utility.yul\":7905:7906   */\n      0x00\n        /* \"#utility.yul\":7898:7986   */\n      mstore\n        /* \"#utility.yul\":8005:8009   */\n      0x32\n        /* \"#utility.yul\":8002:8003   */\n      0x04\n        /* \"#utility.yul\":7995:8010   */\n      mstore\n        /* \"#utility.yul\":8029:8033   */\n      0x24\n        /* \"#utility.yul\":8026:8027   */\n      0x00\n        /* \"#utility.yul\":8019:8034   */\n      revert\n        /* \"#utility.yul\":8046:8226   */\n    tag_33:\n        /* \"#utility.yul\":8094:8171   */\n      0x4e487b7100000000000000000000000000000000000000000000000000000000\n        /* \"#utility.yul\":8091:8092   */\n      0x00\n        /* \"#utility.yul\":8084:8172   */\n      mstore\n        /* \"#utility.yul\":8191:8195   */\n      0x41\n        /* \"#utility.yul\":8188:8189   */\n      0x04\n        /* \"#utility.yul\":8181:8196   */\n      mstore\n        /* \"#utility.yul\":8215:8219   */\n      0x24\n        /* \"#utility.yul\":8212:8213   */\n      0x00\n        /* \"#utility.yul\":8205:8220   */\n      revert\n        /* \"#utility.yul\":8355:8472   */\n    tag_109:\n        /* \"#utility.yul\":8464:8465   */\n      0x00\n        /* \"#utility.yul\":8461:8462   */\n      dup1\n        /* \"#utility.yul\":8454:8466   */\n      revert\n        /* \"#utility.yul\":8478:8592   */\n    tag_132:\n      pop\n      jump\t// out\n        /* \"#utility.yul\":8598:8773   */\n    tag_138:\n        /* \"#utility.yul\":8738:8765   */\n      0x596f75206e65656420746f2073656e64206d6f72652045544800000000000000\n        /* \"#utility.yul\":8734:8735   */\n      0x00\n        /* \"#utility.yul\":8726:8732   */\n      dup3\n        /* \"#utility.yul\":8722:8736   */\n      add\n        /* \"#utility.yul\":8715:8766   */\n      mstore\n        /* \"#utility.yul\":8598:8773   */\n      pop\n      jump\t// out\n        /* \"#utility.yul\":8779:8940   */\n    tag_143:\n        /* \"#utility.yul\":8919:8932   */\n      0x43616c6c204661696c6564000000000000000000000000000000000000000000\n        /* \"#utility.yul\":8915:8916   */\n      0x00\n        /* \"#utility.yul\":8907:8913   */\n      dup3\n        /* \"#utility.yul\":8903:8917   */\n      add\n        /* \"#utility.yul\":8896:8933   */\n      mstore\n        /* \"#utility.yul\":8779:8940   */\n      pop\n      jump\t// out\n        /* \"#utility.yul\":8946:9068   */\n    tag_90:\n        /* \"#utility.yul\":9019:9043   */\n      tag_203\n        /* \"#utility.yul\":9037:9042   */\n      dup2\n        /* \"#utility.yul\":9019:9043   */\n      tag_126\n      jump\t// in\n    tag_203:\n        /* \"#utility.yul\":9012:9017   */\n      dup2\n        /* \"#utility.yul\":9009:9044   */\n      eq\n        /* \"#utility.yul\":8999:9062   */\n      tag_204\n      jumpi\n        /* \"#utility.yul\":9058:9059   */\n      0x00\n        /* \"#utility.yul\":9055:9056   */\n      dup1\n        /* \"#utility.yul\":9048:9060   */\n      revert\n        /* \"#utility.yul\":8999:9062   */\n    tag_204:\n        /* \"#utility.yul\":8946:9068   */\n      pop\n      jump\t// out\n        /* \"#utility.yul\":9074:9194   */\n    tag_94:\n        /* \"#utility.yul\":9146:9169   */\n      tag_206\n        /* \"#utility.yul\":9163:9168   */\n      dup2\n        /* \"#utility.yul\":9146:9169   */\n      tag_182\n      jump\t// in\n    tag_206:\n        /* \"#utility.yul\":9139:9144   */\n      dup2\n        /* \"#utility.yul\":9136:9170   */\n      eq\n        /* \"#utility.yul\":9126:9188   */\n      tag_207\n      jumpi\n        /* \"#utility.yul\":9184:9185   */\n      0x00\n        /* \"#utility.yul\":9181:9182   */\n      dup1\n        /* \"#utility.yul\":9174:9186   */\n      revert\n        /* \"#utility.yul\":9126:9188   */\n    tag_207:\n        /* \"#utility.yul\":9074:9194   */\n      pop\n      jump\t// out\n        /* \"#utility.yul\":9200:9322   */\n    tag_98:\n        /* \"#utility.yul\":9273:9297   */\n      tag_209\n        /* \"#utility.yul\":9291:9296   */\n      dup2\n        /* \"#utility.yul\":9273:9297   */\n      tag_147\n      jump\t// in\n    tag_209:\n        /* \"#utility.yul\":9266:9271   */\n      dup2\n        /* \"#utility.yul\":9263:9298   */\n      eq\n        /* \"#utility.yul\":9253:9316   */\n      tag_210\n      jumpi\n        /* \"#utility.yul\":9312:9313   */\n      0x00\n        /* \"#utility.yul\":9309:9310   */\n      dup1\n        /* \"#utility.yul\":9302:9314   */\n      revert\n        /* \"#utility.yul\":9253:9316   */\n    tag_210:\n        /* \"#utility.yul\":9200:9322   */\n      pop\n      jump\t// out\n        /* \"#utility.yul\":9328:9448   */\n    tag_105:\n        /* \"#utility.yul\":9400:9423   */\n      tag_212\n        /* \"#utility.yul\":9417:9422   */\n      dup2\n        /* \"#utility.yul\":9400:9423   */\n      tag_186\n      jump\t// in\n    tag_212:\n        /* \"#utility.yul\":9393:9398   */\n      dup2\n        /* \"#utility.yul\":9390:9424   */\n      eq\n        /* \"#utility.yul\":9380:9442   */\n      tag_213\n      jumpi\n        /* \"#utility.yul\":9438:9439   */\n      0x00\n        /* \"#utility.yul\":9435:9436   */\n      dup1\n        /* \"#utility.yul\":9428:9440   */\n      revert\n        /* \"#utility.yul\":9380:9442   */\n    tag_213:\n        /* \"#utility.yul\":9328:9448   */\n      pop\n      jump\t// out\n\n    auxdata: 0xa26469706673582212206b16dbf4e1cc338a87b5900528120567daa40e2b55574ff9dbaba7494c86e77364736f6c63430008070033\n}\n",
				"bytecode": {
					"linkReferences": {},
					"object": "60a060405234801561001057600080fd5b503373ffffffffffffffffffffffffffffffffffffffff1660808173ffffffffffffffffffffffffffffffffffffffff1660601b8152505060805160601c610bba610066600039600061010a0152610bba6000f3fe60806040526004361061004a5760003560e01c80633ccfd60b1461004f5780633e47d6f3146100595780636b69a592146100965780636ce1417e146100c1578063dc0d3dff146100cb575b600080fd5b610057610108565b005b34801561006557600080fd5b50610080600480360381019061007b9190610689565b61031b565b60405161008d9190610855565b60405180910390f35b3480156100a257600080fd5b506100ab610333565b6040516100b89190610855565b60405180910390f35b6100c9610340565b005b3480156100d757600080fd5b506100f260048036038101906100ed91906106b6565b61044e565b6040516100ff91906107fa565b60405180910390f35b7f000000000000000000000000000000000000000000000000000000000000000073ffffffffffffffffffffffffffffffffffffffff163373ffffffffffffffffffffffffffffffffffffffff161461016057600080fd5b600067ffffffffffffffff81111561017b5761017a610a9f565b5b6040519080825280602002602001820160405280156101a95781602001602082028036833780820191505090505b50600090805190602001906101bf929190610579565b5060005b60008054905081101561026b5760008082815481106101e5576101e4610a70565b5b9060005260206000200160009054906101000a900473ffffffffffffffffffffffffffffffffffffffff1690506000600160008373ffffffffffffffffffffffffffffffffffffffff1673ffffffffffffffffffffffffffffffffffffffff16815260200190815260200160002081905550508080610263906109c9565b9150506101c3565b5060003373ffffffffffffffffffffffffffffffffffffffff1647604051610292906107e5565b60006040518083038185875af1925050503d80600081146102cf576040519150601f19603f3d011682016040523d82523d6000602084013e6102d4565b606091505b5050905080610318576040517f08c379a000000000000000000000000000000000000000000000000000000000815260040161030f90610835565b60405180910390fd5b50565b60016020528060005260406000206000915090505481565b6802b5e3af16b188000081565b6802b5e3af16b18800006103533461048d565b11610393576040517f08c379a000000000000000000000000000000000000000000000000000000000815260040161038a90610815565b60405180910390fd5b6000339080600181540180825580915050600190039060005260206000200160009091909190916101000a81548173ffffffffffffffffffffffffffffffffffffffff021916908373ffffffffffffffffffffffffffffffffffffffff16021790555034600160003373ffffffffffffffffffffffffffffffffffffffff1673ffffffffffffffffffffffffffffffffffffffff1681526020019081526020016000206000828254610445919061088c565b92505081905550565b6000818154811061045e57600080fd5b906000526020600020016000915054906101000a900473ffffffffffffffffffffffffffffffffffffffff1681565b6000806104986104d1565b9050670de0b6b3a7640000836402540be400836104b59190610913565b6104bf9190610913565b6104c991906108e2565b915050919050565b600080738a753747a1fa494ec906ce90e9f37563a8af630e905060008173ffffffffffffffffffffffffffffffffffffffff1663feaf968c6040518163ffffffff1660e01b815260040160a06040518083038186803b15801561053357600080fd5b505afa158015610547573d6000803e3d6000fd5b505050506040513d601f19601f8201168201806040525081019061056b91906106e3565b505050915050809250505090565b8280548282559060005260206000209081019282156105f2579160200282015b828111156105f15782518260006101000a81548173ffffffffffffffffffffffffffffffffffffffff021916908373ffffffffffffffffffffffffffffffffffffffff16021790555091602001919060010190610599565b5b5090506105ff9190610603565b5090565b5b8082111561061c576000816000905550600101610604565b5090565b60008135905061062f81610b28565b92915050565b60008151905061064481610b3f565b92915050565b60008135905061065981610b56565b92915050565b60008151905061066e81610b56565b92915050565b60008151905061068381610b6d565b92915050565b60006020828403121561069f5761069e610ace565b5b60006106ad84828501610620565b91505092915050565b6000602082840312156106cc576106cb610ace565b5b60006106da8482850161064a565b91505092915050565b600080600080600060a086880312156106ff576106fe610ace565b5b600061070d88828901610674565b955050602061071e88828901610635565b945050604061072f8882890161065f565b93505060606107408882890161065f565b925050608061075188828901610674565b9150509295509295909350565b6107678161096d565b82525050565b600061077a600083610870565b915061078582610ad3565b600082019050919050565b600061079d60198361087b565b91506107a882610ad6565b602082019050919050565b60006107c0600b8361087b565b91506107cb82610aff565b602082019050919050565b6107df816109a9565b82525050565b60006107f08261076d565b9150819050919050565b600060208201905061080f600083018461075e565b92915050565b6000602082019050818103600083015261082e81610790565b9050919050565b6000602082019050818103600083015261084e816107b3565b9050919050565b600060208201905061086a60008301846107d6565b92915050565b600081905092915050565b600082825260208201905092915050565b6000610897826109a9565b91506108a2836109a9565b9250827fffffffffffffffffffffffffffffffffffffffffffffffffffffffffffffffff038211156108d7576108d6610a12565b5b828201905092915050565b60006108ed826109a9565b91506108f8836109a9565b92508261090857610907610a41565b5b828204905092915050565b600061091e826109a9565b9150610929836109a9565b9250817fffffffffffffffffffffffffffffffffffffffffffffffffffffffffffffffff048311821515161561096257610961610a12565b5b828202905092915050565b600061097882610989565b9050919050565b6000819050919050565b600073ffffffffffffffffffffffffffffffffffffffff82169050919050565b6000819050919050565b600069ffffffffffffffffffff82169050919050565b60006109d4826109a9565b91507fffffffffffffffffffffffffffffffffffffffffffffffffffffffffffffffff821415610a0757610a06610a12565b5b600182019050919050565b7f4e487b7100000000000000000000000000000000000000000000000000000000600052601160045260246000fd5b7f4e487b7100000000000000000000000000000000000000000000000000000000600052601260045260246000fd5b7f4e487b7100000000000000000000000000000000000000000000000000000000600052603260045260246000fd5b7f4e487b7100000000000000000000000000000000000000000000000000000000600052604160045260246000fd5b600080fd5b50565b7f596f75206e65656420746f2073656e64206d6f72652045544800000000000000600082015250565b7f43616c6c204661696c6564000000000000000000000000000000000000000000600082015250565b610b318161096d565b8114610b3c57600080fd5b50565b610b488161097f565b8114610b5357600080fd5b50565b610b5f816109a9565b8114610b6a57600080fd5b50565b610b76816109b3565b8114610b8157600080fd5b5056fea26469706673582212206b16dbf4e1cc338a87b5900528120567daa40e2b55574ff9dbaba7494c86e77364736f6c63430008070033",
					"opcodes": "PUSH1 0xA0 PUSH1 0x40 MSTORE CALLVALUE DUP1 ISZERO PUSH2 0x10 JUMPI PUSH1 0x0 DUP1 REVERT JUMPDEST POP CALLER PUSH20 0xFFFFFFFFFFFFFFFFFFFFFFFFFFFFFFFFFFFFFFFF AND PUSH1 0x80 DUP2 PUSH20 0xFFFFFFFFFFFFFFFFFFFFFFFFFFFFFFFFFFFFFFFF AND PUSH1 0x60 SHL DUP2 MSTORE POP POP PUSH1 0x80 MLOAD PUSH1 0x60 SHR PUSH2 0xBBA PUSH2 0x66 PUSH1 0x0 CODECOPY PUSH1 0x0 PUSH2 0x10A ADD MSTORE PUSH2 0xBBA PUSH1 0x0 RETURN INVALID PUSH1 0x80 PUSH1 0x40 MSTORE PUSH1 0x4 CALLDATASIZE LT PUSH2 0x4A JUMPI PUSH1 0x0 CALLDATALOAD PUSH1 0xE0 SHR DUP1 PUSH4 0x3CCFD60B EQ PUSH2 0x4F JUMPI DUP1 PUSH4 0x3E47D6F3 EQ PUSH2 0x59 JUMPI DUP1 PUSH4 0x6B69A592 EQ PUSH2 0x96 JUMPI DUP1 PUSH4 0x6CE1417E EQ PUSH2 0xC1 JUMPI DUP1 PUSH4 0xDC0D3DFF EQ PUSH2 0xCB JUMPI JUMPDEST PUSH1 0x0 DUP1 REVERT JUMPDEST PUSH2 0x57 PUSH2 0x108 JUMP JUMPDEST STOP JUMPDEST CALLVALUE DUP1 ISZERO PUSH2 0x65 JUMPI PUSH1 0x0 DUP1 REVERT JUMPDEST POP PUSH2 0x80 PUSH1 0x4 DUP1 CALLDATASIZE SUB DUP2 ADD SWAP1 PUSH2 0x7B SWAP2 SWAP1 PUSH2 0x689 JUMP JUMPDEST PUSH2 0x31B JUMP JUMPDEST PUSH1 0x40 MLOAD PUSH2 0x8D SWAP2 SWAP1 PUSH2 0x855 JUMP JUMPDEST PUSH1 0x40 MLOAD DUP1 SWAP2 SUB SWAP1 RETURN JUMPDEST CALLVALUE DUP1 ISZERO PUSH2 0xA2 JUMPI PUSH1 0x0 DUP1 REVERT JUMPDEST POP PUSH2 0xAB PUSH2 0x333 JUMP JUMPDEST PUSH1 0x40 MLOAD PUSH2 0xB8 SWAP2 SWAP1 PUSH2 0x855 JUMP JUMPDEST PUSH1 0x40 MLOAD DUP1 SWAP2 SUB SWAP1 RETURN JUMPDEST PUSH2 0xC9 PUSH2 0x340 JUMP JUMPDEST STOP JUMPDEST CALLVALUE DUP1 ISZERO PUSH2 0xD7 JUMPI PUSH1 0x0 DUP1 REVERT JUMPDEST POP PUSH2 0xF2 PUSH1 0x4 DUP1 CALLDATASIZE SUB DUP2 ADD SWAP1 PUSH2 0xED SWAP2 SWAP1 PUSH2 0x6B6 JUMP JUMPDEST PUSH2 0x44E JUMP JUMPDEST PUSH1 0x40 MLOAD PUSH2 0xFF SWAP2 SWAP1 PUSH2 0x7FA JUMP JUMPDEST PUSH1 0x40 MLOAD DUP1 SWAP2 SUB SWAP1 RETURN JUMPDEST PUSH32 0x0 PUSH20 0xFFFFFFFFFFFFFFFFFFFFFFFFFFFFFFFFFFFFFFFF AND CALLER PUSH20 0xFFFFFFFFFFFFFFFFFFFFFFFFFFFFFFFFFFFFFFFF AND EQ PUSH2 0x160 JUMPI PUSH1 0x0 DUP1 REVERT JUMPDEST PUSH1 0x0 PUSH8 0xFFFFFFFFFFFFFFFF DUP2 GT ISZERO PUSH2 0x17B JUMPI PUSH2 0x17A PUSH2 0xA9F JUMP JUMPDEST JUMPDEST PUSH1 0x40 MLOAD SWAP1 DUP1 DUP3 MSTORE DUP1 PUSH1 0x20 MUL PUSH1 0x20 ADD DUP3 ADD PUSH1 0x40 MSTORE DUP1 ISZERO PUSH2 0x1A9 JUMPI DUP2 PUSH1 0x20 ADD PUSH1 0x20 DUP3 MUL DUP1 CALLDATASIZE DUP4 CALLDATACOPY DUP1 DUP3 ADD SWAP2 POP POP SWAP1 POP JUMPDEST POP PUSH1 0x0 SWAP1 DUP1 MLOAD SWAP1 PUSH1 0x20 ADD SWAP1 PUSH2 0x1BF SWAP3 SWAP2 SWAP1 PUSH2 0x579 JUMP JUMPDEST POP PUSH1 0x0 JUMPDEST PUSH1 0x0 DUP1 SLOAD SWAP1 POP DUP2 LT ISZERO PUSH2 0x26B JUMPI PUSH1 0x0 DUP1 DUP3 DUP2 SLOAD DUP2 LT PUSH2 0x1E5 JUMPI PUSH2 0x1E4 PUSH2 0xA70 JUMP JUMPDEST JUMPDEST SWAP1 PUSH1 0x0 MSTORE PUSH1 0x20 PUSH1 0x0 KECCAK256 ADD PUSH1 0x0 SWAP1 SLOAD SWAP1 PUSH2 0x100 EXP SWAP1 DIV PUSH20 0xFFFFFFFFFFFFFFFFFFFFFFFFFFFFFFFFFFFFFFFF AND SWAP1 POP PUSH1 0x0 PUSH1 0x1 PUSH1 0x0 DUP4 PUSH20 0xFFFFFFFFFFFFFFFFFFFFFFFFFFFFFFFFFFFFFFFF AND PUSH20 0xFFFFFFFFFFFFFFFFFFFFFFFFFFFFFFFFFFFFFFFF AND DUP2 MSTORE PUSH1 0x20 ADD SWAP1 DUP2 MSTORE PUSH1 0x20 ADD PUSH1 0x0 KECCAK256 DUP2 SWAP1 SSTORE POP POP DUP1 DUP1 PUSH2 0x263 SWAP1 PUSH2 0x9C9 JUMP JUMPDEST SWAP2 POP POP PUSH2 0x1C3 JUMP JUMPDEST POP PUSH1 0x0 CALLER PUSH20 0xFFFFFFFFFFFFFFFFFFFFFFFFFFFFFFFFFFFFFFFF AND SELFBALANCE PUSH1 0x40 MLOAD PUSH2 0x292 SWAP1 PUSH2 0x7E5 JUMP JUMPDEST PUSH1 0x0 PUSH1 0x40 MLOAD DUP1 DUP4 SUB DUP2 DUP6 DUP8 GAS CALL SWAP3 POP POP POP RETURNDATASIZE DUP1 PUSH1 0x0 DUP2 EQ PUSH2 0x2CF JUMPI PUSH1 0x40 MLOAD SWAP2 POP PUSH1 0x1F NOT PUSH1 0x3F RETURNDATASIZE ADD AND DUP3 ADD PUSH1 0x40 MSTORE RETURNDATASIZE DUP3 MSTORE RETURNDATASIZE PUSH1 0x0 PUSH1 0x20 DUP5 ADD RETURNDATACOPY PUSH2 0x2D4 JUMP JUMPDEST PUSH1 0x60 SWAP2 POP JUMPDEST POP POP SWAP1 POP DUP1 PUSH2 0x318 JUMPI PUSH1 0x40 MLOAD PUSH32 0x8C379A000000000000000000000000000000000000000000000000000000000 DUP2 MSTORE PUSH1 0x4 ADD PUSH2 0x30F SWAP1 PUSH2 0x835 JUMP JUMPDEST PUSH1 0x40 MLOAD DUP1 SWAP2 SUB SWAP1 REVERT JUMPDEST POP JUMP JUMPDEST PUSH1 0x1 PUSH1 0x20 MSTORE DUP1 PUSH1 0x0 MSTORE PUSH1 0x40 PUSH1 0x0 KECCAK256 PUSH1 0x0 SWAP2 POP SWAP1 POP SLOAD DUP2 JUMP JUMPDEST PUSH9 0x2B5E3AF16B1880000 DUP2 JUMP JUMPDEST PUSH9 0x2B5E3AF16B1880000 PUSH2 0x353 CALLVALUE PUSH2 0x48D JUMP JUMPDEST GT PUSH2 0x393 JUMPI PUSH1 0x40 MLOAD PUSH32 0x8C379A000000000000000000000000000000000000000000000000000000000 DUP2 MSTORE PUSH1 0x4 ADD PUSH2 0x38A SWAP1 PUSH2 0x815 JUMP JUMPDEST PUSH1 0x40 MLOAD DUP1 SWAP2 SUB SWAP1 REVERT JUMPDEST PUSH1 0x0 CALLER SWAP1 DUP1 PUSH1 0x1 DUP2 SLOAD ADD DUP1 DUP3 SSTORE DUP1 SWAP2 POP POP PUSH1 0x1 SWAP1 SUB SWAP1 PUSH1 0x0 MSTORE PUSH1 0x20 PUSH1 0x0 KECCAK256 ADD PUSH1 0x0 SWAP1 SWAP2 SWAP1 SWAP2 SWAP1 SWAP2 PUSH2 0x100 EXP DUP2 SLOAD DUP2 PUSH20 0xFFFFFFFFFFFFFFFFFFFFFFFFFFFFFFFFFFFFFFFF MUL NOT AND SWAP1 DUP4 PUSH20 0xFFFFFFFFFFFFFFFFFFFFFFFFFFFFFFFFFFFFFFFF AND MUL OR SWAP1 SSTORE POP CALLVALUE PUSH1 0x1 PUSH1 0x0 CALLER PUSH20 0xFFFFFFFFFFFFFFFFFFFFFFFFFFFFFFFFFFFFFFFF AND PUSH20 0xFFFFFFFFFFFFFFFFFFFFFFFFFFFFFFFFFFFFFFFF AND DUP2 MSTORE PUSH1 0x20 ADD SWAP1 DUP2 MSTORE PUSH1 0x20 ADD PUSH1 0x0 KECCAK256 PUSH1 0x0 DUP3 DUP3 SLOAD PUSH2 0x445 SWAP2 SWAP1 PUSH2 0x88C JUMP JUMPDEST SWAP3 POP POP DUP2 SWAP1 SSTORE POP JUMP JUMPDEST PUSH1 0x0 DUP2 DUP2 SLOAD DUP2 LT PUSH2 0x45E JUMPI PUSH1 0x0 DUP1 REVERT JUMPDEST SWAP1 PUSH1 0x0 MSTORE PUSH1 0x20 PUSH1 0x0 KECCAK256 ADD PUSH1 0x0 SWAP2 POP SLOAD SWAP1 PUSH2 0x100 EXP SWAP1 DIV PUSH20 0xFFFFFFFFFFFFFFFFFFFFFFFFFFFFFFFFFFFFFFFF AND DUP2 JUMP JUMPDEST PUSH1 0x0 DUP1 PUSH2 0x498 PUSH2 0x4D1 JUMP JUMPDEST SWAP1 POP PUSH8 0xDE0B6B3A7640000 DUP4 PUSH5 0x2540BE400 DUP4 PUSH2 0x4B5 SWAP2 SWAP1 PUSH2 0x913 JUMP JUMPDEST PUSH2 0x4BF SWAP2 SWAP1 PUSH2 0x913 JUMP JUMPDEST PUSH2 0x4C9 SWAP2 SWAP1 PUSH2 0x8E2 JUMP JUMPDEST SWAP2 POP POP SWAP2 SWAP1 POP JUMP JUMPDEST PUSH1 0x0 DUP1 PUSH20 0x8A753747A1FA494EC906CE90E9F37563A8AF630E SWAP1 POP PUSH1 0x0 DUP2 PUSH20 0xFFFFFFFFFFFFFFFFFFFFFFFFFFFFFFFFFFFFFFFF AND PUSH4 0xFEAF968C PUSH1 0x40 MLOAD DUP2 PUSH4 0xFFFFFFFF AND PUSH1 0xE0 SHL DUP2 MSTORE PUSH1 0x4 ADD PUSH1 0xA0 PUSH1 0x40 MLOAD DUP1 DUP4 SUB DUP2 DUP7 DUP1 EXTCODESIZE ISZERO DUP1 ISZERO PUSH2 0x533 JUMPI PUSH1 0x0 DUP1 REVERT JUMPDEST POP GAS STATICCALL ISZERO DUP1 ISZERO PUSH2 0x547 JUMPI RETURNDATASIZE PUSH1 0x0 DUP1 RETURNDATACOPY RETURNDATASIZE PUSH1 0x0 REVERT JUMPDEST POP POP POP POP PUSH1 0x40 MLOAD RETURNDATASIZE PUSH1 0x1F NOT PUSH1 0x1F DUP3 ADD AND DUP3 ADD DUP1 PUSH1 0x40 MSTORE POP DUP2 ADD SWAP1 PUSH2 0x56B SWAP2 SWAP1 PUSH2 0x6E3 JUMP JUMPDEST POP POP POP SWAP2 POP POP DUP1 SWAP3 POP POP POP SWAP1 JUMP JUMPDEST DUP3 DUP1 SLOAD DUP3 DUP3 SSTORE SWAP1 PUSH1 0x0 MSTORE PUSH1 0x20 PUSH1 0x0 KECCAK256 SWAP1 DUP2 ADD SWAP3 DUP3 ISZERO PUSH2 0x5F2 JUMPI SWAP2 PUSH1 0x20 MUL DUP3 ADD JUMPDEST DUP3 DUP2 GT ISZERO PUSH2 0x5F1 JUMPI DUP3 MLOAD DUP3 PUSH1 0x0 PUSH2 0x100 EXP DUP2 SLOAD DUP2 PUSH20 0xFFFFFFFFFFFFFFFFFFFFFFFFFFFFFFFFFFFFFFFF MUL NOT AND SWAP1 DUP4 PUSH20 0xFFFFFFFFFFFFFFFFFFFFFFFFFFFFFFFFFFFFFFFF AND MUL OR SWAP1 SSTORE POP SWAP2 PUSH1 0x20 ADD SWAP2 SWAP1 PUSH1 0x1 ADD SWAP1 PUSH2 0x599 JUMP JUMPDEST JUMPDEST POP SWAP1 POP PUSH2 0x5FF SWAP2 SWAP1 PUSH2 0x603 JUMP JUMPDEST POP SWAP1 JUMP JUMPDEST JUMPDEST DUP1 DUP3 GT ISZERO PUSH2 0x61C JUMPI PUSH1 0x0 DUP2 PUSH1 0x0 SWAP1 SSTORE POP PUSH1 0x1 ADD PUSH2 0x604 JUMP JUMPDEST POP SWAP1 JUMP JUMPDEST PUSH1 0x0 DUP2 CALLDATALOAD SWAP1 POP PUSH2 0x62F DUP2 PUSH2 0xB28 JUMP JUMPDEST SWAP3 SWAP2 POP POP JUMP JUMPDEST PUSH1 0x0 DUP2 MLOAD SWAP1 POP PUSH2 0x644 DUP2 PUSH2 0xB3F JUMP JUMPDEST SWAP3 SWAP2 POP POP JUMP JUMPDEST PUSH1 0x0 DUP2 CALLDATALOAD SWAP1 POP PUSH2 0x659 DUP2 PUSH2 0xB56 JUMP JUMPDEST SWAP3 SWAP2 POP POP JUMP JUMPDEST PUSH1 0x0 DUP2 MLOAD SWAP1 POP PUSH2 0x66E DUP2 PUSH2 0xB56 JUMP JUMPDEST SWAP3 SWAP2 POP POP JUMP JUMPDEST PUSH1 0x0 DUP2 MLOAD SWAP1 POP PUSH2 0x683 DUP2 PUSH2 0xB6D JUMP JUMPDEST SWAP3 SWAP2 POP POP JUMP JUMPDEST PUSH1 0x0 PUSH1 0x20 DUP3 DUP5 SUB SLT ISZERO PUSH2 0x69F JUMPI PUSH2 0x69E PUSH2 0xACE JUMP JUMPDEST JUMPDEST PUSH1 0x0 PUSH2 0x6AD DUP5 DUP3 DUP6 ADD PUSH2 0x620 JUMP JUMPDEST SWAP2 POP POP SWAP3 SWAP2 POP POP JUMP JUMPDEST PUSH1 0x0 PUSH1 0x20 DUP3 DUP5 SUB SLT ISZERO PUSH2 0x6CC JUMPI PUSH2 0x6CB PUSH2 0xACE JUMP JUMPDEST JUMPDEST PUSH1 0x0 PUSH2 0x6DA DUP5 DUP3 DUP6 ADD PUSH2 0x64A JUMP JUMPDEST SWAP2 POP POP SWAP3 SWAP2 POP POP JUMP JUMPDEST PUSH1 0x0 DUP1 PUSH1 0x0 DUP1 PUSH1 0x0 PUSH1 0xA0 DUP7 DUP9 SUB SLT ISZERO PUSH2 0x6FF JUMPI PUSH2 0x6FE PUSH2 0xACE JUMP JUMPDEST JUMPDEST PUSH1 0x0 PUSH2 0x70D DUP9 DUP3 DUP10 ADD PUSH2 0x674 JUMP JUMPDEST SWAP6 POP POP PUSH1 0x20 PUSH2 0x71E DUP9 DUP3 DUP10 ADD PUSH2 0x635 JUMP JUMPDEST SWAP5 POP POP PUSH1 0x40 PUSH2 0x72F DUP9 DUP3 DUP10 ADD PUSH2 0x65F JUMP JUMPDEST SWAP4 POP POP PUSH1 0x60 PUSH2 0x740 DUP9 DUP3 DUP10 ADD PUSH2 0x65F JUMP JUMPDEST SWAP3 POP POP PUSH1 0x80 PUSH2 0x751 DUP9 DUP3 DUP10 ADD PUSH2 0x674 JUMP JUMPDEST SWAP2 POP POP SWAP3 SWAP6 POP SWAP3 SWAP6 SWAP1 SWAP4 POP JUMP JUMPDEST PUSH2 0x767 DUP2 PUSH2 0x96D JUMP JUMPDEST DUP3 MSTORE POP POP JUMP JUMPDEST PUSH1 0x0 PUSH2 0x77A PUSH1 0x0 DUP4 PUSH2 0x870 JUMP JUMPDEST SWAP2 POP PUSH2 0x785 DUP3 PUSH2 0xAD3 JUMP JUMPDEST PUSH1 0x0 DUP3 ADD SWAP1 POP SWAP2 SWAP1 POP JUMP JUMPDEST PUSH1 0x0 PUSH2 0x79D PUSH1 0x19 DUP4 PUSH2 0x87B JUMP JUMPDEST SWAP2 POP PUSH2 0x7A8 DUP3 PUSH2 0xAD6 JUMP JUMPDEST PUSH1 0x20 DUP3 ADD SWAP1 POP SWAP2 SWAP1 POP JUMP JUMPDEST PUSH1 0x0 PUSH2 0x7C0 PUSH1 0xB DUP4 PUSH2 0x87B JUMP JUMPDEST SWAP2 POP PUSH2 0x7CB DUP3 PUSH2 0xAFF JUMP JUMPDEST PUSH1 0x20 DUP3 ADD SWAP1 POP SWAP2 SWAP1 POP JUMP JUMPDEST PUSH2 0x7DF DUP2 PUSH2 0x9A9 JUMP JUMPDEST DUP3 MSTORE POP POP JUMP JUMPDEST PUSH1 0x0 PUSH2 0x7F0 DUP3 PUSH2 0x76D JUMP JUMPDEST SWAP2 POP DUP2 SWAP1 POP SWAP2 SWAP1 POP JUMP JUMPDEST PUSH1 0x0 PUSH1 0x20 DUP3 ADD SWAP1 POP PUSH2 0x80F PUSH1 0x0 DUP4 ADD DUP5 PUSH2 0x75E JUMP JUMPDEST SWAP3 SWAP2 POP POP JUMP JUMPDEST PUSH1 0x0 PUSH1 0x20 DUP3 ADD SWAP1 POP DUP2 DUP2 SUB PUSH1 0x0 DUP4 ADD MSTORE PUSH2 0x82E DUP2 PUSH2 0x790 JUMP JUMPDEST SWAP1 POP SWAP2 SWAP1 POP JUMP JUMPDEST PUSH1 0x0 PUSH1 0x20 DUP3 ADD SWAP1 POP DUP2 DUP2 SUB PUSH1 0x0 DUP4 ADD MSTORE PUSH2 0x84E DUP2 PUSH2 0x7B3 JUMP JUMPDEST SWAP1 POP SWAP2 SWAP1 POP JUMP JUMPDEST PUSH1 0x0 PUSH1 0x20 DUP3 ADD SWAP1 POP PUSH2 0x86A PUSH1 0x0 DUP4 ADD DUP5 PUSH2 0x7D6 JUMP JUMPDEST SWAP3 SWAP2 POP POP JUMP JUMPDEST PUSH1 0x0 DUP2 SWAP1 POP SWAP3 SWAP2 POP POP JUMP JUMPDEST PUSH1 0x0 DUP3 DUP3 MSTORE PUSH1 0x20 DUP3 ADD SWAP1 POP SWAP3 SWAP2 POP POP JUMP JUMPDEST PUSH1 0x0 PUSH2 0x897 DUP3 PUSH2 0x9A9 JUMP JUMPDEST SWAP2 POP PUSH2 0x8A2 DUP4 PUSH2 0x9A9 JUMP JUMPDEST SWAP3 POP DUP3 PUSH32 0xFFFFFFFFFFFFFFFFFFFFFFFFFFFFFFFFFFFFFFFFFFFFFFFFFFFFFFFFFFFFFFFF SUB DUP3 GT ISZERO PUSH2 0x8D7 JUMPI PUSH2 0x8D6 PUSH2 0xA12 JUMP JUMPDEST JUMPDEST DUP3 DUP3 ADD SWAP1 POP SWAP3 SWAP2 POP POP JUMP JUMPDEST PUSH1 0x0 PUSH2 0x8ED DUP3 PUSH2 0x9A9 JUMP JUMPDEST SWAP2 POP PUSH2 0x8F8 DUP4 PUSH2 0x9A9 JUMP JUMPDEST SWAP3 POP DUP3 PUSH2 0x908 JUMPI PUSH2 0x907 PUSH2 0xA41 JUMP JUMPDEST JUMPDEST DUP3 DUP3 DIV SWAP1 POP SWAP3 SWAP2 POP POP JUMP JUMPDEST PUSH1 0x0 PUSH2 0x91E DUP3 PUSH2 0x9A9 JUMP JUMPDEST SWAP2 POP PUSH2 0x929 DUP4 PUSH2 0x9A9 JUMP JUMPDEST SWAP3 POP DUP2 PUSH32 0xFFFFFFFFFFFFFFFFFFFFFFFFFFFFFFFFFFFFFFFFFFFFFFFFFFFFFFFFFFFFFFFF DIV DUP4 GT DUP3 ISZERO ISZERO AND ISZERO PUSH2 0x962 JUMPI PUSH2 0x961 PUSH2 0xA12 JUMP JUMPDEST JUMPDEST DUP3 DUP3 MUL SWAP1 POP SWAP3 SWAP2 POP POP JUMP JUMPDEST PUSH1 0x0 PUSH2 0x978 DUP3 PUSH2 0x989 JUMP JUMPDEST SWAP1 POP SWAP2 SWAP1 POP JUMP JUMPDEST PUSH1 0x0 DUP2 SWAP1 POP SWAP2 SWAP1 POP JUMP JUMPDEST PUSH1 0x0 PUSH20 0xFFFFFFFFFFFFFFFFFFFFFFFFFFFFFFFFFFFFFFFF DUP3 AND SWAP1 POP SWAP2 SWAP1 POP JUMP JUMPDEST PUSH1 0x0 DUP2 SWAP1 POP SWAP2 SWAP1 POP JUMP JUMPDEST PUSH1 0x0 PUSH10 0xFFFFFFFFFFFFFFFFFFFF DUP3 AND SWAP1 POP SWAP2 SWAP1 POP JUMP JUMPDEST PUSH1 0x0 PUSH2 0x9D4 DUP3 PUSH2 0x9A9 JUMP JUMPDEST SWAP2 POP PUSH32 0xFFFFFFFFFFFFFFFFFFFFFFFFFFFFFFFFFFFFFFFFFFFFFFFFFFFFFFFFFFFFFFFF DUP3 EQ ISZERO PUSH2 0xA07 JUMPI PUSH2 0xA06 PUSH2 0xA12 JUMP JUMPDEST JUMPDEST PUSH1 0x1 DUP3 ADD SWAP1 POP SWAP2 SWAP1 POP JUMP JUMPDEST PUSH32 0x4E487B7100000000000000000000000000000000000000000000000000000000 PUSH1 0x0 MSTORE PUSH1 0x11 PUSH1 0x4 MSTORE PUSH1 0x24 PUSH1 0x0 REVERT JUMPDEST PUSH32 0x4E487B7100000000000000000000000000000000000000000000000000000000 PUSH1 0x0 MSTORE PUSH1 0x12 PUSH1 0x4 MSTORE PUSH1 0x24 PUSH1 0x0 REVERT JUMPDEST PUSH32 0x4E487B7100000000000000000000000000000000000000000000000000000000 PUSH1 0x0 MSTORE PUSH1 0x32 PUSH1 0x4 MSTORE PUSH1 0x24 PUSH1 0x0 REVERT JUMPDEST PUSH32 0x4E487B7100000000000000000000000000000000000000000000000000000000 PUSH1 0x0 MSTORE PUSH1 0x41 PUSH1 0x4 MSTORE PUSH1 0x24 PUSH1 0x0 REVERT JUMPDEST PUSH1 0x0 DUP1 REVERT JUMPDEST POP JUMP JUMPDEST PUSH32 0x596F75206E65656420746F2073656E64206D6F72652045544800000000000000 PUSH1 0x0 DUP3 ADD MSTORE POP JUMP JUMPDEST PUSH32 0x43616C6C204661696C6564000000000000000000000000000000000000000000 PUSH1 0x0 DUP3 ADD MSTORE POP JUMP JUMPDEST PUSH2 0xB31 DUP2 PUSH2 0x96D JUMP JUMPDEST DUP2 EQ PUSH2 0xB3C JUMPI PUSH1 0x0 DUP1 REVERT JUMPDEST POP JUMP JUMPDEST PUSH2 0xB48 DUP2 PUSH2 0x97F JUMP JUMPDEST DUP2 EQ PUSH2 0xB53 JUMPI PUSH1 0x0 DUP1 REVERT JUMPDEST POP JUMP JUMPDEST PUSH2 0xB5F DUP2 PUSH2 0x9A9 JUMP JUMPDEST DUP2 EQ PUSH2 0xB6A JUMPI PUSH1 0x0 DUP1 REVERT JUMPDEST POP JUMP JUMPDEST PUSH2 0xB76 DUP2 PUSH2 0x9B3 JUMP JUMPDEST DUP2 EQ PUSH2 0xB81 JUMPI PUSH1 0x0 DUP1 REVERT JUMPDEST POP JUMP INVALID LOG2 PUSH5 0x6970667358 0x22 SLT KECCAK256 PUSH12 0x16DBF4E1CC338A87B5900528 SLT SDIV PUSH8 0xDAA40E2B55574FF9 0xDB 0xAB 0xA7 0x49 0x4C DUP7 0xE7 PUSH20 0x64736F6C63430008070033000000000000000000 "
				},
				"gasEstimates": {
					"creation": {
						"codeDepositCost": "600400",
						"executionCost": "infinite",
						"totalCost": "infinite"
					},
					"external": {
						"Fund()": "infinite",
						"MINIMUM_USD()": "351",
						"addressToAmountFunded(address)": "2814",
						"funders(uint256)": "5022",
						"withdraw()": "infinite"
					}
				},
				"methodIdentifiers": {
					"Fund()": "6ce1417e",
					"MINIMUM_USD()": "6b69a592",
					"addressToAmountFunded(address)": "3e47d6f3",
					"funders(uint256)": "dc0d3dff",
					"withdraw()": "3ccfd60b"
				}
			},
			"storageLayout": {
				"storage": [
					{
						"astId": 56,
						"contract": "contracts/FundMe.sol:FundMe",
						"label": "funders",
						"offset": 0,
						"slot": "0",
						"type": "t_array(t_address)dyn_storage"
					},
					{
						"astId": 60,
						"contract": "contracts/FundMe.sol:FundMe",
						"label": "addressToAmountFunded",
						"offset": 0,
						"slot": "1",
						"type": "t_mapping(t_address,t_uint256)"
					}
				],
				"types": {
					"t_address": {
						"encoding": "inplace",
						"label": "address",
						"numberOfBytes": "20"
					},
					"t_array(t_address)dyn_storage": {
						"base": "t_address",
						"encoding": "dynamic_array",
						"label": "address[]",
						"numberOfBytes": "32"
					},
					"t_mapping(t_address,t_uint256)": {
						"encoding": "mapping",
						"key": "t_address",
						"label": "mapping(address => uint256)",
						"numberOfBytes": "32",
						"value": "t_uint256"
					},
					"t_uint256": {
						"encoding": "inplace",
						"label": "uint256",
						"numberOfBytes": "32"
					}
				}
			},
			"userdoc": {
				"kind": "user",
				"methods": {},
				"version": 1
			}
		}
	}
}